:0200000407FCF7
:10000000801FFC07B900FC07C100FC07D900FC07F2
:1000100000000000000000000000000000000000E0
:10002000000000000000000000000000F100FC07DC
:100030000000000000000000F300FC07F500FC07D2
:10004000F700FC07F700FC07B915FC07BD15FC0716
:100050009314FC07F700FC07F700FC07F700FC0708
:10006000F700FC07F700FC07B909FC07BD09FC070E
:10007000C109FC07C509FC07C909FC077116FC0783
:10008000F700FC07F700FC07F700FC07F700FC0788
:10009000F700FC07F700FC07F700FC07F700FC0778
:1000A0000448854601F08CFB004800470B0CFC0718
:1000B000C046C046801FFC070F4880470F480047D6
:1000C00004207146084203D0EFF309800C49084729
:1000D000EFF308800A49084704207146084203D01C
:1000E000EFF3098007490847EFF3088005490847FF
:1000F000FEE7FEE7FEE7FEE70901FC07A100FC07BB
:100100005501FC075101FC0710B50F490620088076
:100110000F2000F00CF8012000F009F8002000F09A
:1001200006F8002005210907088062B610BD0028E6
:1001300009DBC106C90E0120884004490860BFF3ED
:100140004F8FBFF36F8F70470034005080E100E0A5
:10015000FEE7000005200007018A04221143018206
:10016000018A022211430182018940221143018147
:10017000054A01211160418A012289088900D203C0
:10018000114341827047000080E200E010B5042175
:10019000434801F000FB42480021017002224270F6
:1001A00081700321C17010BD3D4810B50821001DAC
:1001B00001F0F1FA3A480021001D0170032242705B
:1001C0008170C17001710622427181710521C17176
:1001D00010BD10B505200007018A0222914301825B
:1001E000818A0907FCD5418A20229143114341822B
:1001F000FFF7DAFFFFF7CAFF10BDF8B5284C012062
:10020000241D0090032636026178207808233246A8
:1002100000F071FB00250095E178A07807233246B5
:1002200000F069FB0095617920790623324600F0E1
:1002300062FB0095E179A0790523002200F05BFBC9
:10024000F8BD17490278091D0A7042784A70827811
:100250008A70C278CA7002790A7142794A718279C9
:100260008A71C079C871704738B500250C4C00956B
:100270006178207809232A4600F03DFB0095E1785B
:10028000A0780A23002200F036FB38BD044902782A
:100290000A7042784A7082788A70C078C870704755
:1002A000B418FC0710B5974A0AC953611161014699
:1002B0001022944801F056FA10BD10B5914801F093
:1002C00089F810BDF0B590498F4B8F4C00208E4AB5
:1002D000603180338D4E4034082515820D8A6D07BC
:1002E000ED0FFBD00D8AAD06ED0FFBD11D88A78A5F
:1002F000ED0704D0401CB042EED30120F0BD002039
:10030000F0BD30B57F4B040A997D7F4A012902D0A8
:1003100002291AD11CE07C4960318D896D086D007D
:100320008D819B898503AD0F2B439588AD0AAD0266
:100330001D4395808D8901239D431D438D810B8A2B
:100340009B06DB0FFBD1E1B21182C0B2108230BD3F
:100350000102090E1182F6E7F8B514460546EFF3DF
:100360001086012080F310880846FFF7CAFF664810
:10037000FF21002201316030631E06E0078ABF07BB
:10038000FF0FFBD0604F3982521C9A42F6D3028A8B
:100390009207D20FFBD05C4A1182002E04D00121BB
:1003A00081F3108800210CE00021F9E7038B9B0604
:1003B0009B0EFBD0138A2E6833702B685B1C491C84
:1003C0002B60A142F2D3018A4907C90FFBD0018AF1
:1003D0008906C90FFBD1F8BD7FB50D46002A0DD0A7
:1003E00048480069441B944200D314461C60FFF740
:1003F00069FF00280CD0012004B070BD00201860F7
:100400000FE0202229466846FFF7A6FF203C203552
:10041000202CF6D2002C04D0224629466846FFF74D
:100420009BFF0020E8E7FFB5054681B0002018607B
:1004300034481746026902991E468A4236D9848A90
:100440000298214601F078F9601A84B2A74200D2DE
:100450003C46FFF737FF002802D0012005B0F0BD71
:10046000EFF31087012080F310880298FFF749FF0F
:100470002548254A6030018A8907C90FFBD02978B1
:1004800011823168641E491CA4B26D1C3160002CBD
:10049000F1D1002F0CD0012181F31088018A490786
:1004A000C90FFBD0018A8906C90FFBD10020D5E70F
:1004B0000021F1E7F8B506460020186000901148C9
:1004C0000D4600691C46A84201D80220F8BD401B19
:1004D000904200D20246174610E02068BAB2411995
:1004E00080196B46FFF79FFF002801D00120F8BD5F
:1004F000206800994018206000983F1A002FECD126
:100500000020F8BD0C19FC0700130050400D03003B
:1005100010B5012000F0B5FE0520000200F011FF2B
:1005200080B210BD10B5FFF7F3FFC00701D00D205A
:10053000C04310BD70B50024DA4DFFF7E9FFC007D6
:1005400004D0641CAC42F8D30020C04370BD10B589
:1005500000F0D2FE00F08EFE002000F092FEAB20F4
:1005600000F0EFFE002010BD0DC8CF490DC170474F
:1005700010B50446FFF7D6FF00281ED100F081FE1B
:1005800000F0BAFE9F2000F0BEFE002000F0BBFE8F
:100590000006000A2060002000F0B5FE0006216879
:1005A000000C08432060002000F0ADFE2168C0B2BE
:1005B0000843206000F05EFE002010BD70B59AB0C8
:1005C00006466022B949684601F0CCF818A8FFF742
:1005D000CFFF002815D11898002814D0411C12D044
:1005E000082100246D460C2262435219526882424F
:1005F0000CD10C2044436019FFF7B6FF285D307022
:1006000000201AB070BD0A20C043FAE7641CE4B2AF
:100610008C42E8D30920C043F3E710B50C4600F044
:1006200041FEFFF794FF2046FFF7C8FF10BD10B54D
:100630000446FFF777FF00280DD100F022FE204688
:1006400000F07FFEFFF776FF002804D1FFF760FF80
:10065000800701D5002010BD0B20C04310BD10B590
:100660000446FFF75FFF002809D1012000F009FED2
:10067000E01DF93000F065FEFFF75CFF002010BDC3
:1006800010B50446FFF74EFF00280ED10620FFF7F5
:10069000CEFF002809D1FFF73BFF01463C208143F4
:1006A00004402143C8B2FFF7DAFF10BD70B50C4615
:1006B0000546FFF737FF00280DD10620FFF7B7FFEB
:1006C000002808D1022000F0DCFD2006284300F0BD
:1006D00038FEFFF72FFF70BD10B5FFF723FF00288E
:1006E0000BD10620FFF7A3FF002806D100F0C9FDBB
:1006F000C72000F026FEFFF71DFF10BD70B51446A1
:100700000E460546FFF70EFF002824D10620FFF70E
:100710008EFF00281FD1FF200130844200D90446FB
:10072000022000F0AEFD00F0E7FD01213046490651
:10073000084300F0E8FD002000F0A3FD05E0287864
:100740006D1C00F0E0FD641EA4B2002CF7D100F097
:1007500091FDFFF7EFFE70BDFFB583B00020019063
:100760000E460091FF20014315460C46002000F084
:1007700088FD4D488068801BA84200D205462E4661
:10078000002715E000988019A04202D90098261A87
:10079000761C0398B2B2C0190099FFF7AFFF019021
:1007A00000280AD1601CBF19EE1BFF3401340090F1
:1007B000AF42E7D306980760019807B0F0BDF8B5DF
:1007C0001D4617460C460646FFF7ACFE002824D10E
:1007D000354839198068814202D9001B286000E041
:1007E0002F60022000F04DFD00F086FD0321204621
:1007F0000906084300F087FD002000F042FD0024B8
:1008000005E0002000F07FFD3070641C761C286835
:10081000A042F6D800F02EFD0020F8BD10B5C2B001
:10082000FF24013401466B46224601A8FFF7C7FFAB
:10083000002804D10098A04203D00820C04342B051
:1008400010BD002001A982008A58521C02D001204C
:10085000C043F4E7401C80B24028F4D30020EEE708
:1008600070B5134900240840054620022818FFF7F8
:10087000D5FF002803D1641CA4B2102CF5D370BDA1
:1008800070B5094880680001050C002406E02003CB
:10089000FFF7E6FF002804D1641CA4B2AC42F6D3F3
:1008A000002070BD80841E00C018FC070418FC07DF
:1008B00000FFFF00704710B5032800D104204B4C07
:1008C00040010019490008181A43C28010BD0328CE
:1008D00000D10420454A4001801801228A408280CC
:1008E0007047032800D10420404A400180180122AB
:1008F0008A404280704770B5064604981446002826
:100900000D46304602D0FFF7ECFF01E0FFF7DFFFB6
:10091000224629463046FFF7CEFF70BD10B50028AD
:1009200007D0431E314C5B0070341B19012802D0E4
:1009300002E00023F6E70831188801248C40A04328
:100940008A4002431A8010BD08B529A2126800929D
:10095000032805D86A46105C884201D3012008BDEF
:10096000002008BD70B5012421460A3881400D469B
:1009700088B200F02BF884401E48C189A9430C437B
:10098000C48170BD10B504460A3804280AD8204630
:10099000FFF7E8FF1849A00040188038806D002854
:1009A00001D0804710BD002CFCDBE106C90E012000
:1009B00088401249086010BD0A20E3E70B20E1E7F8
:1009C0000C20DFE70D20DDE70E20DBE700280BD051
:1009D000411E4840C003010C002002E04908401CB1
:1009E00080B20029FAD170471020704700300050C3
:1009F00007050907001400502419FC0780E200E0F5
:100A000018B5FF4900220A6005200007448A4023E8
:100A10001C434482448A9C4344824A61F94B8B6262
:100A200001231B04CB6201888023194301800092BB
:100A30000098401C00906428FADB18BD1CB5F248F1
:100A4000F24C0068019001202070009003221023D6
:100A50001202A1786078FFF74EFFE078002801D0FD
:100A6000012200E00022A1786078FFF757FF00F034
:100A7000F4FDE7480188802211430180052000072A
:100A8000818808221143818081886A468908127909
:100A900089001143818000221146104600F0C8FDF4
:100AA0007D20C000DB4A014600F0DDFD00F0CFFDF7
:100AB0001CBDF8B50546002400780A2100F03CFE74
:100AC0006D7807460E46012D00D9641EFFF73CFFE6
:100AD000002809D0641C07D0CC4847708670C570C8
:100AE000FFF7ACFF0020F8BD0020C043F8BD00298F
:100AF00005D08420C5498860C749087270478320A3
:100B0000F8E7002908D08420C04A00299060C24A32
:100B1000107200D0D16070478320F5E7002908D01B
:100B20008420BA4A00299060BB4A107200D0D1607C
:100B300070478320F5E7B54982208860B64908727E
:100B40007047002908D08420B04A00299060B24A3A
:100B5000107200D0D16070478320F5E7002908D0DB
:100B60008420AA4A00299060AB4A107200D0D1605C
:100B700070478320F5E7002908D0481C06D0822062
:100B8000A24A9060A44A1072D16070478420F7E7AF
:100B900030B59E4D87B0E86800281DD09F4800F012
:100BA00081FBFFF7D4FC04A8FFF7E2FC04000AD1A4
:100BB0000498002809D0411C07D0E9684A6882429D
:100BC00006D00920C04307B030BD0A20C043FAE771
:100BD0000846FFF7C9FC16E00020039090486946DC
:100BE00002788A734078C87305A903A8FFF715FD3A
:100BF000040008D0844A6B46121D07CA07C3684622
:100C0000FFF7B2FC00242046DDE788B000207F4CCF
:100C10000490814DE060287000F036FD0121090448
:100C2000804800F0B8FD5A2028727B4F38787D88C4
:100C30007E68002801D000213970942878D014DC17
:100C4000812876D008DC0028EFD010282DD032285B
:100C500070D080281DD157E290286CD091286BD09D
:100C600092286AD0932814D1E2E1A1287ED008DC32
:100C7000952830D096287AD0972879D0A02808D106
:100C800012E2A3285ED0A42873D0B02805D0C028D3
:100C900014D0654886210278D9E16068401CFFF7CE
:100CA00008FF01466048027891E15E480E225FA18C
:100CB00000F058FD5C480F2102789EE15F49082052
:100CC00048805F4901204880052008800888000688
:100CD000000EFBD1A9E7534D00273E46A8194178E5
:100CE000A85DFFF731FE002800D1471EB61C082E74
:100CF000F4DB287A002807D0012801D00027FF4321
:100D00000126002F04D019E00026002F06D015E0A0
:100D1000A97A687AFFF718FE002849D02846FFF71D
:100D200090FA002E0AD001200090A97A687A39E062
:100D3000EEE0FAE13FE04EE163E110E13A48394686
:100D4000027844E1374D00273E46A8194178A85D56
:100D5000FFF7FAFD002800D1471EB61C042EF4DB75
:100D60002879002812D0012806D003E0B3E1FFE083
:100D70006EE075E10027FF430126002FDED1A9793F
:100D80006879FFF7E1FD002812D002E00026002F6D
:100D9000D4D12846FFF77AFA002ECFD00120009058
:100DA000A9796879032200231202FFF7A4FDC5E7A1
:100DB0000027FF43C2E70020AF081A4E0546009007
:100DC0001AE0A8008119019102904978305CFFF780
:100DD000BBFD002801D1001F009001980023C178BD
:100DE00080780A020243302002400198417802983C
:100DF000305CFFF760FD6D1CBD4225DA009821E0F4
:100E00000000F407204F101A6418FC07CC18FC07E8
:100E100020000050FFFF0000007CFC078418FC0746
:100E2000B818FC070080FC07B018FC07765F362E68
:100E3000302E31342E313131340000000033005077
:100E4000003100500028BCD0CD4800990278FEE067
:100E5000CC4DCD482A7841785207C908C900520FB5
:100E6000114302786B785208DB075200DB0F1A43FC
:100E7000EB78AE787340760033435B07F1261B0FA7
:100E800032401343BF22037011402A79D207520E19
:100E9000114341706979002904D0012905D0022944
:100EA00007D11EE01907090F02E01907090F1031D9
:100EB0000170B4480E3000F079FCB34E1C367060FF
:100EC000B048801D00F072FCB060E660FFF795F955
:100ED000FFF75EFE002808D0A94806210278C94322
:100EE000B5E01907090F2031E2E7A87DFFF7C8FB3D
:100EF000002806D0A24802210278C9436068FFF7A3
:100F000020FE9F48002102786068FFF7FAFD8CE61A
:100F1000FFF773F9FFF73CFE0028DDD12903370BFB
:100F2000401E3F030D0B090500D06D1C002D01D0A4
:100F300000260BE00125002620213846FFF7B6FBEE
:100F4000012109037F18002802D1761CAE42F3D399
:100F500001468B4802786068FFF7E0FD65E6FFF721
:100F60004CF9FFF715FE0028B6D1FFF7B5FBEFE708
:100F7000FFF743F9FFF70CFE0028ADD18148007858
:100F800001280FD0300B000329030918009001201D
:100F90008004814203D90099401A0001050C002603
:100FA00037460DE0FFF76CFC06460DE0009839036C
:100FB0000818FFF755FC002801D00126F6437F1CD6
:100FC000AF4201DA002EF1D06D48314602786068F8
:100FD000FFF78DFD29E6FFF710F9FFF7D9FD00288F
:100FE0009BD1684803AB2A463146FFF7E8FB00284F
:100FF00018D10398A84215D168E06068FFF79BFDFF
:1010000013E6FFF7FAF8FFF7C3FD002885D15D4826
:1010100003AB2A463146FFF79FFB010002D103983C
:10102000A84202D00721C94367E055480278A2E0F0
:10103000FFF7E3F8FFF7ACFD002895D16846FFF70E
:1010400097FA00284E48027805D00321C94360680A
:10105000FFF777FDE9E500996068FFF78CFDE4E5AF
:10106000494948480C3182784A72C278CA7242783B
:10107000037812021A438A810D460079083DA8714F
:101080004048093000F092FBA8803E48401D00F027
:101090008DFB2946286008460830FFF703F9FFF763
:1010A0000CF9FFF7E1F82CE73749091D084608302D
:1010B000FFF7F8F8FFF701F9FFF7D6F8314805AB6D
:1010C0002A463146FFF788F9010016D12C486D1CDD
:1010D000A9B2027891E72C49091D08460830FFF7AC
:1010E000E1F8FFF7EAF8FFF7BFF8264804AB2A4615
:1010F0003146FFF7DFF9010002D021480278A6E768
:101100001F480021027836E0FFF77AFC002000F04B
:1011100061F8FF20C00431182A461A4800F022FB6B
:101120008220387200F032F87FE5164800270290DE
:1011300038461AE0019902980822411806A800F0E2
:1011400011FBFFF75DFC002002460090F10802232E
:1011500006A800F048F8012107464F4000F016F8B5
:101160000836002F04D1019808300190A842E1D33D
:101170000348394602786068FFF7F0FC55E5000047
:10118000B018FC070080FC078418FC0718B52E492E
:1011900000220A6005200007448A40231C43448241
:1011A000448A9C4344824A61284B8B6201231B047E
:1011B000CB62048880231C4304800092521C00925E
:1011C000642AFBDB0A68D208D2000A6001889943CE
:1011D000018018BD1C49002802D0FF20023000E029
:1011E00001200860704770B54900049D012A00D0B5
:1011F0000022154C11432161591E6161002D02D05E
:10120000FF21053103E02168C908C900091D2160DB
:10121000002108E0A2681205120F082AFAD08A00FD
:101220008258A261491C9942F4D300F007F8A068E3
:10123000800701D5002070BD012070BD0248816883
:101240004906FCD5704700000000F407204F101A33
:10125000EFF31080012181F31088052109078A88A6
:101260000123DB021A438A80002800D0012080F38A
:101270001088704710B5394841780078FFF731FB86
:1012800010BD37490A88520852000A800A88FF2395
:1012900081339A43C00102430A8008880122104327
:1012A0000880704710B5044681782C480170E178B9
:1012B0004170FFF7DFFFFFF7CBFF20780207C10780
:1012C000520F490E520000091143C00001436078DB
:1012D0004207920D4006C00F11438003014320488E
:1012E000018001898908890001810121C18002886A
:1012F0000A430280002010BD10B5184841780078DC
:10130000FFF7E5FA10BD164900220B899B089B00E8
:101310009B1C0B810B88DB059B0F012B01D9030C58
:101320008B80488008888004FCD50120C88008880C
:10133000C005800F012801D98888020448888018D8
:10134000704710B50446FFF7D7FF2046FFF7DBFFD5
:101350000446FFF78FFF204610BD00003819FC0738
:101360000012005010B5564A13885B085B001380CA
:1013700013884024A343138013880824A343C00088
:10138000034313801089800A80020843108110BD36
:1013900030B54B4B1C880125640864002C431C802D
:1013A0001C884025AC432C431C80012900D101201E
:1013B0001C882025AC43400104431C80188810245D
:1013C000A0430901084318809888800A80021043CE
:1013D000988030BD30B5EFF31081012282F3108880
:1013E00005231B079A882024A24322439A800029C0
:1013F00000D0012181F31088314C6034A189490863
:101400004900A181A189C907C90FFBD12C4900223C
:1014100020310A822A4A038893824388138383886F
:101420009383C3880B8013880625AB43457A6D00F0
:101430002B4313808A8B5309827B5B01521E13431B
:101440008B830A8B5309C27B5B01521E13430B83B0
:10145000817A012917D08189C07AFFF783FFA1899A
:10146000012081430143A181A089C007C00FFBD0A7
:10147000144801688022090A0902114301601249D7
:101480001020086030BD8289C17A007AFFF780FFA2
:10149000E5E70B4810B5203080890C49C96A00295E
:1014A00001D0884710BD042000F001F810BD0028CD
:1014B00005DBC106C90E0120884005490860704758
:1014C0000013005004E400E000E100E0DC18FC0739
:1014D00080E200E0534930B4884201D0012100E0AD
:1014E0000021514A4901891808E0838ADB07DB0F94
:1014F00012D00388541C8D68CC81AB54CA898B8967
:101500009A42F2D382885208520082808A69002A65
:1015100002D0C88930BC104730BC7047F8B5414D87
:10152000414E044620890007000F062826D009DC1A
:10153000012840D002281DD00428F3D12046FFF70F
:10154000C9FFEFE7072828D00C28EBD1AC4201D027
:10155000012000E00020400187192046FFF7BAFF74
:10156000A18849084900A180B9690029DAD0F88921
:101570008847D7E7204600F023F8D3E72046AC425F
:1015800001D0012100E00021490189190A69002ADE
:10159000C8D0818A9E2319400BE02046AC4201D07E
:1015A000012100E00021490189190A69002AB9D006
:1015B00001219047B6E7F8BD1A48AFE71B48ADE7F1
:1015C000184930B4884201D0012100E00021164AB8
:1015D000490189180EE003891B069B0F032B1BD0C2
:1015E000838A9B06DB0F002B96D0531C0C68CB80A4
:1015F000A25C0280CA888B889A42ECD3828802233C
:101600009A438280828880239A4382804A69002A92
:1016100082D0888830BC10477C231B5A9B07DB0F85
:10162000E1E779E7001000503C19FC070011005079
:10163000C900920089184000081810490880104815
:1016400001680902090A42071143016070470B480B
:101650000188012211430180704708480188490828
:10166000490001807047054B58809980DA807047A7
:1016700004480068002800D000477047003400503C
:101680000CE400E07C19FC0738B5274908200880E5
:10169000FFF710F925484088C046C046234840302F
:1016A0004188C908C9004180204C203C61898905D6
:1016B0000AD54188C2130905090D8918418041885E
:1016C000782291434031418060884008400060802A
:1016D00017480021016005252D076B8A402213431E
:1016E0006B826B8A93436B824161124A8262012250
:1016F0001204C2622888802210432880009100983A
:10170000401C00906428FADB0020FFF763FDFFF720
:101710003DFDFEF75EFDA220E8826088E02188435F
:10172000A030608038BD0000003300504000005001
:101730000000F407204F101A30B50B460146002078
:101740002022012409E00D46D5409D4205D31D46C7
:101750009540491B2546954040191546521E002DBF
:10176000F1DC30BD03460B439B0703D009E008C9F9
:10177000121F08C0042AFAD203E00B780370401C41
:10178000491C521EF9D27047D2B201E00270401CCF
:10179000491EFBD270470022F6E710B513460A46F1
:1017A00004461946FFF7F0FF204610BD0321001D37
:1017B000401E037812021A43491EF9D5104670479D
:1017C000064C0125064E05E0E36807CC2B430C3C94
:1017D00098471034B442F7D3FEF766FC7418FC0740
:1017E0008418FC0702E008C8121F08C1002AFAD1B9
:1017F00070477047002001E001C1121F002AFBD191
:1018000070470000010000001130EF0000000200EE
:10181000020000001230EF0000000400030000008E
:1018200000421F0000000200040000001120C2005E
:1018300000000200050000001128C20000000200A4
:10184000060000001228C200000004000F00000083
:101850001160850000000200120000001264C80040
:101860000000040003000000000000000000000071
:1018700000000400AC18FC07B418FC07CC060000FC
:10188000F417FC0700000003000004000001010041
:1018900048004F000800170001000100500001013E
:0C18A00000000000000000000000040038
:0400000507FC00A153
:00000001FF
