:0200000407FCF7
:100000002066FC07BD01FC07C501FC07DD01FC07FC
:1000100000000000000000000000000000000000E0
:10002000000000000000000000000000F501FC07D7
:100030000000000000000000F701FC07C51DFC07E0
:10004000652AFC07A32AFC07A526F0073712FC0740
:10005000971BFC07FB01FC07F11FFC07FB01FC07DA
:10006000D12BFC07FB01FC07C910FC07CD10FC07D6
:10007000D110FC07D510FC07D910FC071D1AFC078E
:100080005111FC07FB01FC07FB01FC07FB01FC070E
:10009000FB01FC07FB01FC07FB01FC07FB01FC0764
:0800A000000000008E070E00B5
:0200000407FCF7
:100110000348854605F01EFB004800475903FC07CD
:100120002066FC0710B520480189C908C900018173
:10013000008A1E4CC00715D0608A8007800F0128F6
:1001400010D91B481949428820310A8182888A8047
:10015000C2880A80618AFF22813200889143C001EF
:10016000014361821349062008800F2000F00EF839
:10017000012000F00BF8002000F008F8608904214D
:10018000884360810020208062B610BD002809DB12
:10019000C106C90E0120884007490860BFF34F8F90
:1001A000BFF36F8F70470000000300500000005045
:1001B000A000FC070034005080E100E00F488047B9
:1001C0000F48004704207146084203D0EFF309802E
:1001D0000C490847EFF308800A4908470420714694
:1001E000084203D0EFF3098007490847EFF308807E
:1001F00005490847FEE7FEE7FEE7FEE72501FC07A5
:100200001101FC079902FC070D02FC0710B504461A
:100210001E484089C00508D51B2000F08FFE1B48F2
:1002200060300188012211430180052212071088E5
:10023000518A0007800FFF2381339943C001014396
:10024000518213492068086060684860A06888602F
:10025000E068C8602069086160694861A0698861D8
:10026000E069C8610C620B48836A4B62C36A8B62A7
:10027000036BCB62C36B0B63436B4B63806B886315
:10028000908AC00601D500BE10BDFEE720000050D8
:100290000090FC0700ED00E070B5052504462D0731
:1002A000288A04210843288228894021084328817C
:1002B00024480126066024490820088023484089F4
:1002C000C00507D51B2000F039FE204860300188AA
:1002D000314301802888698A0007800FFF2281321C
:1002E0009143C0010143698219492068086160682F
:1002F0004861A0688861E068C86120690862606937
:100300004862A0698862E069C8620C631148826A29
:100310004A63C26A8A63026BCA63C26B0C4940318A
:100320000A60426B4A60806B8860A88AC00608D564
:1003300000BE688A012180088000C90308436882E2
:1003400070BDFEE780E200E0003300502000005066
:100350004090FC0700ED00E008B500F0D4F800F094
:10036000DFFB01250026052424070FE0284600F0C6
:1003700081FA0421684600964DF7E0FB002801D081
:1003800000F03BFB03F0A0F900280BD02089000609
:1003900008D501208007006B000403D4A248007830
:1003A000C00713D003F0BFF90028EFD100F068FBBD
:1003B0000028EBD072B602F04DFC042810D00228C1
:1003C00015D0032813D001281ED022E05DF715F8C0
:1003D000002000F04FFA954800780428D2D1C5E7F4
:1003E00093480078012801D0032000E0022000F0AB
:1003F00050F8A08AC00602D58E490820088030BF78
:10040000A08A00F008F804E000F03AFB002800D0D1
:1004100030BF62B6BAE710B500F009FA8649022883
:100420000CD105200007408AC005820F8348028056
:100430000A8942808A8882800A88C280488960212D
:10044000C00500280ADB7C4860300088C00705D062
:10045000794A2032508A88432030508278488288F6
:100460008A43203282807748C078002807D07648B7
:10047000006801898AB2416803205CF71FF902F025
:10048000FFFD03F053F971480169042291430161B2
:1004900010BD38B569460524087005462407208A32
:1004A000042108432082284600F066F8284603F01D
:1004B0003CF961484189CA056021002A05DB5E4B91
:1004C00020335A8A8A4340325A825D4A93888B434A
:1004D00040339380022D01D0032D13D18188490828
:1004E00049008180002000900099491C0091142946
:1004F000FADB618989088900491C618161894906A3
:10050000FCD5608038BDF0B551485249052301271C
:10051000514A884201D31C4604E0904201D33C4634
:1005200000E000244D4D4E4E4648AD194D4E8470AE
:10053000AD190126B6034560B54201D8142500E087
:1005400000252540484C45708C4213D2474B254628
:10055000EB18944205D38B4201D211230AE03B46AB
:1005600008E0934201D2142304E08B4201D210230D
:1005700000E000230370F0BDF8B5022801D0032885
:1005800048D1324A136904210B4313612C4A203AA3
:1005900093895B085B00938105241022294E240770
:1005A00002287578608A36D010436082608A0843DA
:1005B00060827068C01C870800F086FF608A102186
:1005C000084360822A487F1E0762EFF310800121F2
:1005D00081F310882188802291432180002800D057
:1005E000012080F3108814484089C0050AD500F026
:1005F00059FF0B2000F0A2FC0F4860300188012257
:100600001143018003205CF77FF8002806D0012009
:10061000F0702583F8BD90436082F3E70020F0700E
:1006200030780540F5E7000054BAFC07F48CFC076D
:10063000B4BAFC070033005020000050A000FC07B3
:1006400020030050C08BFC0758B9FC0700ED00E008
:10065000C08BFC070070FC070040FC071001FC0782
:10066000585E0000000004F82066FC070C0400003F
:100670000000F407704770B50D46002442F73FF9BB
:100680002855641CE4B2202CF8D3002070BD10B5AE
:100690005EF720FD10BD10B55EF725FD10BD0521EC
:1006A0000907488A012280088000D203104348824B
:1006B000704770B5064614460D460B4800F0EAFD3B
:1006C0002246294630464DF756FC70BD10B54FF70F
:1006D000E2F8054800F0FBFD10BD10B54DF7CDFE6A
:1006E000014800F0F4FD10BD00100050584801789A
:1006F000002902D0802141707047564900200870BF
:100700005549C870704752490A78002A03D000281A
:100710000CD002200BE0002801D0022000E00120D4
:100720004C4908704C490120C87070470120803046
:1007300048707047F0B594460A46484908269E46D8
:100740000E8072B605242407218A042529432182BC
:10075000278980218F432781278940210F432781C3
:100760003F490D80A1886F02B943A1803D4F691FA9
:100770003960A18AC906FCD4618AFF278137B94351
:10078000618239490F8A7F087F000F82374F3B69AA
:100790002B433B61278BBF08BF0007432783208B78
:1007A0000C27B843920010432083208B30229043C3
:1007B0006246120110432083208A012210432082C6
:1007C00088899043724610438881274820300188E9
:1007D0000F229202114301800188012292031143EA
:1007E0000180234949896022CB0521492031002B12
:1007F0004B8A07DA934320334B82018889088900AA
:10080000891C04E013434B820188032319430180B0
:100810000188314301800188A94301808188914387
:100820004031818000BF00BF00BF30BFF0BD09492B
:1008300000200978002904D0012903D0022900D121
:1008400002207047012070470148C07870470000BF
:10085000C88BFC07B4BAFC0754BAFC07003300503D
:100860000002005080E200E00003005000ED00E0D4
:100870002000005010B5FE4CA178002921D0FD4980
:10088000002803D008884007FCD402E0088840070D
:1008900017D4CA88888811040A180020A070F64866
:1008A00000235043800B401C4008E0611F2040069D
:1008B000492162F7D5FDE162A06264214843000C42
:1008C000A06110BDEB4948800888032210430880CE
:1008D0000888042210430880E54901208870704789
:1008E00070B50520000701893022914301810189FB
:1008F0008022114301810189082211430181DF49CE
:100900000A88520852000A8043891822934343817F
:10091000048940231C430481048A0425AC430482D7
:10092000848AA407FCD5D24DAA246C61CD88012409
:100930000F263602B5430B263602AD19CD80CD8881
:100940002543CD8044899443083444814A88520821
:1009500052004A8001899943018101208007016882
:10096000821591430160C64801683F2252029143BB
:10097000421489180160016802031143016070BDCF
:1009800010B5BB490122D203C969904205D304F0D6
:10099000F3FE8905800A084310BD4843800A10BD54
:1009A000EEE710B5B24989694843B6494018490095
:1009B0005EF728FB10BDF4E770B500F0D4FF0446E5
:1009C000FFF7F9FFAA4D288120463C30FFF7F3FFDF
:1009D000AD49001D48602A891018C01DAB4A086047
:1009E0001278022A01D111300860FFF7D9FFA84917
:1009F000401880B25CF792FD70BDF0B5A54985B096
:100A00000120C863C86B0028FCD101208007C069A1
:100A1000974C2169884201D2002121611922411A93
:100A2000D20191422AD320619B48018803914188D9
:100A300002918788C688994903C900900191684648
:100A400001F0A3FA01F0EFFA0546012020567F28B5
:100A50000CD0281A40B2002801DA404240B20828DF
:100A600005DBE068401CE06001F0ECFE65708A4840
:100A7000029941808780C6800399018005B0F0BD4E
:100A800010B5874801240078C00705D08548417D0E
:100A900001290CD1007D06E005205CF7F1F9002862
:100AA00005D18148807A002802D0032800D0002494
:100AB000204610BD10B57D4900200860FFF77CFF7F
:100AC00001208007016B49004908016310BD08B58A
:100AD0006749888069498A88520852008A800022C2
:100AE00000920099491C00911429FADB052109079D
:100AF0004B899B089B005B1C4B814B895B06FCD59B
:100B00004880E120C0000092521C00928242FBDB30
:100B1000488980088000488148890006FCD508BDC6
:100B2000F8B563480826068000F04EFA614CA188AB
:100B3000684601800088C046C04668460088042395
:100B400098433ED00020A0805A48203001880F22D0
:100B5000920211430180494A2032518A3143518225
:100B6000464960310C880625AC430C800588CC01D1
:100B700025430580558AA5435582948A0E25AC43AA
:100B8000A41D94823D4C6589EF054B4D0F881DD502
:100B9000AF4315017D190D800D880F022D052D0D18
:100BA000ED190D8005883543058005889D43058036
:100BB0000D886D086D000D8001884025A9430180D6
:100BC00020E0208A400840002082BDE7AF43032593
:100BD0006D027D190D800D880F273F033D430D8069
:100BE0000588B543058005889D430580968A0325C1
:100BF0006D02AE4396820D88012635430D806189D2
:100C00004907FCD50188032529430180518A6025C5
:100C1000A943203151828188A9432031818001205C
:100C2000134E052530702D07E88AC0218843803097
:100C3000E882208A000A00022082208B1C2188433F
:100C4000083020831D480380A8880121C9028843F9
:100C5000A88048011A49086000F036FC022000F024
:100C6000F8FB184C2069C0B2AA286BD001202BE0F9
:100C7000D08BFC070016005011110100200000501D
:100C80000002004020A107006C5FFC07B4BAFC071B
:100C9000E2040000C000004000150050445AFC0768
:100CA000FDB9FC0788BDFC0750BDFC07A8B9FC07CF
:100CB0000033005000030050000F000000020050FD
:100CC00080E200E0C07FF80729880C229143800071
:100CD00001432980204800F0E3F800F0D1FC00F047
:100CE0003FFE002830D000F03BFEFFF7F0FE7F20F3
:100CF000707000F080FC00F035F802F0C1F90120BE
:100D000041F703FEFFF7ECFD1448006841F7A2FA33
:100D100013490020C87008710120800701688215FE
:100D2000114301601E20FFF7CDFD0120FFF7A2FD5A
:100D3000FFF7DCFC02F0F4F9FFF7BCFE012004F041
:100D4000FBF9F8BD032092E72069C0B2AA2801D0C0
:100D50006E20CAE78020C8E7F08BFC074CB9FC077F
:100D600054BAFC0770B5304E304C92B02046304932
:100D700035685EF7DAF907212E4809025EF7D5F9E2
:100D8000356004F093F92D492B4808602C48002564
:100D9000058030222B492C485EF7AEF926490822FF
:100DA0008868C9681191109010A928485EF7A4F9C5
:100DB00021494022103168465EF79EF9402269467B
:100DC00023485EF799F903F00DFF224901200870CE
:100DD000224A21491160234A21491160234A2249AC
:100DE0001160234A0A2111702249234A0D703221D1
:100DF0001170224A05211160214A106021480160CA
:100E00002149062008602149072008602049082060
:100E10000860FF201F49073008601F4908601F480D
:100E2000046012B070BD00005CBAFC0700A0FC07B3
:100E3000AC14000000B9FC074C5AFC0760BAFC0770
:100E4000008CFC077CFCF10700BAFC07DAB9FC0750
:100E5000B0BCFC07FDB9FC07603FF20750B9FC07C6
:100E6000DC57FC0754B9FC075859FC0758B9FC0774
:100E7000B0B9FC07B1B9FC07D9B9FC075CB9FC07EC
:100E800060B9FC0764B9FC0768B9FC076CB9FC07DA
:100E900070B9FC0748B9FC0744B9FC074CB9FC071A
:100EA00010B5062201495EF727F910BDD47FF80777
:100EB00005200007018830221143018001880322A8
:100EC00011430180704705200007018830229143BB
:100ED00001800188890889000180704736490A8BA2
:100EE00003231B029A43000202430A8370473349DB
:100EF0008A8A03235B029A43C3085B021A438A82ED
:100F00008A8A0723DB0240079A43800C02438A82C5
:100F10002A484030018801221143018027482038A7
:100F200041894907FCD570472448818A808A490550
:100F3000890F8004400FC900081870471F498A8A2A
:100F400003235B029A43C3085B021A438A828A8A9C
:100F50000723DB0240079A43800C02438A827047D2
:100F600010B50446154820384089C00502D4012038
:100F7000C04310BD00F093FA002806D0FFF7D4FF5D
:100F8000A04202D90020C04310BD0C48408AC004D2
:100F900008D40B480088000704D4082C02D204208F
:100FA000C04310BD07480121047041702046FFF77F
:100FB0009EFF002010BD0000203000504000005077
:100FC00020030050745FFC07704710B55A4C400175
:100FD0000019490008181A43C28010BD564A400142
:100FE000801849000818C088C006C00E7047524AD1
:100FF0004001801801228A40828070474E4A400199
:10100000801801228A404280704770B506460498D5
:10101000144600280D46304602D0FFF7EFFF01E0EE
:10102000FFF7E5FF224629463046FFF7CEFF70BDA9
:1010300010B5414BD88B01248C40A0438A40024319
:10104000DA8310BD3C4A40018018008801228A40A2
:10105000104000D00120704708B538A212680092F5
:10106000002805D168460078884201D3012008BDD8
:10107000002008BD70B5012421460A3881400D4684
:1010800088B200F049F884402D48C189A9430C4337
:10109000C48170BD10B504460A3804280AD8204619
:1010A000FFF7E8FF2749A00040188038806D00282E
:1010B00001D0804710BD002CFCDBE106C90E0120E9
:1010C00088402149086010BD0A20E3E70B20E1E7D2
:1010D0000C20DFE70D20DDE70E20DBE730B5D40183
:1010E0004D1C2C43002805D10B2903D8012A01D817
:1010F000002C00D100BE5D06144B6D0E5D800028F3
:1011000003D10B2901D8012A00D900241C8030BD4D
:101110000E4900200880704700280BD0411E48402F
:10112000C003010C002002E04908401C80B20029E5
:10113000FAD1704710207047003000500B000000BB
:1011400000140050048CFC0780E200E040000050D6
:1011500010B5FFF7B8FE0522120790882049000558
:1011600004D5204B1C880520A04311D09088C306CD
:101170001D481FD58388DB071CD003881B0619D5A3
:1011800001228280028880239A430280486822E0FC
:1011900018880422104318801888400840001880DE
:1011A0000C68002C05D00220185E995E0A229A5E17
:1011B000A04710BD9288D206FBD582889207F8D549
:1011C0000288D205F5D5022282800288FF230133EE
:1011D0009A43028088680028EBD0804710BD000049
:1011E000188CFC0700020050000100508A4930B4FE
:1011F000884201D0012100E0002124225143874A86
:10120000891808E0838ADB07DB0F12D00388541C9F
:101210008D68CC81AB54CA898B899A42F2D382887B
:101220005208520082808A69002A02D0C88930BCE4
:10123000104730BC704710B5794800F069F810BD10
:1012400038B5754B984201D0012400E000242425D4
:101250006C43724D64190125A577E1771146202270
:10126000115500220092984201D1012300E003238E
:10127000E07F0022FFF7C9FE38BD6749884201D0F0
:10128000012000E000202421484364494018002147
:1012900081777047604908B5884201D0012200E09B
:1012A000002224235A435D4BD218937F002B0DD08C
:1012B00000230093884201D1022300E00423202070
:1012C000815CD07F03221202FFF79FFE08BD5249C6
:1012D00008B5884201D0012200E0002224235A43AD
:1012E0004E4BD218937F002B11D0838A9B09DB07CA
:1012F000DB0FFAD000230093884201D1012300E0E4
:1013000003232020815CD07F0022FFF77EFE08BDF2
:10131000F8B5414D414E044620890007000F0628CC
:1013200027D009DC012843D002281ED00428F3D19D
:101330002046FFF75BFFEFE707282AD00C28EBD108
:10134000AC4201D0012000E000202421484387194D
:101350002046FFF74BFFA18849084900A180B969E1
:101360000029D9D0F8898847D6E7204600F021F82F
:10137000D2E72046AC4201D0012100E00021242226
:10138000514389190A69002AC6D0818A9E231940CF
:101390000CE02046AC4201D0012100E000212422D3
:1013A000514389190A69002AB6D001219047B3E751
:1013B000F8BD194930B4884201D0012100E0002174
:1013C00024225143154A89180EE003891B069B0FFE
:1013D000032B1BD0838A9B06DB0F002B1BD0531CD7
:1013E0000C68CB80A25C0280CA888B889A42ECD3BE
:1013F000828802239A438280828880239A43828053
:101400004A69002A07D0888830BC10477C231B5AC1
:101410009B07DB0FE1E70CE700100050248CFC0772
:101420000011005010B50446FFF77EFDA04202D225
:101430002046FFF783FD8B480188C90708D1018842
:101440000122114301808748603841894907FCD552
:1014500010BD38B5844C054620684107490F6846E1
:1014600001700078854219D07E4860384089C005F7
:101470000CD5A81E03005DF793FE050406040404C2
:1014800009000B2000E01320FFF7CCFF2068C00804
:10149000C0002843206060684007FCD538BD734811
:1014A00000787047714900200870704705210907CE
:1014B0000988090600D400BE80006D4909586A48B1
:1014C00001616C494161704710B5EFF31084012050
:1014D00080F31088634860384089C0050BD56349A4
:1014E00001200870FFF720FD634908705D480088FF
:1014F000C007C00F487005200007018880221143F3
:10150000018059480168C908C9000160416849075C
:10151000FCD50320FFF7CAFF002C03D0012080F385
:10152000108810BD0020FAE770B5054605200007B9
:10153000008816460C46000600D400BEA019012102
:101540004903401E884200D300BE0320FFF781FFFD
:101550000020454907E004CDCA608C60641C4A68DD
:101560009207FCD5401CB042F5D34868C007FCD0B8
:1015700070BD70B5054605200007008816460C466C
:10158000000600D400BE1846FFF763FF0020FF21CD
:10159000C9040AE0A3005B182A681B689A4201D0BC
:1015A000002070BD401C641C2D1DB042F2D30120F0
:1015B00070BD70B5064605200007008814460D462C
:1015C000000600D400BE3046FFF7AEFF04232246DB
:1015D00029463046FFF7CDFF00280BD005232246D1
:1015E00029463046FFF7C5FF002803D00320FFF748
:1015F00030FF012070BD70B5EFF31084012080F33F
:1016000010880521090708888022104308801648A1
:101610000368DB08DB00036043685B07FCD5174BFE
:101620000361144B43610888904308800D4860387B
:101630004089C0050ED50D4900200F4D087028784F
:10164000FFF77CFC6878002804D106480188490827
:1016500049000180002C03D0012080F3108870BD68
:101660000020FAE7800000500000F4076C8CFC07B3
:101670009C5AFC07090404A4745FFC070F00990935
:10168000F0B5C14C89B00020207660760390BF4849
:101690000169BF48814202D0C01709B0F0BDBB4FFD
:1016A0000425403FE819016D0191090F092910D067
:1016B00001220198920790427AD3B64A904277D895
:1016C000B5490835884274D1E819C16CB3484180E6
:1016D000A6E0019A01991204C9B2160E112935D05B
:1016E00007DC0B005DF75CFD087474747474740D92
:1016F0001F7412390B005DF753FD063A4B5D6B60AA
:10170000656B207EB200C1009F48403808189F4991
:10171000143169185DF7F0FC207E8019C0B2207684
:10172000042854D854E0607EB200C1009648403886
:10173000081896491030143169185DF7DDFC607E99
:101740008019C0B260760C2841D841E0416D89B261
:101750000291406D000C01460490029800F006F9D9
:10176000A0800499029800F009F9E08030E0416D12
:1017700089B20491406D000C01460290049800F07B
:10178000F5F820810299049800F0F8F860811FE0D4
:10179000039805A9800040187C49B20014316918EB
:1017A0005DF7AAFC03988019039002280FD80FE078
:1017B0002BE010E0406D60820AE0416D72484038D5
:1017C000016405E0406D0004000CA08200D100BE61
:1017D000B00045194AE070492639884203D1E8191A
:1017E000C06CE0821CE06C49091F884204D1E819F2
:1017F000C06C6A49888013E06749083988420FD174
:10180000E819C06C6549C8800AE007292ED008296C
:101810002CD00A292AD0062928D0401C07D000BE87
:101820005A48103029185E48814200D23AE705989C
:10183000A0810698050C86B22946304600F096F83D
:10184000E0812946304600F099F82082207EC107C9
:1018500000D000BE40082076607EC10700D000BEE8
:1018600040086076A18A002902D004E02D1DD7E748
:101870007D21C900A182042800D000BE00200CE711
:10188000F8B5414C0025403C3F4F24E0EE00A05904
:10189000444988421AD1301900904068800A4004B7
:1018A00014D000F0E3FE092810D900980322406804
:1018B0001202014609041040890E0843A15908602C
:1018C000009839494068C001C00D02E030194068F5
:1018D000A15908606D1C387EA842D7DCF8BDF8B568
:1018E000294C0025403C2746403717E0E800061900
:1018F0002E48316981420DD100F0B8FE092809D97E
:101900002B4970690840284909884904084331690E
:10191000086002E03069716901606D1C787EA84240
:10192000E4DCF8BD18490420085E7047164906201B
:10193000085E704714490820085E704712490A2063
:10194000085E70471048808970470F490E20085E76
:1019500070470D491020085E70470B48408A704759
:101960000948C08A70470848808A7047081A0104ED
:10197000890C40180F49401800B27047C200801807
:10198000401A0004C0147047B08CFC07C07EF807F2
:10199000A5A5A5A54C42005028000050A000FC07BA
:1019A000C07FF8074C100040785FFC0738300040DB
:1019B000FFFF01FC0100FFFFC900920089184000F1
:1019C000081819490880194801680902090A4207DC
:1019D00011430160704714480188012211430180BE
:1019E00070471148018849084900018070470E4B33
:1019F00058809980DA80704701200D49C003086043
:101A0000704701200A49C00380310860BFF34F8F3F
:101A1000BFF36F8F7047074908607047054800683B
:101A2000002800D000477047003400500CE400E06C
:101A300000E100E0CC8CFC0710B5624A13885B081B
:101A40005B00138013884024A34313801388082469
:101A5000A343C000034313801089800A8002084317
:101A6000108110BD30B5574B1C88012564086400F7
:101A70002C431C801C884025AC432C431C8001292E
:101A800000D101201C882025AC43400104431C8068
:101A900018881024A0430901084318809888800AF8
:101AA00080021043988030BD30B5EFF310810122E1
:101AB00082F3108805231B079A882024A24322431F
:101AC0009A80002900D0012181F310883D4C6034B8
:101AD000A18949084900A181A189C907C90FFBD182
:101AE0003849002220310A82364A0388938243888B
:101AF000138383889383C3880B8013880625AB43A5
:101B0000457A6D002B431380827B002A00D100BEF2
:101B1000C37B002B00D100BE8B8B5B095B01521E87
:101B200013438B830A8B5309C27B5B01521E134301
:101B30000B83817A012917D08189C07AFFF77CFF56
:101B4000A189012081430143A181A089C007C00F61
:101B5000FBD01D4801688022090A09021143016077
:101B60001A491020086030BD8289C17A007AFFF7D7
:101B700079FFE5E713486030818949084900818190
:101B80008189C907C90FFBD105210907888820224F
:101B90009043888070470B4810B5203080890C49ED
:101BA000C96A002901D0884710BD042000F001F85F
:101BB00010BD002805DBC106C90E0120884005497B
:101BC000086070470013005004E400E000E100E00A
:101BD0007C5FFC0780E200E010B57D221202774CAA
:101BE000904201D17F2005E0410010465DF70AFADE
:101BF000401EC0B22189C909C9010143218110BD1C
:101C0000EFF31080012181F31088052109078A88EC
:101C100001239B021A438A80002800D0012080F310
:101C200010887047EFF31080012181F3108805219F
:101C300009078A8801239B029A438A80002800D0E2
:101C4000012080F3108870475C498A8892089200CE
:101C500002438A80704730B5012458497C23584A92
:101C6000002803D0012807D002280BD08D889D437F
:101C70001C358D8014740AE08C889C433C348C8025
:101C8000022103E08C881C438C800421117411789C
:101C9000E12300071940C00E0143117030BD70B53B
:101CA0000446FFF7ADFF454D2020288020794007EE
:101CB000400FFFF7D0FF20780007400FFFF7C4FF69
:101CC0002078C107A88880229043090E0843A88085
:101CD0003B4923780878DB0740084000DB0F1843B6
:101CE00008700023AB812B8913432B812278D20704
:101CF00012D12279C0069206520FC00E5201104333
:101D000008706088FFF768FFE079C10728884022E3
:101D10009043490E08432880288820218843288042
:101D2000002070BD2549088820229043088024485F
:101D30002249007840092031888070471F490020DF
:101D4000203188801D490888202290431043088054
:101D5000704770B5194900230A88520952010A8058
:101D60000A880224A24322430A800A880424A24348
:101D700022430A800C880122944314430C80104AA9
:101D80001278D5060D4A2C0F2032022C01D3060CF6
:101D900016811080088B000BC007C00FFAD1012CF0
:101DA00001D910890304280F888B04D0C0180A8B2E
:101DB000D20BFCD170BDC0B2F9E700000012005098
:101DC000D08CFC071C480068002800D000477047F2
:101DD0001A4A13695B085B00136153691B0E1B06EB
:101DE000401E034353619069000E00069061106924
:101DF0000223984349000843106110690421884375
:101E00001061106901210843106170470B48816916
:101E1000090E09068161016949084900016170479D
:101E200000B50021FFF7D4FF04480169C903FCD5C0
:101E3000FFF7ECFF00BD0000E48CFC0700E000E0D1
:101E4000AA48018801221203914301807047A748E4
:101E500001880122120311430180642000BF401E4B
:101E6000FCD17047A149CA88D208D2000243CA8077
:101E700070479E49CA8870239A4300010243CA8072
:101E80007047F8B5050049D0984C29782088402241
:101E900090438901084320806878FFF7EAFF28789B
:101EA000002803D168780009FFF7DCFFE8780426F2
:101EB0000128208833D0B04320802879A1880002EF
:101EC000C9B20143A180E08801274006400F7F028C
:101ED000042826D0FFF7B4FFA8780F2800D900BE49
:101EE00061880F2252029143400201436180687968
:101EF00061888908890001436180A87901282088C8
:101F00003BD0B8432080E879072800D900BE61881B
:101F1000FF22C1329143800101436180F8BD30430B
:101F2000CAE7FFF71AFD72490028088001D17148FD
:101F30000880FFF78CFF20883843208021884020CC
:101F40008143014321806088304360806088C00401
:101F5000C00C608060880F2149028843084360807C
:101F60006088FF21C1318843FF21813108436080AF
:101F70006088800880006080F8BD3843C2E75B4815
:101F80000188012211430180704770B50546574C06
:101F9000002020802120000160804020A080FFF7E9
:101FA000D1FCA081A189702081434031A18106200C
:101FB00000F059F82846FFF764FFFFF7E0FF70BD17
:101FC0004A4801884908490001807047474801880C
:101FD000022211430180704700B5FFF7F7FF434825
:101FE00001888907C90FFBD10121C181008A00BD89
:101FF0003E490120C88140480068002800D00047C1
:10200000704710B500F03CF838494A88D205520FA5
:10201000062A01D9062102E04988C905490F06228E
:10202000511AC84010BD10B5FFF7D0FF2F480188E6
:102030008907C90FFBD10121C181008A2C4A2F4990
:102040001288801A7D22D2005043002801DD4A10F8
:1020500002E0002801DA2A4A80185CF7E9FF8011C3
:10206000193040B210BD002809DBC106C90E01209D
:10207000884024490860BFF34F8FBFF36F8F7047CC
:10208000F8B5054619484188090705D5FFF75DFCF5
:102090000646FFF75EFC0FE000888009C007C00F0E
:1020A00005D0FFF73FFC0646FFF740FC04E0FFF7D2
:1020B00041FC0646FFF742FC04462804401B124D33
:1020C00071190E465CF79EFF07462004001B31463F
:1020D0005CF7AEFF391A6800814201D90020F8BDD3
:1020E00028468142FBD888B2F8BD00000015005098
:1020F000AC5FFC0740760000E88CFC07AA050000F6
:102100002BFDFFFF80E100E0FFFF000029494A8826
:1021100008239A430378DB001A434A804A884078B0
:1021200004239A43800002434A8070470A4610B550
:10213000014610465CF766FF1E492039401E0881A3
:1021400010BDF8B506464078642800D900BE194C89
:10215000203C278964217F1C78435CF753FF0546A8
:10216000B078642800D900BE784364215CF74AFF48
:1021700031780B005DF714F8070805090D111519E2
:10218000080060812818E082F8BDA081281820830B
:10219000F8BDE08128186083F8BD20822818A0834C
:1021A000F8BD60822818E083F8BDA0820149281894
:1021B0000880F8BD20340050F0B5FE48406B7F2108
:1021C000090288430B2109024018FA494863086A4A
:1021D000F94980B24018F7490862886BF749012233
:1021E00008405203F34980188863F248403001697F
:1021F00003231B0219430161818B10242143818336
:10220000EC4820308188012421438180ED49EC484D
:102210000860ED4C20883F21090188432F210901E6
:1022200040182080E84820388169E84D490D49056B
:1022300049198161C169E64D294009256D02491995
:10224000C1614168E34D2940E34D4919416081680E
:10225000E24D2940E24D49198160C168E14D2940B4
:10226000E14D4919C1600169E04D2940E04D49192E
:102270000161E049C514097809064919C1256D01B4
:102280002943DD4D29600525DC49AD020D816D1D19
:102290008D81DA4920310D892D0A2D0255350D81A8
:1022A0008D25AD000D82D64D8D82D64D0D83D44D3A
:1022B0000E3D8D83D349D14DC91D40352980D2496A
:1022C000A181C16BD14C2140D14C0919C163FF20C0
:1022D000D04C6C302080CF482030068B1F21490124
:1022E0000B258E43AD0176190683CA484030868897
:1022F00009278E43BF01F6198680068915278E436C
:102300007F01F619068186898E4371198181FF202C
:102310008D30A080BF4880300189E024A14319435B
:102320000181818B4909490119318183B2482030EB
:10233000818B5B01994389188183AF4880300168A4
:10234000C908C900C91C0160AB49B34840314862A3
:10235000F0BDA94908B500208031C8620090401C3A
:102360000090FF28FBDDAD480078AA49C006820D29
:102370004031C8681F235B0198431043C86008BD03
:10238000A7488C490068403108608A4881698909FA
:1023900089011C3181618169C21391438161016BA3
:1023A0003F22120691430722920689180163016BAE
:1023B0003F22920191430F22D20189180163016BE0
:1023C000890989011E31016370477A48C16949084A
:1023D0004900C16170478F4808B54030C1688F4AD5
:1023E0008905C90E1170C1681F2252019143C16055
:1023F00081490120887180488030C16A03221143DD
:10240000C16200200090401C0090FF28FBDD08BD49
:1024100008B579490220887100200090401C009086
:102420000B28FBDB08BD634841210177C16903220A
:102430005202914302158918C16170475D484030CE
:102440000168774A11600021C943016059488169D8
:102450008909890181618169C21391438161C169DF
:102460000322520291430315C918C161C169702347
:1024700099434031C161016B3F231B0699430B23F4
:102480005B06C9180163016B3F239B0199438918BF
:102490000163016B89098901183101637047F8B53F
:1024A000554803274771434C6068C009C001143088
:1024B0006060FFF7C3FF43202077FFF7A9FFFFF716
:1024C0008AFF0025261500950098401C0090B04218
:1024D000FADB494903204871364880308068C705D7
:1024E000FF0DFFF736FF00950098401C0090102864
:1024F000FADBA0694002400AF9050843A061A0691F
:1025000048490840B9010843A061FFF78CFFFFF775
:102510007FFFFFF760FF00950098401C0090B042DD
:10252000FADB354903204871224880308068C705AE
:10253000FF0DFFF70EFF00950098401C009010283B
:10254000FADBA0694002400AF9050843A061A069CE
:1025500034490840B9010843A061FFF764FFFFF761
:1025600057FFFFF738FF00950098401C0090B042DD
:10257000FADB2149032048710E4880308068C60587
:10258000A069F60D4002400AF1050843A061A06968
:1025900024490840B1010843A061FFF716FFFFF787
:1025A000EFFEFFF7D6FE00950098401C0090102823
:1025B000FADB39E00030004000008888FF00FEFFB1
:1025C00059055C07800000402020004009581A008F
:1025D000FEE1FFFFE0E000000809294900000303D5
:1025E000696A686C031FFFFF70600000E0E0E0E0D4
:1025F0000B0A0A08EC8CFC07001000402013004076
:10260000340A000051080000070F00002F64E0FEAC
:10261000101A06010012004050015001485FFC07EB
:10262000B05FFC073F80FFFF134846810120F8BDE3
:1026300035E7704708B51148082101710021009164
:10264000009A521C0092102AFADB0091491C00915A
:102650001029FBDB0321417108BD0848022181716B
:10266000002181807047064908707047044800784F
:102670007047034840787047B45FFC070010004083
:10268000EC8CFC07002070477047704710B5282875
:1026900001D2282002E0E62800D9E620FF21F3310C
:1026A00048437D21C9005CF7ADFC8130C0B210BD4C
:1026B0007047704710B5022902D0012900D000BE32
:1026C000002802D0FF2802D000BE022902D0FFF766
:1026D000CDFF10BD0C2010BD01218907086B07221A
:1026E000104308638D4801680213914301607047ED
:1026F00010B50220FEF7F2FB8848016802039143FF
:102700000160874800214163416B1F2212049143FD
:1027100042138918416301060868F0229043E030B3
:10272000086010BD10B58AB07E4941627E49816261
:102730007E494161002430210C547D49C1627D49AC
:1027400001607D4901627D4941607D49C161FFF7BA
:1027500070FF7348416B1F22120491434213891882
:1027600041636E480168C212914301606846045596
:10277000641CE4B2282CFAD301467248282200686F
:1027800040305CF7B9FC0920FFF76DFFFFF771FFE0
:10279000002802D00120FFF766FFFFF74BFFFFF78D
:1027A0006FF8FFF79CF8FFF707FD00F05BF8FFF705
:1027B0009FFFFFF73DFF00F086F8FFF74EFF0AB0DE
:1027C00010BD10B55648416B1F22120491434213AD
:1027D0008918416300060168C908C9000160052025
:1027E00000070189082211430181FFF742FF0028F9
:1027F00002D00120FFF737FFFFF71CFFFFF740F87B
:10280000FFF76DF8FFF7D8FC00F02CF8FFF770FF2A
:1028100000F038F8FFF721FF012002F08DFC10BD19
:1028200010B504467022484948485CF765FC4748A3
:102830004830011B45481038018344495C31091B6D
:10284000418310BD10B5FFF7F5FEFFF748F8FFF71D
:10285000B3FC00F007F8FFF7EBFE00F023F8FFF7FA
:10286000FCFE10BD2E4B10B540331868384C0102E9
:10287000090EC2B20A3109040A3220401143014351
:10288000196010BD334A118B3048103083691B0C1E
:102890001B040B438361518BC269120C12040A435F
:1028A000C26170472B4A203A118B28481030C36808
:1028B0001B0C1B040B43C360518B0269120C1204E6
:1028C0000A430261704710B5FFF7ECFFFFF7DAFF2C
:1028D00020482038018A1D4810308268120C1204EA
:1028E0000A4382601B4A40329188036A1B0C1B0416
:1028F0000B430362D188426A120C12040A434262FB
:1029000014494A88836A1B0C1B0413438362898819
:10291000C26A120C12040A43C26210BD00020040D7
:10292000400000408526FC078926FC07B526FC07E9
:10293000D926FC078B26FC07B126FC07B326FC072B
:102940008D26FC074CB9FC07BC5AFC0770A0FC079D
:1029500000FF00FF20300040F8B5A54F04463E7D43
:10296000A44D28E00A203969704308188078400691
:10297000400EC1060DD06968491C6960C10702D0CC
:10298000E968491CE960000712D5A868401CA860E6
:102990000EE09948806B29680001000C002910D0D6
:1029A0002A8A4A43491C101829605CF72BFB2882AD
:1029B000761C7607760F2046641EE4B20028D1D13B
:1029C000F8BD288201202860F2E7F8B50125AD079F
:1029D000AC6B2046FDF7E4FF8649884F08394A680A
:1029E000861800204860394630465CF70BFB844966
:1029F00048603A465043301A00D0381A80B2086016
:102A0000286B08218843084328637E4804607E4879
:102A10000068002802D0A04200D200BEF8BD10B568
:102A2000FEF751FA052000074189890703D0418943
:102A30008908890041810189802211430181018A2D
:102A4000042291430182818A8907FCD500F0FAF8BB
:102A5000012080070169490700D500BE01694907C7
:102A6000FCD510BD10B5694C08202080FEF720FA77
:102A700020894007FCD4FEF726FA65480521008826
:102A8000090748806348644C0088801E60800720E6
:102A90002080FEF70DFA20884007FCD4FFF7BFFF27
:102AA00010BDF8B55D480168C90703D0016802226E
:102AB000114301600168490204D5016801229205B1
:102AC000114301604B4E0127083EBD072C69002CC5
:102AD0007BD0200606D58020A8614AF7D8FE1E20AC
:102AE000FDF7F0FEA0070AD50220A8614C48006857
:102AF0008030008EC0B2FFF72FFF46F7C6FD2007DB
:102B00001AD50820A861474852220068643081889D
:102B10005143454A12688918FF314131C98BC07E43
:102B2000090A081AC0B2FFF717FF002046F766FD32
:102B300004203070FFF791FDE00505D5FF2001303E
:102B4000A861012046F75AFDA00504D501204002E6
:102B5000A8614AF705FF600603D54020A86146F743
:102B600048FDE00603D51020A86145F705F9600788
:102B70001BD50420A8612548018949084900018125
:102B80002A480078C00705D000203FF7EBFD3FF74B
:102B9000B1FD01E03FF796FD5AF796FC3FF750FD77
:102BA0001E20FDF78FFE00203070E00706D00120C8
:102BB000A8615AF7A5FC4AF76AFE3770A00685D5CA
:102BC0002020A86100BE81E7FFE7F8BD704770478D
:102BD00010B51748808A010702D500F072FC10BDBD
:102BE0008107FCD4C007FAD000F070FC10BD0000D3
:102BF00060BBFC07FC8CFC07002000407102000059
:102C000040000040188DFC07108DFC070033005079
:102C1000D48BFC07D88BFC07001600500002004044
:102C200058B9FC0784BBFC074CB9FC07FDB9FC078D
:102C3000A010004010B53FF748FB6F4880686F490F
:102C4000486010BD10B53FF76CFB6C486A4940689E
:102C5000886010BDF8B5002600F0CAF8684D0090F5
:102C600029790020022900D1009066490989C90705
:102C70000DD159F78EFC002809D0E87801260028EC
:102C8000FAD005273F07B88AC00701D00426ADE077
:102C900028880028FBD1FDF7D7FD002806D15A4827
:102CA000806A002802D000F0A3F80090FDF784FEAF
:102CB000A97868465AF765FA002865D00124A40768
:102CC0002069400660D4A97868464AF737FF002893
:102CD0005AD04CF7B5FE002855D04BF731FB0028F1
:102CE00051D0A97868465AF74CFA00284DD020698F
:102CF00040064AD44248817868464AF71FFF0028B8
:102D000043D00120FEF7EAF80099002906D0206A96
:102D1000FF383938DA2801D8491E00913B4802882B
:102D20003B48016850183B4A1060E26B920A9202DD
:102D30000A43E263E16B384A1140384A1568AA0237
:102D40001143E163E16BC902C90A40050143E16334
:102D5000334A009804260021904200D300BE314B34
:102D60000CCB5CF779F90903000D0843234A401E98
:102D7000691C1060884200D1156021480079002844
:102D800010D001210FE0002630E027480078C0076E
:102D900005D000203FF7E6FC3FF7ACFC26E03FF70C
:102DA00091FC23E00021106846F7DEFD1F48C06A51
:102DB0008047114D206B0004C00FFBD02868C00570
:102DC000FCD528688024A04328600E484189462904
:102DD00004D24622164B511A19604281FFF72AFF8E
:102DE00028680006FCD53889A04338813046F8BDF4
:102DF00010480068406A704700020040108DFC07D0
:102E000054BAFC070033005074BEFC07D88BFC0793
:102E1000705FFC07E05FFC07FF03E0FF6C5FFC07EF
:102E200040420F00F88BFC07FDB9FC0758BFFC07B8
:102E3000F88CFC0758B9FC077047704738B5002577
:102E4000B14C0095E178A07801232A46FEF7DDF821
:102E50002078A178884203D16178E278914206D047
:102E600000950322617802231202FEF7CEF838BDE6
:102E700070B5A5480125001FC078A44C002804D0D7
:102E800001281AD0FEF744F907E0FEF741F90021C6
:102E90000846FEF7A3F8002801D0258070BD002366
:102EA0000122520219461846FEF78FF80220401CF4
:102EB0002828FCDB0020208070BD2580002106230F
:102EC00001220846FEF70AF970BD05221207508A52
:102ED000C005800F022907D001280ED002280FD08C
:102EE000032809D10A2907D1908AC006FCD4508A48
:102EF000FF2181318843508270470529F4D0704703
:102F00000129F1D07047F8B51C4615460E46074614
:102F1000FFF7DBFF21462846FFF7D7FF7A4829460F
:102F2000077046708570C470001FC278022A0BD0EB
:102F3000002F03D1002E01D10222C270B94203D169
:102F4000B44201D10021C170FFF792FF7048AF4237
:102F500006D1A64204D122462946FEF771F9F8BDF2
:102F6000FEF78BF9F8BD10B5674C241F20780028B8
:102F700015D16848007803005CF712F907050F09BE
:102F800018141C200F0001230022114602E0032325
:102F9000002202210020FFF7B6FF01202070FFF77A
:102FA0004DFF10BD052300220421F3E70323002277
:102FB0001946EFE7052300221946EBE70723002215
:102FC0000621E7E738B500254F4C0095E178A07859
:102FD0002B462A46FEF719F82078A178884203D1BB
:102FE0006178E278914205D00095002361781A4615
:102FF000FEF70BF838BD08B508430DD142480178FB
:10300000002909D14078002806D101220346520246
:1030100001460090FDF7F9FF08BD08B5084310D13F
:10302000394A1078937811464978984202D1D2787B
:10303000914206D000220092032202231202FDF7E1
:10304000E4FF08BD304A30B4121FD378022B15D0EC
:10305000084313D1101D037801464978002B03D192
:10306000002901D10224D47084789C4204D1C07814
:10307000884201D10120D07030BCF9E630BC7047E5
:10308000F8B5214C0026241F204FE6703E801B20FF
:10309000FDF766FF2048018880252943018002F062
:1030A00001F8FDF710FF1D490820088005200007E2
:1030B0008188294381800188428A0907890FFF237B
:1030C00081339A43C9010A43428211490720803162
:1030D00008810F4D2E81AE808320A8816078002862
:1030E00003D1082060700B20A0700322A1786078C3
:1030F0003FF7DCFA0320A881FFF735FFB9890120EB
:1031000081430143B981F8BD208DFC0700030050C5
:1031100000100050685FFC0700150050003300509D
:1031200010B5FDF7E3FAFF4900204870FE4B02227C
:103130001A70FE4A107025228A7032220A81488154
:10314000FB494860C860886008600882F9480168E7
:1031500002031143016005210907C88AC022904378
:103160008030C88210BDF7B516460546002410E031
:10317000FEF7AAF90198A2001018A9080122FEF78B
:1031800018FA0746FEF737FA2D1D002F03D0641CEE
:10319000A4B2B442ECD30020FEBD70B515460E4675
:1031A0000446FEF791F90220FEF753F92A4621461C
:1031B00030465BF7A1FFFEF71EFA70BD10B5DE4C7E
:1031C0000520E062DC490820803908710020401C9D
:1031D000C0B25028FBD3FFF72DFAD248407805281B
:1031E00003D0062804D0072801D10020E06210BDDA
:1031F0000320FBE710B5D148007800281ED1052038
:10320000000781880822114381808188CC4A89087F
:103210001278890011438180012200211046FEF7B7
:10322000CBFBC8497D2212018800FEF7E0FBC648AF
:10323000FEF7F1FBFEF7E0FBFEF7CDFB10BDBE494C
:10324000886BBE4A137815225206002B05D0BF4B5F
:10325000184353109843104303E0BC4BDB43184022
:1032600090438863704738B5AE4C607800282AD107
:10327000AE4801786846017025214170AA4801785E
:1032800068468170FFF7DBFF684647F7F2FBB048FE
:10329000016AC21311430162016A0214914301627F
:1032A000016A821491430162016A490A490201627A
:1032B00005206070A74910110860BFF34F8FBFF35E
:1032C0006F8FFFF797FF38BD10B5964C60780128D7
:1032D00008D06078022805D06078052802D0607890
:1032E000072807D19C48806D3FF745FA0021084622
:1032F00059F7B1FD0020607010BD38B5894C607879
:10330000002819D160818948017868460170A17848
:103310004170854801786846817047F7AAFB8E4D59
:1033200005E0684647F7A5FB002800D0FEE7A86D3A
:103330000028F6D00120607038BD38B5794C60782F
:1033400000280ED17A494860C86088600860088209
:103350007648007869460870684647F717FC0220EF
:10336000607038BD70B50446417800250078FDF7DF
:1033700073FE002800D10125E178A078FDF76CFEEE
:10338000002800D10125284670BDF8B50446002666
:103390007D20000100960099491C00918142FADBD2
:1033A0006E4D00960023697828781A46FDF72DFEA9
:1033B00000960023E978A8781A46FDF726FEE37800
:1033C000A27861782078FFF79EFDFFF737FDF8BD02
:1033D00063490A8A5207D20FFBD0614A603A1082D1
:1033E000088A4007C00FFBD0032000021082088B20
:1033F0008006800EFBD0108AC0B27047584A138AEC
:103400005B07DB0FFBD0564B603B1882FF31FF316F
:1034100002311982108A4007C00FFBD0108A800643
:10342000C00FFBD1704770B50D460446FEF77AFC1D
:103430002046FEF78EFC2846FEF78BFCFEF77EFC4E
:1034400070BD10B50446FEF76DFC80202043FEF7EA
:1034500080FC0020FEF77DFCC4B2FEF76FFC204626
:1034600010BD014600B500200B005BF799FE0C076C
:10347000090C0F1215181B1E21242708394800BDFE
:103480003848801C00BD3748001D00BD3548801DF0
:1034900000BD3448083000BD32480A3000BD314814
:1034A0000C3000BD2F480E3000BD2E48103000BD3E
:1034B0002C48123000BD2B48143000BD294816306E
:1034C00000BD18484189491C418170471548C18891
:1034D000491CC18070471CB5124C01202070224944
:1034E0001023096801910090032221791202E078EB
:1034F000FDF78BFD6079002801D0012200E0002259
:103500002179E078FDF794FDFEF76BFA1748018802
:1035100049084900018005200007818808221143DD
:10352000818025E0E45FFC071C60FC071D60FC0750
:10353000FC8CFC070002004080100040248DFC073A
:10354000495FFC0788130000BD31FC0788080000B4
:10355000C000004080E100E0B0BBFC07208DFC070C
:103560006013005006300050385BFC07200000500C
:1035700081886A4689081279890011438180002276
:1035800011461046FEF718FA7D20C000434A014656
:10359000FEF72DFAFEF71FFA1CBD10B5FEF731FA43
:1035A000FEF71FFA052000078188082291438180D9
:1035B00010BD3B4908703B494989C9050BD43949BD
:1035C00020318A8A03235B029A43002800D002201C
:1035D000400202438A8270470168002901DB002013
:1035E000704701684A0030490268006804D58000CD
:1035F000800C4018027003E08000800C40180280AC
:103600000120704770B5294D2868FFF7E5FF0024B9
:103610002968A00040180C30FFF7DEFF002802D018
:10362000641C092CF4DB00242968A0004018383001
:10363000FFF7D2FF002802D0641C072CF4DB70BD1A
:103640001CB51B4A5168926800911649019249893C
:10365000C90520D5002801D0052000E006206946D4
:1036600048706846FEF791FC272000BF00BF00BFEE
:1036700000BF00BF00BF00BF00BF00BF00BF00BF52
:10368000401EF2D2FEF7A8FCFEF7BBFC0446FEF794
:1036900097FC20461CBD0028E0D1DDE7FFFF0000BD
:1036A000248DFC072000005000000040B85AFC07A1
:1036B000385BFC0710B500231E4A19461E4859F70F
:1036C00099F94BF78FFF10BD70B51C4D0024287879
:1036D0002646012806D11A48806D002802D12E7096
:1036E000FFF70BFE17480188174A1288914207D34B
:1036F0002978012904D10680FFF7DCFFFFF7E4FDFC
:1037000059F77BFEFDF793F80100104807D00168D8
:103710004A1E0260002900DD0124204670BD0124FC
:1037200064210160F9E700207047704710B5FCF78D
:10373000DDFF10BD0BFE000001080000E55FFC0787
:10374000B0BBFC07EE5FFC07EC5FFC074C5FFC07BF
:103750003EB50D4D6D1E14D002880A42FAD16D1E81
:103760000FD002880A42FAD0084A13680124234382
:1037700013606D1E05D002880A42FAD1044A10680F
:103780003EBD00203EBD0000C0C62D0010E000E0A0
:1037900018E000E093490978002900D040009249E0
:1037A0004843012102E000BF00BF491C8142FAD911
:1037B000704710B58B498A69904202D2002800D028
:1037C0008869CA69904200D9C86900F07EF9022070
:1037D000FFF7E0FF10BDFEB500276A4601A902977A
:1037E00000F00CF9002801D00020FEBD804C7F4E77
:1037F0006661A7612069042108432061EFF3108509
:10380000012080F3108868460188019800F062F971
:1038100002902069400840002061002D0BD001205B
:1038200080F3108802986F49301A4F70B042DCD193
:1038300001224A70FEBD0020F2E710B51C46029B33
:10384000101A1B1B5843511A5BF7F2FB001910BDED
:10385000F3B5002789B005460420C0430A2114238C
:10386000604C3E463A46019702970097002D2CD0B7
:10387000012D28D101202070A161AF208000E061DE
:103880005C48A060E16023616E206061A069554DD5
:1038900024352860E0696860606960600A9800F01B
:1038A000B4F8001D17D06068FFF783FF0A98FFF790
:1038B00092FF0090A168884210D3A168401AE16885
:1038C00088420BD860680BB0F0BD2270A161FA206D
:1038D000E0614948D5E70320C043F4E70098A168B8
:1038E000884205D2A0680099401AE1688842E9D967
:1038F0000098A168884208D96E686868FFF759FF88
:103900000A98FFF768FF019007E02F682868FFF723
:1039100050FF0A98FFF75FFF029000256D1C00988A
:10392000A168EDB2884202D96768029001E066683A
:103930000190019902980096884201D9024600E060
:103940000A46884200D201463B46A068FFF775FF51
:1039500060606068FFF72DFF0A98FFF73CFF00905A
:10396000A168884204D3A168401AE16888420BD953
:103970000098A168884205D2A0680099401AE168C1
:10398000884201D90A2DC9D36078002805D00020CB
:10399000FFF70FFF0120C04395E7A068E16800250D
:1039A000401A0099ED43884205D8A068E1684018A4
:1039B0000099884203D20020FFF7FBFE0AE0094885
:1039C000203000F07CF8206AA169884204D8206A7F
:1039D000002801D0284676E7206AE1698842F9D2BA
:1039E000206A70E7F05FFC07F1060000FFFFFF00B0
:1039F00000E000E0007C920000127A000123834086
:103A00003648086013800020704700B50322334910
:103A1000120203005BF7C4FB0C070D13191F252BC3
:103A200031373D434950C8889043FF300130C8804A
:103A300040E008899043FF30013008813AE048892E
:103A40009043FF300130488134E088899043FF3053
:103A5000013088812EE0C8899043FF300130C88151
:103A600028E0088A9043FF300130088222E0488A2B
:103A70009043FF30013048821CE0888A9043FF3039
:103A80000130888216E0C88A9043FF300130C88236
:103A900010E0088B9043FF30013008830AE0488B28
:103AA0009043FF300130488304E0888B9043FF301F
:103AB00001308883002000BD0320C04300BD0521E4
:103AC00009074988016000207047052109074880DF
:103AD0000020704710B5FFF73BFE10BD00300050CE
:103AE00070B518460D4601460223F94AF94858F7C1
:103AF00081FF04462878FFF7A3FD208020464BF77E
:103B000071FD002070BD10B518460C467F2201469D
:103B100004235202EF4858F76DFF2178332904D06F
:103B200001604BF75FFD002010BD052109074988A2
:103B3000F6E7E74A10B519460023133AE54858F767
:103B400059FF4BF74FFD002010BD70B5E04A1946F4
:103B50004223123ADF4858F74DFF0E250446057000
:103B6000DDA1801C01F0ECFD20466570DAA1223059
:103B700001F0E6FD20464BF735FD002070BD38B55D
:103B800018460C46D24A01460223113AD14858F74A
:103B900031FF054621786846017061784170A1784F
:103BA0008170E178C170FFF7DDFB288028464BF774
:103BB00019FD2888002802D16846FFF7E6FB00209F
:103BC00038BD10B518460C46C14A01460823143AC0
:103BD000C04858F70FFF217801700021417022780A
:103BE0006168002A06D0012A06D0022A07D0032ADB
:103BF0000AD107E0096803E0A2680A6004E00988C6
:103C0000416001E022890A804BF7ECFC002010BDE6
:103C100070B518460C46AE4A014600230B3AAD4833
:103C200058F7E8FE0546B048217841706178017088
:103C3000FFF719FB28464BF7D5FC002070BD7CB57B
:103C400018460C46A24A01460723173AA14858F7DE
:103C5000D1FE054600200090019020782870207841
:103C6000022802D0032817D105E00622691C9F48CC
:103C7000FFF793FA10E0A01C5BF76FFA617800027F
:103C800008430090A0796179000208430190022264
:103C900069469748FFF767FA28464BF7A3FC0020D0
:103CA0007CBDF0B518460E46894A014685B0022310
:103CB000183A884858F79EFE0546B1787078090290
:103CC0000143002003900190327805200007130083
:103CD0005BF766FA08050710212A3134340A408858
:103CE00001E0418025E028803078062872D007283E
:103CF00070D097E0418AC905890F012907D1818ACF
:103D0000C906FCD4418AFF2281329143418279491C
:103D1000794801820DE003464088FF22521A824210
:103D200007DB4018588004E042888A4201D3511AC8
:103D3000D7E70020D7E701214902E9E77478FE2C94
:103D400023D0002702940298FFF78BFB00900028F5
:103D50003ED00088019021463846FFF7B6F821464C
:103D60003846FFF76FF921463846FFF744F9FF213F
:103D7000009801310180B0780299FFF769FD411C7C
:103D800020D0801C20D00398ADE75CA000680027FD
:103D900000900A2078433C4604900CE004980019F7
:103DA000C0B20290FFF75DFB00880007000F0128FA
:103DB000C9D0641CE4B26846C05DA042EED2FF20C8
:103DC0000290C0E7012000E0022003908BE701E0B1
:103DD0000420FAE70198C006C00E012801D003288C
:103DE00020D14748029021463846FDF72BF900289C
:103DF00004D00298401E0290401CF4D1404802902A
:103E000021463846FDF71EF9002804D10298401ECD
:103E10000290401CF4D100203A490290401C0290CC
:103E20008842FBDB21463846FFF7F7F828464BF778
:103E3000D9FB3078062801D0072818D10198C00690
:103E4000C00E012801D0032811D12F4D214638463C
:103E5000FDF7F8F8002804D128466D1EADB2002801
:103E6000F4D10098002802D0009801990180002028
:103E700005B0F0BD164A10B5194600230A3A154898
:103E800058F7B8FD044621480078052809D1FFF706
:103E900084FBFFF719FA1E490020086220464BF701
:103EA000A1FB002010BD70B518460C46084A01461B
:103EB00000230E3A074858F79DFD05460A49207829
:103EC0004870FFF73AFA28464BF78CFB002070BD8C
:103ED0001AFE000001080000765F362E302E3134C5
:103EE0002E313131340000001C60FC07D47FF8070C
:103EF000D47F000005030000003000500B000000DC
:103F000018F73600120E0000B68C0000E55FFC07C3
:103F1000C000004010B519460823FE4AFE4858F775
:103F200069FD0446FD48007802280DD1FFF7CCF961
:103F3000FB4801882180818961800189A180008AF4
:103F4000E08020464BF74EFB002010BDFEB5184622
:103F50000E46F04A01460023521CEF4858F74AFD2E
:103F600001903078EF4CF04FEC4D4F2804D05228A0
:103F70002FD0542843D119E0FFF70FFB28780026F3
:103F8000062808D0072809D1FFF79EF9206A4000CB
:103F90004008206202E0FE62FEF75FFBFF20E3497B
:103FA00001300860E24908602E7025E0082000F02A
:103FB000C4FD7478FFF743F9FFF724FBDA490320C7
:103FC00080394871DB490C43DB494C60F8620620BC
:103FD0000FE0082000F0B1FD7678FFF730F9684671
:103FE000067046F7D3FD206A0121C9070843206205
:103FF00007202870FFF7FEF801984BF7F3FA00202E
:10400000FEBD10B5CD480A784270CD4B4A781A7083
:104010008A7802700879C97800020843C949088083
:10402000FFF76BF9002010BD70B518460C4601462D
:10403000B84AB94801230C3A401C58F7DBFC00256C
:1040400005704BF7CFFA49F77FFF2078002805D09D
:10405000BD4E012805D002282AD120E0FCF746FBFE
:1040600026E0FEF7AFFF35706178B848002902D12D
:10407000A178002910D0012101716078B44919227A
:104080004843A178920151434018B24909684862F7
:104090000020FCF738FB0BE002210171F8E7FEF786
:1040A00091FF01223570002311461046FCF742FBB8
:1040B00000200CE7974A10B519460023D21E9648F7
:1040C00058F798FC4BF78EFA002010BDFEB5184645
:1040D0000D46904A0146F223093A8F4858F78AFC68
:1040E000044628880190AD780026002D01D03C2D93
:1040F00019D912201AE00198B7003918FF20C0041E
:10410000081804226946FFF748F869463819097803
:10411000817069464978C17069468978017169463C
:10412000C9784171761CAE42E5D3002020706570DD
:1041300020464BF757FA0020FEBDF0B518460C4656
:10414000744A014687B00223083A734858F752FC74
:104150000025064602950395A778E01C009020886C
:104160000490002F01D03C2F21D9122022E0A8007A
:104170000099019040180590401C5AF7EEFF01028B
:10418000009A0198105C014305980291401D5AF76E
:10419000E4FF01020598012200790143039102A97D
:1041A0000498FEF7E0FF04980830AD1C0490BD426F
:1041B000DDD300203070A078707030464BF712FAD3
:1041C000002007B0F0BDF0B518460C46514A014634
:1041D00085B00223121D504858F70CFC05465E4876
:1041E000007801902078002802D0012843D12BE1EB
:1041F00000270497039702973E46E178A078FCF7E2
:104200002BFF002835D061792079FCF725FF0028A5
:104210002FD0E179A079FCF71FFF002829D0617A1F
:10422000207AFCF719FF002823D0607B002805D0F6
:10423000E17BA07BFCF710FF00281AD0E178A07882
:10424000FEF743FE61792079FEF73FFEE179A07920
:10425000FEF73BFE617A207AFEF737FE607B00288E
:1042600003D0E17BA07BFEF730FEA078002803D0CE
:1042700005E0FF2028808FE1E07800281AD020791F
:10428000002802D16079002814D0A079002802D13A
:10429000E07900280ED0207A002802D1607A002828
:1042A00008D0607B00280AD0A07B002807D1E07BE3
:1042B000002804D1284901200870FEF7D9FDE078D4
:1042C000FFF7CFF8002800D007886079FFF7C9F81A
:1042D000002801D000880490E079FFF7C2F8002898
:1042E00001D000880390607AFFF7BBF8002801D066
:1042F00000880290E07BFFF7B4F8002800D0068821
:104300001648217A4171617A8171FDF7C8FC00205D
:10431000009025E00DFE000001080000E55FFC07AD
:10432000FC8CFC07C00000408010004000E100E071
:1043300080E200E000016209003000401C60FC07E0
:10434000E65FFC07EC5FFC071C8DFC0754BAFC071A
:104350000077010058B9FC071F8DFC07505FFC0770
:104360000322E178A0781C231202FCF74EFE002005
:104370000090617920791A230022FCF746FE002084
:1043800000900322E179A0791B231202FCF73DFE85
:10439000012000900322617A207A1D231202FCF78B
:1043A00034FE607B002808D0002000900122E17BD1
:1043B000A07B00235202FCF728FE6078012805D17B
:1043C000637A227AE17AA07AFFF72DF8FC48FDF7AC
:1043D00027FD627A217AA07AFFF733F82880607B84
:1043E00000280DD000200090FF20F5300099491CD6
:1043F00000918142FADBE17BA07BFCF723FE288061
:10440000E078FFF72EF8002800D007806079FFF7EA
:1044100028F8002801D004990180E079FFF721F8FD
:10442000002801D003990180607AFFF71AF800286C
:1044300001D002990180A07BFFF713F8002800D07B
:104440000680FDF7EFFBA7E0002002900746064636
:1044500061792079FCF700FE002800D109E7E178B6
:10446000A078FCF7F9FD0028F8D0607B002805D083
:10447000E17BA07BFCF7F0FD0028EFD0617920798B
:10448000FEF723FDE178A078FEF71FFD607B002892
:1044900003D0E17BA07BFEF718FD2079002802D134
:1044A000607900280ED0A078002802D1E07800289A
:1044B00008D0607B00280AD0A07B002807D1E07BD1
:1044C000002804D1BF4901200870FEF7D1FCE07834
:1044D000FEF7C7FF002801D0008802906079FEF740
:1044E000C0FF002800D00788A07BFEF7BAFF002895
:1044F00000D00688B449207B88810846FDF7D4FAAD
:10450000E178A07809230022FCF75FFD617920792A
:104510000A230022FCF759FD607B002808D0002008
:1045200000900122E17BA07B00235202FCF76DFD8D
:104530006078012803D1E17AA07AFEF75FFFA048F6
:10454000FDF76EFCA07AFEF743FF2880607B002811
:104550000DD000200090FF20F5300099491C0091FB
:104560008142FADBE17BA07BFCF76CFD2880E078E0
:10457000FEF777FF002801D0029901806079FEF7ED
:1045800070FF002800D00780A07BFEF76AFF00289C
:1045900000D00680FDF7EEFA8A4901980870FEF710
:1045A00067FCFEF7E0FC28464BF71CF800205FE4B0
:1045B000F0B518460C46014689B00123834A844869
:1045C00058F718FA00270297059020780190A678EE
:1045D000E078009025796079069038460199FCF7DB
:1045E0003BFD002800D101276078002806D0012873
:1045F00006D0022807D0032811D107E0002407E0E5
:10460000FF24013404E00124640201E003242402B5
:10461000012E04D80698642801D8002F01D0FF216C
:104620002DE001990298FEF750FC01990298FEF7DF
:1046300009FD002D58D000990020664C00290CD0AF
:104640000129ECD103221723120200900199FCF7F3
:10465000DCFC002E1BD001221AE0618849084900C9
:1046600061800023012252020090019945E001225D
:1046700000E0002201990298FCF7DAFC002105987D
:10468000017005984AF7AEFF002009B0F0BD002286
:1046900001990298FCF7CCFC4F490868009005206E
:1046A0000007828808231A43828082886B4692081A
:1046B0001B7892001A438280886803906B460698A4
:1046C00058734868089008A8FDF720FD7D20C000B9
:1046D00068434249FDF72AFD03A8FDF732FD6088D3
:1046E000012108436080C9E70098012800D000201C
:1046F00000900023224601990298FCF786FC002EC8
:10470000B7D0B4E770B518460E46304A01460123CB
:10471000521C2F4858F76EF936780446002531466A
:104720002846FCF799FC002809D031462846FCF7BA
:1047300089FC207020464AF755FF0020B9E4FF208D
:10474000F7E770B518460D46204A01466423921CCF
:104750001F4858F74FF90446642229465AF7CCFC03
:1047600020464AF73FFF0020A3E4F8B518460E465E
:10477000164A01460123D21C154858F73BF93178F7
:1047800001240025052936D0042934D0032932D04C
:10479000022930D001292ED000292CD004704AF7EC
:1047A00021FF49F7D1FB00950098401C0090C828D4
:1047B000FADB377808220B2609480A4914E0000082
:1047C000307500001F8DFC07585FFC0712FE0000CB
:1047D0000108000020340050A45DFC0780841E0006
:1047E0001D8DFC071E8DFC073B005AF7D9FC0616F1
:1047F000120E0B08060B0570D1E71A220AE00470AE
:104800000D700EE002700E700BE011220270062295
:1048100006E0342202700C7003E06822027003226A
:104820000A700322097800783DF740FF00203DF729
:1048300099FF3DF75FFF0020F8BDF8B518460E461A
:1048400001460123C34AC44858F7D4F8009034788D
:10485000002576782F46012E00D9012521463846BD
:10486000FCF7FAFB002800D1012521463846FEF767
:104870002CFB002C02D1B94901200880002D03D067
:104880000098FF21017007E0B5480770B548047033
:10489000B5480670FEF71FFE00984AF7A3FE0020F9
:1048A000F8BDF8B5AB4A19460123521EAA4858F77D
:1048B000A1F8AE494A880123D243D207D417641C19
:1048C00010D14A881A434A804A887825AA43283258
:1048D0004A804A8806252A434A80A54D0222521C56
:1048E000AA42FCDB4A88FF27D207002A20D0A14A2F
:1048F0005588538013880825AB43138013889B0881
:104900009B009B1C1380138804252B4313800023DA
:1049100006E0FF260B3602255B1C6D1CB542FCDB56
:1049200015886D0701D5642BF3DB1288520701D57A
:10493000077001E000220270002C03D14A8852085F
:1049400052004A804AF74EFE0020F8BD814A10B559
:1049500019460123521C804858F74CF80021017079
:104960004AF740FE002010BD7A4A10B519460123CF
:10497000921D794858F73EF8002101704AF732FE3F
:104980007D49082048807D48012141800521018022
:1049900001880906090EFBD1002010BD10B518468C
:1049A0000C466C4A01460123121D6B4858F722F849
:1049B000002101704AF716FE2078FDF754FE3DF7FE
:1049C0003FFE002010BD70B518460D46614A0146F5
:1049D0000123521D604858F70DF80446002020704E
:1049E0002878002800D00120FEF7E3FD20464AF792
:1049F000F9FD0020A2E670B518460D46554A01465D
:104A00000123D21D544857F7F5FF04465C49287826
:104A10000870FEF72DFA0020207020464AF7E2FDCC
:104A200000208BE6F8B50E46069C01680746002577
:104A30000819904201D901250FE0002B07D03068FA
:104A400002199A4200D9022522465AF755FB3868C6
:104A5000001938603068001930602846F8BDF0B59C
:104A600087B004460390C818049102901088154638
:104A700007190020002927D0022000903B4603A9F7
:104A800004A8029AFFF7CEFF002818D104983B46ED
:104A90000678A01C03900120009003A904A8029AA4
:104AA000FFF7C0FF00280AD1B006000EE11C0391F9
:104AB00000903B4603A904A8029AFFF7B3FF0399AD
:104AC000091B298007B0F0BD88211180FAE7F0B5F5
:104AD00087B00646C81802AF43C71088154680192C
:104AE000019000200C46002924D00127009704A93A
:104AF00003A8019B029AFFF795FF002816D1601CBE
:104B00000390009704A903A8019B029AFFF78AFF6C
:104B100000280BD16078A41C8006000E009003943E
:104B200004A903A8019B029AFFF77CFF0499891B43
:104B30002980C7E700211180C4E7002809DBC106EE
:104B4000C90E012088400F490860BFF34F8FBFF3A3
:104B50006F8F704717FE000001080000000300502F
:104B6000E75FFC07E85FFC07E95FFC0720000050F7
:104B7000552308000016005000330050003100504B
:104B80001F8DFC0780E100E0F0B4134602460025CB
:104B900028462C4C2C4E0AE0C700E75B9F4205D10B
:104BA000C00000194468002C11D103E0401C377884
:104BB000B842F1DB0020254C254E0DE0C700E75B35
:104BC0009F4208D1C00000194468002C07D0A446B9
:104BD000F0BC18466047401C3778B842EEDB2846E8
:104BE000F0BC7047F8B5FF222D321A491A485AF71F
:104BF00083FA0020184B1949194C08E00C22424353
:104C0000D5181219C4CAFF352D35C4C5401C0A7801
:104C10009042F3DB0020134A0CE00C780C2524189A
:104C20006C43114E4543AD19E418E0CDFF342D34EB
:104C3000E0C4401C1478A042EFDB0C483A21C36268
:104C40004185F8BDCC5DFC07DC5DFC07B05CFC0772
:104C5000A05DFC0738FBF107288DFC07C85DFC0749
:104C6000B05DFC07AC5CFC07445BFC0700BAFC07CA
:104C700010B51946FD22022312020E4857F7BAFE5C
:104C800090214170002101704AF7ACFC002010BD5A
:104C900010B519460323084A064857F7ABFE912181
:104CA0004170FF218170002101704AF79BFC0020B8
:104CB00010BD00000108000001FD0000F8B5074626
:104CC00001200023024600901946032044F79AFB76
:104CD0000446022180300170F64DF5482A68438869
:104CE0001146FF31F7310B8680884886F248066A04
:104CF0000123DB069E431E430662FF320020FF3283
:104D0000383250829082D0821D200882EB4848843D
:104D1000EB48C882EB48088300204882384644F7B5
:104D2000B1FE01462868FF30F730C28B920992012C
:104D30000A43C283E448416800208847002C02D01F
:104D4000204643F748FF2046F8BDFFB58BB0064626
:104D500016980027022821D00D98018814988142C6
:104D600078D37188084640383F2802D8159850F704
:104D700045FF0C98361D0088149A80190E995AF731
:104D8000BBF90C980188149808180C9908800D98A4
:104D900001881498081A0D9908805CE100200E9D86
:104DA000079069782C78090221433180E978AC7842
:104DB0000902214371808C46403904242D1D02468E
:104DC00003468E46402900D32878614604291FD027
:104DD000052914D0062918D070463F283DD81598CB
:104DE00050F70CFF0006000E04D0B848008D0006F6
:104DF000C00F30D002230120B54A002712E06978A5
:104E000000290FD0B34A17230CE0B34A0F2309E05F
:104E1000522802D0D22802D002E0142000E015204F
:104E2000AE4A1F23002A1AD0984218D28000105888
:104E30000490002813D00020089005907088403816
:104E4000402803D32878052430716D1C701D009014
:104E50000498B5E0FEE03027F0E03327EEE07088FC
:104E6000042872D10627E9E0522862D00CDC4B28D6
:104E70003FD004DC41286AD0422858D111E04C28A8
:104E800020D0502853D140E0632830D004DC57288C
:104E900018D061284BD19BE06C2864D0772846D18C
:104EA00009E00098297801700098641C401CA4B2A5
:104EB0006D1C009081E00498401C049001780898D3
:104EC00081427AD10098A41C401C41084900881CEA
:104ED000009068782A780002104308800599AD1C7C
:104EE000A4B2002969D008900020059065E0012057
:104EF000FBE71022294600985AF7FEF80098103474
:104F00001030A4B21035009057E02046403014997C
:104F1000039088420BD84022294600985AF7ECF8B3
:104F20000098403000900398403584B245E0342723
:104F300043E00822294600985AF7DEF80098083422
:104F40000830A4B20835009037E068E0FFE7062299
:104F5000294600985AF7D0F80098A41D801DA4B2E5
:104F6000AD1D009029E01498001B80B2039030889A
:104F7000001B001D81B2012007900498401C049082
:104F80000098401C40084000009004980078572882
:104F90001CD04228CBD100980170090A41700098BA
:104FA0002946801C0090039A5AF7A6F803980399A3
:104FB000201884B20098401800900498401C049077
:104FC000007800281ED0002F17D01BE04908E2E728
:104FD0001498001B81B200980391401C40084000C7
:104FE000009001200A460790294600985AF784F855
:104FF0000399601884B20098DDE70D990988A142F1
:1050000000D331E70D980088A04208D304990978AD
:10501000002904D10799002903D1A04201D03427E7
:105020000CE00D99001B08800C9801880098801BEB
:10503000001F08180C99002F08800CD070880428D5
:1050400009D0062807D04038402804D30E9840796C
:10505000707100E0342738460FB0F0BDFFB581B065
:105060001F4616460C46104657F70AFF00257F28B4
:1050700002D02189062909D03B46324621460198B3
:1050800051F74FF90546284605B0F0BDC00601D5D9
:105090000225F8E720780028F5D1300AA11D3DF758
:1050A000D8FAF0E70E49002008607047704700000A
:1050B00030BCFC074CB9FC07C00000401080000069
:1050C000294100007671000058BFFC0748BEFC076C
:1050D0003803F2074003F2079C03F207D803F207F4
:1050E0000000084010B50F49032057F782FE002149
:1050F000032057F7B0FE10BD10B5044601230A4A3D
:1051000000210A4857F776FC09498C4201D1032156
:1051100003E008498C4201D1002101704AF762FA8C
:1051200010BD0000E05DFC0711FC0000010800005C
:10513000A5A5A5A5C3C3C3C310B53248016B4022C2
:1051400091430163016B3823994330310163016B53
:1051500006239943091D0163016B0314194301637D
:10516000016B0723DB0219430163016B03235B021D
:1051700099430315C9180163016B130419430163B3
:10518000016B0723DB04994303231B05C918016343
:10519000016BDB1099431303C9180163016BC3054D
:1051A00099430163016B0723DB0619430163016B1C
:1051B00003235B0699431305C91801631149203184
:1051C000898A016B012319430163036B81150B432A
:1051D0000363036B841323430363036B0C042343B4
:1051E000036309480160BFF34F8FBFF36F8F074818
:1051F00003681B0A1B0213430360034880380160E5
:1052000010BD00008010004080E100E008E400E0F4
:1052100010B50C460123FE4A0021FE4857F7EAFB71
:10522000FD4A21781170002101704AF7DBF9002056
:1052300010BD10B5F64A0C460123521E0021F54858
:1052400057F7D8FBF54A21781170002101704AF711
:10525000C9F9002010BD10B5ED4A0C460123921E7D
:105260000021EC4857F7C6FBED49A2884A800A4660
:105270002388403AD387E2888A8062880A800021A6
:1052800001704AF7AFF9002010BD10B51A4682230D
:105290000021E04857F7AEFB112101704AF7A2F94F
:1052A000002010BDDA4A10B50123413A0021D94847
:1052B00057F7A0FB112101704AF794F9002010BDA7
:1052C000D34A10B50123403A0021D24857F792FB48
:1052D000112101704AF786F9002010BD10B51A4659
:1052E00002230021CB4857F785FB112101704AF7B3
:1052F00079F9002010BD10B51A4601230021C548D8
:1053000057F778FB112101704AF76CF9002010BDA6
:1053100010B51A4601230021BE4857F76BFB112137
:1053200001704AF75FF9002010BD10B51A468223BC
:105330000021B84857F75EFB112101704AF752F976
:10534000002010BD10B51A4682230021B14857F73E
:1053500051FB00214170112101704AF743F90020EF
:1053600010BD10B51A4601230021AA4857F742FB89
:10537000112101704AF736F9002010BDA44A10B57A
:105380000823333A0021A34857F734FB0446031D92
:10539000C21C811C401C57F705F90146002000295A
:1053A0000BD0112121706070A070E070A080E080AF
:1053B00020464AF717F9002010BD2070F7E77FB5A7
:1053C0000846103857F75BFB57F701FB00246D4682
:1053D0000390204657F7F5FA61004919641CE4B2BE
:1053E0004880042CF5D38A4A1023313A0021894899
:1053F00057F700FB6D461ECD1EC00021103801700E
:105400004AF7F0F8012004B070BDF8B5804A0F46A5
:1054100008230A3A00217F4857F7ECFA814D0446E9
:10542000286B6E12B043304328637F493888496A3D
:1054300088476060286BB04300212863388860800B
:10544000217020464AF7CEF80020F8BDF8B5704A22
:105450000D460423093A00216E4857F7CBFA714EE6
:105460000446306B7712B843384330636E4A28885D
:10547000926A69689047306BB8430021306328888E
:105480006080217020464AF7ADF80020F8BD70B565
:1054900018460D465E4A01460123323A5D4857F7E9
:1054A000A9FA04462878002802D0012805D101E095
:1054B0005E4800E05E483DF759F912202070204612
:1054C0004AF790F8002070BD10B518460C46504AB7
:1054D00001460823133A4F4857F78CFA21880122D6
:1054E0009207891809684160218841800021017074
:1054F0004AF778F8002010BD10B518460C46444A0B
:1055000001460423123A434857F774FA22880123CC
:105510009B07D218616811602188418000210170C9
:105520004AF760F8002010BD10B51C46084647F742
:1055300073FD374A0123113A2146364857F75AFA84
:10554000002101704AF74EF8002010BD70B50C889C
:1055500018461646032C00D30324CA788B7815020C
:1055600052225443334A1D431368E318FF33013377
:105570005D830B7911686118FF3101318A8B120A42
:1055800012021A438A83224A014601230E3A214815
:1055900057F730FA002101704AF724F8002130460D
:1055A00057F759FC002070BD10B588781C460028BC
:1055B00001D0012200E000220888114641F764FB77
:1055C000134A01230D3A2146124857F713FA0021D6
:1055D00001704AF707F8002010BD70B518460C4658
:1055E0000B4A014601230C3A0A4857F703FA22787E
:1055F00052214A430F4900230D685219FF324132AC
:105600005382227852256A430D685219FF3213E003
:1056100043FC000001080000B0B9FC07D9B9FC0741
:1056200030BCFC074000004058BFFC07C3C3C3C3E5
:10563000A5A5A5A54CB9FC07413293822278522436
:10564000096862435118FF314131CB82002101705A
:1056500049F7C8FF002070BD70B518460C460146DA
:105660000123334A334857F7C5F9227852214A4378
:10567000314900230D685219FF324132938122785B
:1056800052256A430D685219FF324132D381227884
:105690005224096862435118FF3141310B820021C5
:1056A000017049F79FFF002070BD70B5184616467F
:1056B0000D461F4A01460123D21C1E4857F79AF98E
:1056C00004462888032800D3032043F799FA0028CA
:1056D00005D000212170A9786430C17701E0122043
:1056E0002070204649F77EFF0021304657F7B3FB74
:1056F000002070BDF8B50E4610491C461546002026
:10570000C2008A5AA24209D1C00040184768002F3F
:1057100007D02A4631461846B84702E0401C1928EF
:10572000EED3224631462846FFF72EFAF8BD000098
:1057300038FC0000010800004CB9FC07F05DFC07D4
:1057400003460A780270401C491C002AF9D1184609
:1057500070470000064C0125064E05E0E36807CCC3
:105760002B430C3C98471034B442F7D3FAF7D4FCDF
:10577000285FFC07485FFC07F8B5040C8BB226468F
:1057800082B25E430D0C1046370C58433604801924
:105790000021794116466E43370C36048019794151
:1057A00026466E438919F8BD02E008C8121F08C1D9
:1057B000002AFAD170477047002001E001C1121F92
:1057C000002AFBD17047F401222222CAEA80D007C6
:1057D00006406432C657FC07F08BFC072527FC0700
:1057E000C327FC0793DEF007F1DEF007F9DEF007D0
:1057F00049DFF00761DFF007B306FC0799DFF00728
:1058000019E3F007BDE5F007FDE3F0071DE4F0073D
:105810003DE4F007DB06FC078BE4F007F5F9F00741
:10582000B1F7F007CFF7F007EBF7F00705F8F0074F
:1058300019F8F007CD06FC07AFF8F007DFCDF10748
:1058400067D0F107DBB9F007CD0DF207B10EF20713
:10585000AD0EF207A90EF2078D21F0079F06FC0797
:10586000CB29FC07B50AFC07B709FC07A109FC070F
:10587000B57EF007837DF007BD4CFC07599EF1070C
:10588000634CF107392EFC07D110F2073B2EFC07C1
:10589000B111F2074112F2077912F207000000007D
:1058A000E550FC07F950FC07B9C6F007D592F1079F
:1058B0004B4DFC075F9DF1075F9CF1075D50FC07B6
:1058C000EB72F107B922F1076B04F1077506FC07CB
:1058D0002BA4F007F1D2F0075FBDF007D5BDF007AC
:1058E00085BEF007DB2DF007752EF0071581F00758
:1058F000DF7FF0070937F007000000008F06FC0784
:105900009706FC077706FC07F3C3F10775C4F10798
:1059100003C5F1072128FC0700000000000000007B
:105920000000000000000000000000000000000077
:105930000000000000000000000000000000000067
:105940000000000000000000000000000000000057
:105950000000000000000000050000002066FC07B9
:1059600000040000EC93FC07AC020000E08FFC0791
:1059700000040000A496FC0770050000200300004E
:1059800000A60E0005000000D2000000320000005A
:105990003C000000010000000100000002000000C7
:1059A00002000000040000000300000006000000E8
:1059B00000000000020000000200000000000000E3
:1059C00000000000030000000300000005000000CC
:1059D00005000000060000000A0000000A000000A8
:1059E000C8000000B80B000002000000B80B000067
:1059F000B80B000010000000D4010000CC01000032
:105A0000700200006A0000000400000001000000B5
:105A1000200000000A00000001000000E204000075
:105A20008A020000DC050000AF000000D457FC072C
:105A300000000000000000002C5BFC0700000000DC
:105A40000000000001040000000000000000000051
:105A5000000000003F000000000000002000800067
:105A600000C00000000084000000282200000000A8
:105A70000000040000F7FFFF7F00000030F0FF0F80
:105A80000000000000040000000000000000000012
:105A90000000000000000000000000000100990963
:105AA00003009909070099090F0099091F10990926
:105AB0002F2099095F51990970A0FC0708000490F4
:105AC0000000000000000000030005D08B0035F04E
:105AD00010005CF0000010B0000018B000001AB018
:105AE000030051F0000038B000003AB0000064B08C
:105AF000000066B0000022B0000024B0010005D014
:105B0000000000000A00008008030490000004F078
:105B1000030006D0000000000A0000800803049083
:105B2000000004F0030006D00000000000000000A8
:105B300000000000000000000300000001050A0052
