:0200000407FCF7
:10000000B06BFC076D01FC077501FC078D01FC0757
:1000100000000000000000000000000000000000E0
:10002000000000000000000000000000A501FC0727
:100030000000000000000000A701FC071118FC07E9
:10004000111CFC07731CFC071D27F007A511FC07FA
:10005000CF17FC07AB01FC078F0EFC07AB01FC07B9
:10006000431DFC07AB01FC079310FC079710FC072E
:100070009B10FC079F10FC07A310FC075916FC07F8
:10008000E910FC07AB01FC07AB01FC07AB01FC0767
:10009000AB01FC07AB01FC07AB01FC07AB01FC07A4
:0200000407FCF7
:100110000348854605F0C4FD004800473904FC0744
:10012000B06BFC0710B50F49062008800F2000F0C7
:100130000CF8012000F009F8002000F006F800207B
:1001400005210907088062B610BD002809DBC10639
:10015000C90E0120884004490860BFF34F8FBFF3E8
:100160006F8F70470034005080E100E00F488047F7
:100170000F48004704207146084203D0EFF309807E
:100180000C490847EFF308800A49084704207146E4
:10019000084203D0EFF3098007490847EFF30880CE
:1001A00005490847FEE7FEE7FEE7FEE72501FC07F5
:1001B0001101FC071D02FC07BD01FC070522120707
:1001C000518A802319435182124903680B604368A6
:1001D0004B6083688B60C368CB6003690B614369C4
:1001E0004B6183698B61C369CB6108620A48836A8A
:1001F0004B62C36A8B62036BCB62C36B0B63436B53
:100200004B63806B8863908A800601D500BE70477F
:10021000FEE700000000FD0700ED00E005210907F2
:100220000A8A04231A430A820A8A02231A430A8288
:100230000A8940231A430A811B4B01221A601B4B77
:1002400008221A804A8A80231A434A82184A03687D
:1002500013614368536183689361C368D361036921
:1002600013624369536283699362C369D362106303
:100270001048836A5363C36A9363036BD363C36B8E
:100280000B4A40321360436B5360806B9060888AE6
:10029000800608D500BE488A012280088000D2036B
:1002A000104348827047FEE780E200E000330050D0
:1002B0004000FD0700ED00E0F8B503460C460120C4
:1002C000154600212B4E0246412B3BD00ADC012B68
:1002D00016D00222072B26D0402B23D120780228CB
:1002E00024D32AE0422B33D0432B37D0442B19D1CF
:1002F000207800281AD01F48407B2870227010E018
:1003000006221D491D485DF7F5FE0627002802D08C
:1003100006221A4901E00622B11C28465DF7C6FEF6
:1003200027700020F8BD2078022802D22170042016
:10033000F8BD30782870707802E0307A2870707AD2
:100340006870DBE720780028F0D00A48807AD4E78C
:1003500020780028EAD00748C07ACEE72078002825
:10036000E4D0307BC9E700207047012070470120AE
:1003700070470000125DFC0790E1F1073048FD076F
:10038000F8B5022801D003284ED19F4A13690421F1
:100390000B43136105242407628A20239A43628257
:1003A000228A02231A432282984E00271022022812
:1003B0007578608A39D010436082608A0843608211
:1003C0007068C01C830892480760628A40210A4313
:1003D0006282628A8A43628247618E498162012118
:1003E0000904C1622188802001432180009700997F
:1003F000491C00916429FADB618A10221143618251
:1004000083495B1E4B6121888143218003205BF778
:1004100059FA00280CD00120F070208A0F2109021F
:100420008843290208432082F8BD90436082EDE7AB
:10043000F77030780543F0E708B500F090F800F069
:1004400032FB052500262D0704270FE0142000F0BD
:10045000ABF90421684600964CF7CCFD002801D08A
:1004600000F083FA02F086FA00280BD028890006F3
:1004700008D501208007006B000403D4664800788B
:10048000C00713D002F0A5FA0028EFD100F0BBFAA4
:100490000028EBD072B601F0DDFC04280DD0022854
:1004A00012D0032810D0012852D056E05BF795FFF8
:1004B0005A4800780428D5D1C8E75948007801285F
:1004C00001D0032000E00220694608700446288A13
:1004D000384328822046FFF753FF204602F07BFA7C
:1004E000022C01D0032C18D14E484188FF22013242
:1004F00091434180428801210A434280009600983E
:10050000401C00901428FADB688980088000401C99
:10051000688168894006FCD56E80A88A800602D56D
:1005200041490820088030BFA88A3848C078002890
:1005300007D03E48006801898AB2416803205BF712
:100540009BF902F049FA30480169B943016104E0BE
:1005500000F059FA002800D030BF62B686E7F0B547
:100560003348344E0827344A344BB04201D339461D
:1005700008E0904201D30C2104E0984201D30E21FF
:1005800000E00F212E4C2F4D204864192E4D817014
:1005900064190125ED034460AC4201D8012406E052
:1005A0000325AD03AC4201D8032400E00F240C4323
:1005B0004470264C31468C4223D2254D264675196F
:1005C000944205D38D4201D204271AE00C2718E08B
:1005D0009C4209D3954201D2022712E08D4201D2FA
:1005E00006270EE00E270CE09D4201D2012708E00D
:1005F000954201D2032704E08D4201D2072700E093
:100600000F270770F0BD000000ED00E00448FD0773
:100610000000F407204F101A5877FD07B448FD0773
:10062000B477FD0720000050003300505876FD07D6
:100630000448FD070000FD0700C0FC070080FC0720
:100640001001FC07B8630000000004F8B06BFC0761
:100650000C040000704770B50D46002442F78BF97A
:100660002855641CE4B2202CF8D3002070BD10B5CE
:100670005DF70AFD10BD10B55DF70FFD10BD05213A
:100680000907488A012280088000D203104348826B
:10069000704700003D480178002902D08021417058
:1006A00070473B49002008703A49C8707047374985
:1006B0000A78002A03D000280CD002200BE0002882
:1006C00001D0022000E001203149087031490120A9
:1006D000C8707047012080304870704710B52E4AAE
:1006E0000821118072B605242407228A04210A43B6
:1006F0002282228980239A432281228940231A431D
:100700002281264A13690B431361618A2022914397
:100710006182218A022211432182218A0F22120240
:10072000914321821E494A88FF2301339A434A801C
:100730000A88CB019A430A80002806D000F0B3FC57
:10074000208A01210843208207E0208A40084000D7
:10075000208213490020E031088000201149C04365
:10076000086000BF00BF00BF30BF10BD08490020B7
:100770000978002904D0012903D0022900D10220E0
:100780007047012070470148C07870470C48FD074A
:10079000B477FD075877FD070033005000ED00E007
:1007A0002000005080E200E070B5FF4D04466878FC
:1007B000002822D0FD4801884907FCD4C1888088E0
:1007C00009040E18FA492046484331465DF7F4FB08
:1007D00000216970A861B00121465DF7EDFBE86179
:1007E000F44800234443E0170105220B1143200580
:1007F000324605F02BF9E962A86270BDEB494880EA
:1008000008880322104308800888042210430880C7
:10081000E54901204870704770B50521090708892E
:100820003022904308810889802318430881088971
:1008300080088000401C0881088908221043088134
:10084000DD4804881C4304804C8A94434C820D8903
:10085000402425430D810D8A0426B5430D828D8ADF
:10086000AD07FCD5D04EAA2575618588F026B54325
:10087000B0358580858803263602B5438580858816
:100880002D092D01858085880126B6023543858096
:100890008588760035438580858876003543858058
:1008A0004D8A95434D820288520852000280028888
:1008B0009A4302800A89A2430A814089800503D5B0
:1008C000BD490520603188800120800701688215BC
:1008D00091430160B94801683F225202914342149A
:1008E00089180160016802031143016070BD10B5F1
:1008F000B34900200968572901D9573908B2C10FF7
:10090000081840103D21484300B2C10701D01F30F4
:1009100000B2AC49884200D8084680B25BF7EAFDD5
:1009200010BD10B5A4494888C006040F48880122AC
:100930001043488048881E22904348809B484B01C2
:1009400043800523038003885B07FCD480884B88A1
:10095000934314334B804B885B085B004B804B8880
:100960009343620013434B8010BD70B5964901203C
:10097000C863C86B0028FCD101208007C0698A4C7D
:1009800000212269904200D22161A2780125002A2B
:1009900004D0A1702061FFF7C4FF11E02169192282
:1009A000411AD201914211D32061FFF7BAFFE188C9
:1009B000884201D9411A00E0091A89B2182905D3E1
:1009C000E08004F077FC002800D1A57070BD10B560
:1009D0007549896948437D49401849005DF7ECFA3B
:1009E00010BD10B570490122D203C969904205D3E8
:1009F00005F068F98905800A084310BD4843800A5C
:100A000010BDE4E7EDE710B5714801240078C00798
:100A100005D07048417D01290CD1007D06E00520FC
:100A20005BF77BFA002805D16B48807A002802D05A
:100A3000032800D00024204610BD10B567490020CF
:100A40000860FFF754FF01208007016B4900490847
:100A5000016310BD08B55449888057494A8801236D
:100A60001A434A80002200920099491C00911429DF
:100A7000FADB052109074B899B089B005B1C4B8116
:100A80004B895B06FCD54880192080010092521CDE
:100A900000928242FBDB48898008800048814889B7
:100AA0000006FCD508BDF8B54D490820088000F0C7
:100AB00061FA414820304088C046C0463A4F012084
:100AC00038703D4860304188C908C90041803A4DBE
:100AD000698989050AD54188C2130905090D891854
:100AE0004180418878229143403141800524240788
:100AF0006088002803D133488838FFF7ABFF688847
:100B0000400840006880374800260660628A40211D
:100B10000A436282628A8A43628246613249816202
:100B200001210904C16220888021084320800096A9
:100B30000098401C00906428FADB002000F0E2FBE3
:100B40001948203000F0E4F82848018A7981408A69
:100B5000B88100F0B3FB00F065F800F002FD01F091
:100B600080FB012041F70DFFFFF756FE204800688B
:100B700041F7A0FB1F48C67006710120800701687D
:100B80008215114301601420FFF738FE1420FFF78F
:100B90000BFEFFF77FFD01F0D1FBFFF74EFF16497B
:100BA00013200860FF2029E01048FD0700160050C0
:100BB0000024F40010270000200000500002004034
:100BC000B848FD07E2040000C000004020A1070073
:100BD000F976FD07507DFD07187DFD07AC76FD0712
:100BE000003300500000F407204F101A00FEF807F1
:100BF0004C76FD075877FD07BC48FD070749913043
:100C0000086007494F200860E6826888E021884331
:100C1000A0306880012004F077FBF8BDC048FD07D4
:100C2000B848FD0770B5214C214920465DF757FAB9
:100C30000521204849025DF752FA04F0EDF91E48FB
:100C40000025058030221D491D485DF72FFA03F06D
:100C50009BF91C49012008701C4A1B4911601D4A60
:100C60001B4911601D4A1C4911601D4A0A2111705F
:100C70001C491D4A0D70322111701C4A052111605A
:100C80001B4A10601B4801601B49062008601B4975
:100C9000072008601A4908200860FF20194907301A
:100CA0000860194908601948046070BD005CFD07C0
:100CB000781600000076FD074048FD0758ECF10764
:100CC000FC76FD07F976FD07605FFC075076FD07AF
:100CD000205DFC075476FD07A45EFC075876FD07EF
:100CE000B476FD07B576FD07DD76FD075C76FD077A
:100CF0006076FD076476FD076876FD076C76FD0774
:100D00007076FD074876FD074476FD074C76FD07B3
:100D100010B5062201495DF7C9F910BDA8FFF80713
:100D200083490A880F239B019A43800102430A806A
:100D300070477F490A880F239B019A438001024331
:100D40000A80704710B5044679497A480880002027
:100D50004880062000F0A4F8204600F0AEF810BD50
:100D60007348018801229203114301800188012206
:100D70001143018070476E486F49028802231A436D
:100D80000280491E02D302889207FAD40021018111
:100D900040897047F8B50546684800680090684685
:100DA000FFF7D0FF142000F0B3F8002D01D0092088
:100DB00000E00720FFF7BDFFFFF7DDFF044601203D
:100DC00000F0A6F8002668468670FFF7BBFF002DEE
:100DD00001D0092000E00720FFF7ABFFFFF7CBFFB2
:100DE000534900190E80F8BDF1B5514C0099208887
:100DF0000122D2029043C90208432080FFF7B0FFCE
:100E0000142000F085F801267602A680E68020886E
:100E1000F1000843208020888D10A8432080FFF730
:100E2000AAFF801B87B2208828432080FFF7A3FFFA
:100E3000801B009980B201291CD0F11B89B2A94204
:100E400000D300BEA288920A92020A43A280301AFE
:100E500080B2A84200D300BEE188890A890201431A
:100E6000E1802088A843208021880120000381435D
:100E70002180F8BD7900711A89B2A94200D300BE61
:100E8000A288920A92020A43A2804000DFE7284922
:100E9000012008812A480068002800D000477047D8
:100EA000002809DBC106C90E0120884025490860D9
:100EB000BFF34F8FBFF36F8F704730B505001FD062
:100EC0001B4C297820880122D2029043C902084392
:100ED000208028780128687813D0FFF721FFA978AF
:100EE00001208002002921880ED0014321800920A1
:100EF0006080E97802200029618807D00143618081
:100F000030BDFFF716FFEAE78143EFE78143F6E7DD
:100F10000AE000BF00BF00BF00BF00BF00BF00BFAE
:100F200000BF00BF00BF00BF401EF2D270470000EC
:100F30000015005001400000A0860100BC5FFC07C6
:100F40004448FD0780E100E00520000701883022C9
:100F5000114301800188032211430180704705205D
:100F600000070188302291430180018889088900A7
:100F700001807047704710B5032800D10420544CFD
:100F800040010019490008181A43C28010BD032807
:100F900000D104204E4A4001801801228A408280FC
:100FA0007047032800D10420494A400180180122DB
:100FB0008A404280704770B506460498144600285F
:100FC0000D46304602D0FFF7ECFF01E0FFF7DFFFF0
:100FD000224629463046FFF7CEFF70BD10B50028E7
:100FE00007D0431E3A4C5B0070341B19012802D015
:100FF00002E00023F6E70831188801248C40A04362
:101000008A4002431A8010BD032800D10420304AD0
:1010100040018018008801228A40104000D0012041
:10102000704708B52BA212680092032805D86A46BB
:10103000105C884201D3012008BD002008BD70B5B6
:10104000012421460A3881400D4688B200F02FF86D
:1010500084402148C189A9430C43C48170BD10B5A7
:1010600004460A3804280AD82046FFF7E8FF1B493F
:10107000A00040188038806D002801D0804710BD46
:10108000002CFCDBE106C90E0120884014490860F1
:1010900010BD0A20E3E70B20E1E70C20DFE70D207D
:1010A000DDE70E20DBE70F490020088070470028AD
:1010B0000BD0411E4840C003010C002002E049084B
:1010C000401C80B20029FAD1704710207047000000
:1010D0000030005007050907001400504848FD077C
:1010E00080E200E04000005010B5FFF738FF052017
:1010F00000078188CA0B164918D0164B1A88520768
:1011000014D51A88D20711D01888022210431880EB
:1011100018884008400018800C68002C05D0985EA4
:101120000421595E0A229A5EA04710BD8088C0063D
:10113000FBD5094802881206F7D501228280028871
:1011400080239A43028048680028EED0804710BD73
:101150005C48FD070002005000010050544930B4C3
:10116000884201D0012100E00021524A490189183A
:1011700008E0838ADB07DB0F12D00388541C8D68DC
:10118000CC81AB54CA898B899A42F2D382885208A7
:10119000520082808A69002A02D0C88930BC104778
:1011A00030BC704710B5444800F001F810BDF8B5E8
:1011B0003F4D404E044620890007000F062826D0E8
:1011C00009DC012840D002281DD00428F3D1204694
:1011D000FFF7C4FFEFE7072828D00C28EBD1AC427B
:1011E00001D0012000E00020400187192046FFF7D0
:1011F000B5FFA18849084900A180B9690029DAD062
:10120000F8898847D7E7204600F01FF8D3E7204643
:10121000AC4201D0012100E00021490189190A698D
:10122000002AC8D0818A9E2319400BE02046AC4298
:1012300001D0012100E00021490189190A69002A31
:10124000B9D001219047B6E7F8BD194930B48842BA
:1012500001D0012100E00021164A490189180EE061
:1012600003891B069B0F032B1BD0838A9B06DB0F76
:10127000002B95D0531C0C68CB80A25C0280CA88DE
:101280008B889A42ECD3828802239A438280828898
:1012900080239A4382804A69002A81D0888830BCA2
:1012A00010477C231B5A9B07DB0FE1E778E7000020
:1012B000001000506448FD070011005018B53E4969
:1012C00000220A6005200007448A40231C43448210
:1012D000448A9C4344824A61384B8B6201231B043D
:1012E000CB62048880231C4304800092521C00922D
:1012F000642AFBDB0A68D208D2000A60018899439D
:10130000018018BD052109070988090600D400BE1F
:1013100029490A88520700D000BE002802D0FF20C9
:10132000023000E001200860704770B505242407F2
:101330002488049D240600D400BE1F4C268876070E
:1013400000D000BE01267603B14200D300BE0126C4
:10135000B603002B01D0B34200D300BE4900012ADE
:1013600000D0002211432161591E6161002D02D07D
:10137000FF21053103E02168C908C900091D21606A
:10138000002108E0A2681205120F082AFAD08A008C
:101390008258A261491C9942F4D300F007F8A06872
:1013A000800701D5002070BD012070BD0248816812
:1013B0004906FCD5704700000000F407204F101AC2
:1013C000EFF31080012181F31088052109078A8835
:1013D0000123DB021A438A80002800D0012080F319
:1013E0001088704710B5474841780078FFF7D9FD5D
:1013F00010BD10B5EFF31084012080F3108842482F
:1014000001884908490001800520000781880122E0
:10141000D20291438180FFF7E5FF002C03D0012029
:1014200080F3108810BD0020FAE737490A88520877
:1014300052000A800A88FF2381339A43C001024385
:101440000A800888012210430880704710B50446BE
:1014500081782C480170E1784170FFF7C3FFFFF7F6
:10146000AFFF20780207C107520F490E5200000952
:101470001143C000014360784207920D4006C00F3F
:1014800011438003014320480180018989088900B4
:1014900001810121C18002880A430280002010BD21
:1014A00010B5184841780078FFF771FD10BD164956
:1014B00000220B899B089B009B1C0B810B88DB0582
:1014C0009B0F012B01D9030C8B8048800888800476
:1014D000FCD50120C8800888C005800F012801D9EB
:1014E0008888020448888018704710B50446FFF7C2
:1014F000D7FF2046FFF7DBFF0446FFF773FF2046C8
:1015000010BD0000A448FD070012005010B50120D6
:10151000FFF78BFF05200002FFF7E7FF80B210BD49
:1015200010B5FFF7F3FFC00701D00D20C04310BD79
:1015300010B5FFF7B5FFFFF755FF0020FFF775FF68
:10154000AB20FFF7D2FF002010BD10B5FFF7E8FF7A
:10155000002805D1FFF769FFB920FFF7C6FF00207B
:1015600010BD7CB505200007018A0222914301824B
:10157000818A0907FCD5418A202211434182032632
:101580000125360208233246032102200095FFF789
:1015900012FD002407233246214602200094FFF763
:1015A0000AFD06233246092102200094FFF703FDBD
:1015B00005230022042102200094FFF7FCFC1548BB
:1015C0000068019001A8FFF741FFFFF7B1FFFFF7A7
:1015D000BCFFFFF70EFF00233246032102200095D7
:1015E000FFF7E9FC00236D022A4619460220009409
:1015F000FFF7E1FC00232A46092102200094FFF7AF
:10160000DAFC00232A46042102200094FFF7D3FCD1
:101610007CBD0000C05FFC07C90092008918400033
:10162000081810490880104801680902090A420791
:101630001143016070470B4801880122114301806A
:101640007047084801884908490001807047054BE8
:1016500058809980DA80704704480068002800D0DC
:1016600000477047003400500CE400E0A848FD0734
:1016700010B5624A13885B085B001380138840240E
:10168000A343138013880824A343C000034313809B
:101690001089800A80020843108110BD30B5574B75
:1016A0001C880125640864002C431C801C8840258C
:1016B000AC432C431C80012900D101201C8820252B
:1016C000AC43400104431C8018881024A043090146
:1016D000084318809888800A80021043988030BDA3
:1016E00030B5EFF31081012282F3108805231B0728
:1016F0009A882024A24322439A80002900D0012105
:1017000081F310883D4C6034A18949084900A181CA
:10171000A189C907C90FFBD13849002220310A82AB
:10172000364A038893824388138383889383C388CC
:101730000B8013880625AB43457A6D002B4313803D
:10174000827B002A00D100BEC37B002B00D100BEEB
:101750008B8B5B095B01521E13438B830A8B5309EE
:10176000C27B5B01521E13430B83817A012917D080
:101770008189C07AFFF77CFFA18901208143014361
:10178000A181A089C007C00FFBD01D48016880223D
:10179000090A0902114301601A491020086030BD8E
:1017A0008289C17A007AFFF779FFE5E71348603054
:1017B00081894908490081818189C907C90FFBD105
:1017C00005210907888820229043888070470B48AC
:1017D00010B5203080890C49C96A002901D088479A
:1017E00010BD042000F001F810BD002805DBC10683
:1017F000C90E012088400549086070470013005059
:1018000004E400E000E100E0C864FC0780E200E0DE
:101810001C480068002800D0004770471A4A136926
:101820005B085B00136153691B0E1B06401E0343DC
:1018300053619069000E000690611069022398437D
:101840004900084310611069042188431061106940
:1018500001210843106170470B488169090E090690
:1018600081610169490849000161704700B50021A3
:10187000FFF7D4FF04480169C903FCD5FFF7ECFF6B
:1018800000BD0000AC48FD0700E000E016490A8AF0
:10189000007804239A43800002430A8270470A4674
:1018A00010B5014610465CF787FB0F49401EC88102
:1018B00010BD70B542780546642A00D900BE0A4CB6
:1018C000E0896421401C50435CF776FB29780129AC
:1018D00005D0022905D0032900D1A08170BD208147
:1018E00070BD608170BD0000003400500020704762
:1018F0007047704770470020704701218907086BC7
:101900000722104308637047704740087038C0B220
:1019100070473E493C4808603E493D4848813E4842
:10192000418806229143891C41803C4A6321D18031
:101930003B49384A0988603A11823A49098801804E
:1019400039480078002802D0384930200883704791
:1019500000B58BB0364A4262364A8262364A4261EC
:10196000364AC262364A0260364A0262364A4260EB
:10197000364AC261254800214038426B1F231B04B0
:101980009A434313D218426331480268C3129A4300
:101990000260026803139A43026068464154491C7E
:1019A000C9B22829FAD301462A48282200684030C3
:1019B0005CF77CFBFFF7ADFFFEF7B3FF264908801D
:1019C00003F078FC0BB000BD104810B54038416BF7
:1019D0001F221204914342138918416300060168D3
:1019E000C908C9000160052000070189890889002C
:1019F000491C01810189082211430181FFF789FFF8
:101A0000012003F081FC10BD4C055407800000400C
:101A1000EBE600006028005000260050002C00502B
:101A20001C48FD071A48FD07B048FD070024005078
:101A3000ED18FC07F118FC07F718FC07FB18FC076A
:101A4000F318FC070919FC07F518FC070B19FC072C
:101A5000000200404C76FD071648FD0770B50546AC
:101A6000DE48DF4E047D29E0DC482038016B0A2087
:101A70006043081880784006400EC1060DD071689A
:101A8000491C7160C10702D0F168491CF160000770
:101A900011D5B068401CB0600DE0D2484088316874
:101AA000000A002910D0328A4A43491C10183160BC
:101AB0005CF782FA3082641C6407640F28466D1E4E
:101AC000EDB20028D0D170BD308201203060F2E745
:101AD000F8B50126B607B56B2846FEF793FFC04C54
:101AE000143C2169471800202061BF4938465CF743
:101AF00063FABE494860BC4A5043381A00D0101AF5
:101B000080B20860306B0821884308433063B848CE
:101B10000560B8480068002810D0A8420ED2B64927
:101B2000097800290AD16168281A4018E168821DE5
:101B30008A4201D2801D00E008466060F8BDF8B519
:101B4000FFF70DFA0026AC48052706700425AB4CBC
:101B500035E02188042089088900891C2180608063
:101B6000208828432080FFF7EFF900E000BF20889D
:101B70004007FBD4FFF7F3F9E088A18800040818B8
:101B80009F49401805289F480ED24188491C89B2B8
:101B90004180142918D34680416882684B1E9342C5
:101BA00000D91A4642600FE046804168C3688A1C2B
:101BB0009A4200D2134643608F4801210170384693
:101BC0007F1EFFB20028C4D1052000074189890784
:101BD00008D041898908890041818B494A88520887
:101BE00052004A800189802211430181018AA94360
:101BF0000182818A8907FCD500F024F90120800741
:101C00000169490700D500BE01694907FCD5F8BD47
:101C1000F8B57E4F08203880052636077089800782
:101C200021D0B08A400701D500F01BFB764D2888F3
:101C3000802108432880714CFF2060800420208090
:101C4000FFF782F97D21C900E088A28800041018FE
:101C50008842F9D9052020806D4800887080298845
:101C600080208143298038894007FCD4FFF767FF33
:101C7000F8BDF8B50127634EBD072C69002C5FD075
:101C8000200606D58020A8614BF75DF81420FEF7EA
:101C9000B5FDA0070AD50220A8615E480068803023
:101CA000008EC0B2FFF7DAFE47F713F8200717D50A
:101CB0000820A86158485222006864308188514346
:101CC000564A12688918C031898B407E090A081A61
:101CD000C0B2FFF7C3FE002046F7BBFF0420307000
:101CE000E00505D5FF200130A861012046F7B1FFCE
:101CF000A00504D501204002A8614BF78DF86006CD
:101D000003D54020A86146F79FFFE00603D51020C9
:101D1000A86145F7D4FB600703D50420A86100F053
:101D20002AF8E00706D00120A8615AF7D5FB4BF747
:101D30000AF83770A006A0D52020A86100BE9CE755
:101D4000F8BD10B53648C18840880A4602402D4B80
:101D5000D20705D00322334C1A702288521C2280ED
:101D6000890707D5C00505D502202F4918700888B6
:101D7000401C088010BD70B52448018949084900FD
:101D800001812A480078C00705D0002040F726FDD1
:101D900040F7ECFC01E040F7D1FC5AF781FB40F73B
:101DA0008BFC01251420FEF729FD164C0020207025
:101DB00015484089800510D5607800280DD11C4851
:101DC00065700088C00708D10120FEF7E3FF8B2172
:101DD0008900884201D90220607070BD0079FD073A
:101DE000C848FD0700290050710200004000004073
:101DF000E448FD07DC48FD07F864FC0700160050C6
:101E000061F8FFFFB448FD07200000500033005088
:101E10001448FD075876FD073879FD074C76FD0715
:101E2000202000500265FC070465FC07F976FD07D9
:101E30000015005010B540F776FA7548806875496E
:101E4000486010BD10B540F79AFA72487049406872
:101E5000886010BDF8B5002600F0D5F86E4C0090F3
:101E600021790020022900D100906C4F3989C907DF
:101E70000DD159F76CFC002809D0E0780126002824
:101E8000FAD005200007808AC00701D00426B8E0F8
:101E900020880028FBD1FEF776FC002806D1604898
:101EA000806A002802D000F0AEF80090FEF71FFD17
:101EB000A17868465AF756F900283ED00125AD07AB
:101EC0002869400639D4A17868464BF793F8002872
:101ED00033D04DF738F800282ED04BF795FC00286A
:101EE0002AD0A17868465AF73DF9002826D02869FB
:101EF000400623D44848817868464BF77BF8002891
:101F00001CD000BE0099002906D0286AFF38393855
:101F1000DA2801D8491E009142484089800500D541
:101F200000BE4148FEF76DFD064604463F481234A8
:101F3000007802280FD00FE0002662E03C480078CD
:101F4000C00705D0002040F749FC40F70FFC58E0DF
:101F500040F7F4FB55E011343648FEF752FDE96BCB
:101F6000301A890A89020143E963E86B3249084063
:101F7000A1020843E863E86BC002C00A7105084388
:101F8000E8632E4A009804260021904200D300BE48
:101F90002B4B0CCB5CF73AF80903000D08431D4AA4
:101FA000401E611C1060884200D114601A480079FC
:101FB000002801D0012100E00021106846F7EFFF62
:101FC0002048C06A8047124C286B0004C00FFBD029
:101FD0002068C005FCD520688025A843206078894A
:101FE000462804D24621184A081A10607981FFF762
:101FF00021FF20680006FCD5052000070189A943C0
:1020000001813046F8BD11480068406A7047000001
:1020100000020040DC48FD075877FD070033005000
:10202000787EFD07200000501D0D0000B477FD07ED
:10203000F976FD07540B0000FF03E0FF40420F005C
:102040003848FD07B47FFD07C448FD075876FD07F3
:10205000F8B50025344EFF2700280FD000241820A3
:1020600060438019C78245608560C581007D59F74E
:1020700067FF641CE4B2202CF1D3F8BD0024204695
:10208000182148438119224610320D618A82CF827D
:102090004D608D60CD818D813550087D59F7D9FE19
:1020A000641CE4B2202CEAD3F8BD40207047002025
:1020B000401CC0B22028FBD370470020401CC0B297
:1020C0002028FBD3704730B5FF21020AC4B2164B5B
:1020D000002018254543ED18AD8AA54204D11821EA
:1020E0004843C018C18A03E0401CC0B22028F0D386
:1020F0001002084330BD30B5FF21020AC4B20A4BBA
:10210000002018254543ED18ED8AA54204D1182179
:102110004843C018818A03E0401CC0B22028F0D395
:102120001002084330BD0000E848FD0738B500251F
:102130006B4C0095E178A07801232A46FEF73BFF1F
:102140002078A178884203D16178E278914206D064
:1021500000950322617802231202FEF72CFF38BD9E
:1021600001280CD1042901D0052908D10520000738
:10217000818A8906FCD4418A80229143418270473A
:10218000F0B515460E460746FFF7EAFF1946284602
:10219000FFF7E6FF524C27706670A570E370F0BD44
:1021A00038B50125032200231202032102200095E5
:1021B000FEF701FF4A4CE41E2078002806D10022D9
:1021C000052304211046FFF7DBFF2570FFF7AEFF64
:1021D00038BD38B50025424C0095E178A0782B46F3
:1021E0002A46FEF7E8FE2078A178884203D161787C
:1021F000E278914205D00095002361781A46FEF7F7
:10220000DAFE38BD3748418806229143091D4180D6
:102210004188012211434180418838221143418085
:102220004188402291434180418803225202114358
:1022300041804288FF2101310A43428042880723BE
:10224000DB021A43428042888B019A43428026482F
:10225000016026480268120A1202026024480160E6
:10226000704770B505242407208A02218843208204
:10227000A08A0007FCD51F484188FF220132114384
:10228000418002F0B1FEFEF76AFE1B480821018082
:10229000A28880200243A280628A02436282174A97
:1022A00007201081154D0020803D2881A8808320C3
:1022B000A8810B48C01E4278002A02D141700B2130
:1022C000817081780322407840F72CFA0320A8819E
:1022D000FFF766FF608A202188430843608270BD53
:1022E000EB4BFD072020005000E100E008E400E097
:1022F00080E200E0200000500033005080100050C9
:1023000018B5F84900220A6005200007448A4023D6
:102310001C434482448A9C4344824A61F24B8B6250
:1023200001231B04CB6201888023194301800092A2
:102330000098401C00906428FADB18BD10B5FEF729
:10234000A9F9EA4900204870E94B02221A70E94ACB
:10235000107025228A703222CA800881E6494860BE
:10236000C860886008600882E4480168020311437D
:102370000160FFF747FF10BDF7B582B0164604466F
:10238000002513E0FFF7BCFF002002460090E108A3
:1023900002230398FEF7C9FF012148400746FEF7D4
:1023A0008DFF0834002F03D1AD1CADB2B542E9D387
:1023B000052000070188802291430180002005B09C
:1023C000F0BD70B515460E460446FFF799FF002094
:1023D000FEF798FF2A46214630465BF767FEFEF778
:1023E0006DFF70BD38B5C14C6078002825D1C1485B
:1023F00001786846017025214170BD480178684622
:10240000817047F70AFEBE48016AC2131143016298
:10241000016A021491430162016A821491430162CC
:10242000016A490A4902016205206070B54910112C
:102430000860BFF34F8FBFF36F8F38BD10B5AB4C43
:102440006078012805D06078022802D060780528DD
:1024500007D1AD48806D40F7CAF90021084659F709
:102460002AFD0020607010BD38B5A04C60780028AF
:1024700019D120819F48017868460170A178417088
:102480009B4801786846817047F7C7FD9E4D05E07F
:10249000684647F7C2FD002800D0FEE7A86D002877
:1024A000F6D00120607038BD38B5904C60780028B7
:1024B0000ED191494860C8608860086008828D48E4
:1024C000007869460870684647F721FE0220607070
:1024D00038BD70B50446417800250078FEF7A1FDAF
:1024E000002800D10125E178A078FEF79AFD0028A8
:1024F00000D10125284670BDF8B5044600267D2090
:10250000000100960099491C00918142FADB7F4D41
:1025100000960023697828781A46FEF74CFD00964D
:102520000023E978A8781A46FEF745FDE378A278FB
:1025300061782078FFF724FEFFF7F8FDF8BD7449B5
:102540000A8A5207D20FFBD0714A603A1082088A79
:102550004007C00FFBD0FF2001301082088B80069F
:10256000800EFBD0108AC0B27047694A138A5B079D
:10257000DB0FFBD0664B603B18821982108A400744
:10258000C00FFBD0108A8006C00FFBD1704770B51A
:102590000D460446FEF784FF2046FEF788FF2846D6
:1025A000FEF785FFFEF71EFF70BD10B50446FEF76F
:1025B00077FF80202043FEF77AFF0020FEF777FFA9
:1025C000C4B2FEF70FFF204610BD014600B5002043
:1025D0000B005BF7BFFD261416191C1F22252815BA
:1025E000152B2E3134373A151515153D4043464904
:1025F0004C4F5255585B5E6164676A6D7015454873
:1026000000BD4448801C00BD4248001D00BD41483B
:10261000801D00BD3F48083000BD3E480A3000BD67
:102620003C480C3000BD3B480E3000BD39482030DE
:1026300000BD3848223000BD3648243000BD354842
:10264000263000BD3348283000BD32482A3000BD56
:102650003048403000BD2F48423000BD2D48443046
:1026600000BD2C48463000BD2A48483000BD2948EE
:102670004A3000BD27484C3000BD26484E3000BDD2
:102680002448503000BD2348523000BD21488030DE
:1026900000BD2048823000BD1E48843000BD1D486A
:1026A000863000BD1B48883000BD1A488A3000BD06
:1026B00018488C3000BD17488E3000BD1CB50B4C3F
:1026C0000120207014491023096801910090032211
:1026D00021791202E078FEF76EFC607900281DD0A7
:1026E00001221CE00000F407204F101AFA64FC07D6
:1026F000A865FC07A965FC07C848FD070002004063
:10270000C000004080E100E06479FD07EB4BFD076D
:1027100060130050063000502460FC07002221792D
:10272000E078FEF75BFCFEF78CFF10480188802202
:102730001143018005200007818808221143818010
:1027400081886A46890812798900114381800022B4
:1027500011461046FEF760FF7D20C000044A014686
:10276000FEF775FFFEF767FF1CBD0000200000505C
:10277000FFFF000010B501460B2000F0C1F800F08B
:10278000B4F810BD10B50446C1B2062000F0B8F888
:10279000210A072000F0B4F800F0A7F810BD10B52A
:1027A0000446C1B2002000F0ABF8210A012000F07D
:1027B000A7F800F09AF810BD10B50024002803D047
:1027C0000121401E81408CB2E1B2042000F098F853
:1027D000210A052000F094F800F087F810BD10B52C
:1027E0000446C1B2022000F08BF8210A032000F059
:1027F00087F800F07AF810BDC10710B5C90F08209E
:1028000000F07EF800F071F810BD10B500F038F857
:102810000020FFF7F1FF0020FFF7E1FF0020FFF7A6
:10282000CBFF0020FFF7BBFF0020FFF7ABFF00202E
:10283000FFF7A0FF10BD10B50446002000F072F8AD
:10284000012000F06FF87D20C000604300F074F8B4
:10285000002000F067F810BD10B50021092000F03D
:102860004FF800F042F80121092000F049F800F08B
:102870003CF80021092000F043F800F036F810BDC4
:102880002C4900220A8003200002C8800881488168
:102890008881C881088248828882264940390A8016
:1028A000C880088148818881C88108827047214991
:1028B00040390A88000712091201000F02430A80FA
:1028C00070471C4A403A11881023C0079943C00E34
:1028D000014311807047174A403A11882023C007EE
:1028E0009943800E01431180704700B50020FFF727
:1028F000F2FF0120FFF7EFFF0020FFF7ECFF00BD24
:1029000030B505460C460020FFF7DBFF0948048080
:102910002846FFF7CCFF0120FFF7D3FF0020FFF789
:10292000D0FF30BD00B501460A20FFF7E9FFFFF7F1
:10293000DCFF00BD8030005001010748814200D912
:102940000146064800220261416182610521016160
:102950000169C903FCD57047FFFFFF0000E000E0FC
:1029600010B500231E4A19461E4859F721F94CF7A5
:10297000CFF810BD70B51C4D0024287826460128DC
:1029800006D11A48806D002802D12E70FFF76CFD29
:1029900017480188174A1288914207D329780129DC
:1029A00004D10680FFF7DCFFFFF748FD59F715FD5E
:1029B000FDF7DCFE0100104807D001684A1E0260E6
:1029C000002900DD0124204670BD0124642101603E
:1029D000F9E700207047704710B5FDF75BFE10BDAA
:1029E0000BFE000001080000FB64FC076479FD0792
:1029F0000265FC070065FC07B064FC073EB50D4DA1
:102A00006D1E14D002880A42FAD16D1E0FD00288C2
:102A10000A42FAD0084A13680124234313606D1E4A
:102A200005D002880A42FAD1044A10683EBD00204F
:102A30003EBD0000C0C62D0010E000E018E000E040
:102A4000FE494843012102E000BF00BF491C81420A
:102A5000FAD97047FA49FF2804D8002805D0FF208A
:102A6000013002E0884200D9084605210907488064
:102A70000220E5E7F8B50027F24900978A78521C52
:102A80008A700A215BF798FA01228A40D1B20028A5
:102A900007D0012807D0022808D0032809D0002039
:102AA000F8BDE94807E0E848203004E0E648403057
:102AB00001E0E5488030E64CE44E6661A76122699A
:102AC00004231A432261EFF31085012282F3108858
:102AD000FFF794FF00902069400840002061002D1E
:102AE0000CD0012080F310880098D649301A0F705E
:102AF000B04201D101220A704860F8BD0020F1E720
:102B0000F8B50D4607461C46501B03F053F8064621
:102B1000781B03F04FF8314603F00EF8009006984A
:102B2000001B03F047F8009902F0C9FF009003F082
:102B30004CF80019F8BDF1B5C24D022782B010352E
:102B4000C0487F1C40304168FFB2BE00301880385A
:102B50000091C36F6A6870198038C16FBD48FFF774
:102B6000CFFF0446FF2802DCFF24013403E0B44811
:102B7000844200DD0446B348403084518059FFF759
:102B800069FF0298FFF776FFA851A959AD480A2FAF
:102B9000816004D2A859AF490A398842D0DBA948DC
:102BA000002181702046FEBDF1B5A74DA649A64C77
:102BB000009E0320A44A00022035403180343300B7
:102BC0005BF7C8FA26141A20262C32383ED3D34499
:102BD0004A50565C62D3D3D3D3686E747A80868CA5
:102BE00092989EA4AAB0B6BCC2C8CED3D188814365
:102BF000FF310131D180B8E011898143FF310131CA
:102C00001181B2E051898143FF3101315181ACE042
:102C100091898143FF3101319181A6E0D1898143BE
:102C2000FF310131D181A0E0118A8143FF310131AF
:102C300011829AE0518A8143FF310131518294E03F
:102C4000918A8143FF31013191828EE0E98881438D
:102C5000FF310131E98088E029898143FF31013169
:102C6000298182E069898143FF31013169817CE0FA
:102C7000A9898143FF310131A98176E0E989814346
:102C8000FF310131E98170E0298A8143FF3101314F
:102C900029826AE0CA888243FF320132CA8064E036
:102CA0000A898243FF3201320A815EE04A89824307
:102CB000FF3201324A8158E08A898243FF32013271
:102CC0008A8152E0CA898243FF320132CA814CE0D4
:102CD0000A8A8243FF3201320A8246E04A8A8243EC
:102CE000FF3201324A8240E08A8A8243FF32013257
:102CF0008A823AE0CA8A8243FF320132CA8234E0D1
:102D00000A8B8243FF3201320A832EE0E18881433D
:102D1000FF310131E18028E021898143FF31013118
:102D2000218122E061898143FF31013161811CE011
:102D3000A1898143FF310131A18116E0E1898143FD
:102D4000FF310131E18110E0218A8143FF310131FE
:102D500021820AE0618A8143FF310131618204E00E
:102D6000A18A8143FF310131A182364E00204036D5
:102D70003746303734460146303C8200B150B950B6
:102D8000A150401CC0B20A28F7D93348B060B068DF
:102D9000FFF760FE0098FFF76DFEF860294D287878
:102DA000002874D128467030C0682A4FB8422DDD03
:102DB000AF21890028464030816027494160806802
:102DC000FFF748FE0098FFF755FE2E467036B060BC
:102DD000F0686060B068A06002206870B068B842B7
:102DE00052DDFF210131284640308160AF2189004A
:102DF00041608068FFF72EFE0098FFF73BFE706091
:102E0000B06860607068A06001203CE00D48124925
:102E1000403081601921890141604068FFF71AFE46
:102E20000098FFF727FE074E70363061306960600A
:102E3000F068A0600320687030690FE0F1060000C0
:102E4000FF0700000865FC0700300050FFFFFF008F
:102E500000E000E0FC117A007E040000B84213DAC2
:102E60001921890130463038816017494160406836
:102E7000FFF7F0FD0098FFF7FDFD7061706960607D
:102E80003069A060042068702878002805D00020F0
:102E9000FFF7E0FD0120C043F8BD0098FFF74BFEAF
:102EA0000A4968684118502902DC381A502805DDA3
:102EB0000020FFF7CFFD0020C043F8BD052000072C
:102EC0004088E860E868F8BDFF070000FCED85FF7A
:102ED00010B519460223FE4AFE4858F769FE04461B
:102EE0000120FDF781FFFC484089800501D50120C4
:102EF00000E00020FDF74EFF208020464BF708FE43
:102F0000002010BD10B518460C467F220146042350
:102F10005202F04858F74CFE2178332904D0016062
:102F20004BF7F6FD002010BD052109074988F6E79B
:102F3000E74A10B519460023133AE64858F738FE19
:102F40004BF7E6FD002010BD70B5E14A194642235B
:102F5000123AE04858F72CFE0E2504460570DFA112
:102F6000801C02F0A3FD20466570DCA1223002F037
:102F70009DFD20464BF7CCFD002070BD38B51846AE
:102F80000C46D34A01460223113AD24858F710FEA4
:102F9000054621786846017061784170A17881709A
:102FA000E178C170FFF795FA288028464BF7B0FD0D
:102FB0002888002802D16846FFF79EFA002038BD15
:102FC00010B518460C46C24A01460823143AC148B7
:102FD00058F7EEFD21780170002141702278616878
:102FE000002A06D0012A06D0022A07D0032A0AD1D5
:102FF00007E0096803E0A2680A6004E0098841600C
:1030000001E022890A804BF783FD002010BD70B5D6
:1030100018460C46AE4A014600230B3AAD4858F715
:10302000C7FD0546B1482178417061780170FFF70E
:10303000D9F928464BF76CFD002070BD7CB51846C9
:103040000C46A34A01460723173AA24858F7B0FD99
:103050000546002000900190217829702078661C98
:1030600003005BF777F80403071118290222691C93
:103070009F480DE070783178000208430090944832
:1030800001226946FE3015E099480622691C9030FD
:10309000FFF797F910E0A01C5BF739F861780002A0
:1030A00008430090707931790002084301900122B1
:1030B00069469048FFF760F928464BF729FD002044
:1030C0007CBDF0B518460E46814A014689B0022300
:1030D000183A804858F76CFD0546B178707800279B
:1030E00009020497014332780520000713005BF7BB
:1030F00031F80805070B141C232C2C8D408801E0A7
:10310000418017E0288081E07B4801210163032191
:1031100079480902C03801820CE04288754B573368
:103120005B1A934206D35118EAE742888A4201D3D8
:10313000511AE5E70020E5E76F4900200863012206
:103140006D495202C0390A82DCE77078FE2820D02F
:103150000A2105905AF730FF044601910598FFF7C0
:1031600034FA039000284FD000880490204601993B
:10317000FEF7F6FFFF210398013101800598FFF764
:1031800013FD411C2ED0811C2ED0317807292DD063
:103190003BE0002459A00194006807901AE00A203F
:1031A000019960434018C0B20590FFF70EFA0088FD
:1031B0000007000F0128D1D007A8015D01988142C6
:1031C00003D1641CE4B2002001E0401CC0B20190B5
:1031D000032C04D807A8015D01988142DFD2FF20AB
:1031E0000590BBE7012710E002270EE080B20790B0
:1031F000002140480891012207A99038FFF7BCF848
:10320000002802D0032700E004272F80307806280A
:1032100001D0072821D10498C006C00E012801D092
:1032200003281AD1364F20460199FDF7EDFE0028FC
:1032300002D07F1E781CF6D1314F20460199FDF750
:10324000E3FE002801D17F1EF7D2002005902D4813
:103250000599491C05918142FADB28464BF758FC39
:103260003078062801D0072818D10498C006C00E6F
:10327000012801D0032811D1234D20460199FDF7E3
:10328000C3FE002804D128466D1EADB20028F4D13B
:103290000398002802D0039804990180002009B007
:1032A000F0BD0B4A10B5194600230A3A094858F7F1
:1032B0007FFC044615480078052807D1FFF7BEF8C3
:1032C00013490020086220464BF722FC002010BD65
:1032D0001AFE00000108000020000050765F362E24
:1032E000302E31342E31313134000000A865FC0716
:1032F00018FFF807A8FF0000C030005007050907B5
:1033000018F73600120E0000B68C0000FB64FC07B4
:10331000C000004070B518460C4601460023FE4A26
:10332000FE4858F745FC0546FD4920784870FFF7F0
:10333000BBF828464BF7ECFB002070BDF64A10B5F1
:1033400019460823521CF54858F732FC0446F54844
:10335000007802280DD1FFF771F8F3480188218029
:10336000818961800189A180008AE08020464BF735
:10337000CFFB0020ABE7F8B518460F46E64A0146FA
:103380000023921CE54858F713FC0090E74D38786D
:10339000FF26E64C203501364F2804D0522821D094
:1033A000542839D10AE0002020802880E0490322F7
:1033B0008A80E0490E60E0490E6028E0082000F0B5
:1033C0008DFD78782188314321802188090A0902FE
:1033D000014321800120D649800388800420288071
:1033E000022012E0082000F079FD7878218831432E
:1033F00021802188090A0902014321800120CC494A
:103400008003888001202880082028800620C54964
:10341000087000984BF77CFB0020F8BD10B5C04841
:103420000A784270C54B4A781A708A780270087917
:10343000C97800020843C2490880FFF715F8002048
:1034400045E770B518460C460146B34AB348012318
:103450000B3A401C58F7ACFB002505704BF758FBA6
:1034600049F7CEFF2078002805D0B64E012805D0B8
:10347000022827D120E0FDF70DF923E0FEF7A9FE91
:1034800035706178B048002902D1A178002910D0A8
:10349000012101716078AD4919224843A178920158
:1034A00051434018AA49096848620020FDF7FFF817
:1034B00008E002210171F8E7FEF78BFE357000206D
:1034C000FDF70CF9002070BD70B518460C46924A05
:1034D00001460023921E914858F76AFB0546207862
:1034E00003005AF737FE09060A0E12161A1E242E7A
:1034F0002900A078FFF789F91EE06088FFF76FF9CF
:103500001AE0A078FFF758F916E06088FFF747F94E
:10351000F3E7A078FFF770F90EE06088FFF78BF90A
:103520000AE06088FFF72EF96088002802D0FFF7D4
:1035300093F901E0FFF71EF928464BF7E9FA00205E
:1035400070BDA078F6E7FEB518460D46724A0146F2
:10355000F223083A714858F72BFB0446288801905B
:10356000AD780026002D01D03C2D19D912201AE08B
:103570000198B7003918FF20C004081804226946D2
:10358000FEF71FFF69463819097881706946497846
:10359000C1706946897801716946C9784171761CA4
:1035A000AE42E5D300202070657020464BF7B0FA9C
:1035B0000020FEBDF0B518460C46574A014687B0BC
:1035C0000223D21F554858F7F3FA00250646029504
:1035D0000395A778E01C009020880490002F01D06C
:1035E0003C2F21D9122022E0A80000990190401818
:1035F0000590401C5AF78BFD0102009A0198105C5F
:10360000014305980291401D5AF781FD010205987A
:10361000012200790143039102A90498FEF7ACFE50
:1036200004980830AD1C0490BD42DDD300203070FA
:10363000A078707030464BF76BFA002007B0F0BDF1
:10364000F0B518460C46344A014685B00223521D97
:10365000324858F7ADFA05462078002802D00128F4
:1036600078D1FFE0002003900290019007460646C3
:10367000E178A078FDF7D5FC00286CD0617920793D
:10368000FDF7CFFC002866D0E179A079FDF7C9FCF1
:10369000002860D0617A207AFDF7C3FC00285AD058
:1036A000607B002805D0E17BA07BFDF7BAFC0028F9
:1036B00051D0E178A078FEF753FD61792079FEF7CB
:1036C0004FFDE179A079FEF74BFD617A207AFEF794
:1036D00047FD607B002803D0E17BA07BFEF740FD27
:1036E000E078FEF772FF002801D00088039060792F
:1036F000FEF76BFF002801D000880290E079FEF70A
:1037000064FF002801D000880190607AFEF75DFF19
:10371000002800D007881FE00CFE00000108000010
:10372000A865FC07FB64FC07C848FD0700200050A3
:10373000002C005000E100E080E200E0FC64FC07A7
:103740000065FC07E84BFD075877FD07007701008F
:103750005876FD0714E13EE0E07BFEF736FF0028D7
:1037600000D00688FA48217A8170617AC170FDF72D
:103770006DFE002000900322E178A078072312025A
:10378000FDF719FC002000906179207905230022C3
:10379000FDF711FC002000900623E179A079DA0101
:1037A000FDF709FC012000900322617A207A0823AA
:1037B0001202FDF700FC607B002808D0002000907A
:1037C0000122E17BA07B00235202FDF7F4FB60782D
:1037D000012803D008E0FF202880D1E0637A227A14
:1037E000E17AA07AFEF7D3FEDA48FEF73FF8627A74
:1037F000217AA07AFEF7D9FE2880607B00280DD0C0
:1038000000200090FF20F5300099491C0091814272
:10381000FADBE17BA07BFDF7F7FB2880E078FEF781
:10382000D4FE002801D0039901806079FEF7CDFE17
:10383000002801D002990180E079FEF7C6FE002839
:1038400001D001990180607AFEF7BFFE002800D008
:103850000780A07BFEF7B9FE002800D00680FDF7A8
:10386000C8FD8DE000200190074606466179207969
:10387000FDF7D7FB0028AED0E178A078FDF7D1FBAB
:103880000028A8D0607B002805D0E17BA07BFDF755
:10389000C8FB00289FD061792079FEF761FCE178B0
:1038A000A078FEF75DFC607B002803D0E17BA07B65
:1038B000FEF756FCE078FEF788FE002801D000886D
:1038C00001906079FEF781FE002800D00788A07B78
:1038D000FEF77BFE002800D006889D49207B091D4D
:1038E00088810846FDF7FCFEE178A07809230022D4
:1038F000FDF741FB617920790A230022FDF73BFBAC
:10390000607B002808D0002000900122E17BA07B92
:1039100000235202FDF74FFB6078012803D1E17AC2
:10392000A07AFEF722FE8B48FDF7A0FFA07AFEF7F3
:1039300006FE2880607B00280DD000200090FF202C
:10394000F5300099491C00918142FADBE17BA07BB4
:10395000FDF75AFB2880E078FEF737FE002801D0FB
:10396000019901806079FEF730FE002800D00780C1
:10397000A07BFEF72AFE002800D00680FDF716FF88
:10398000FEF70EFC28464BF7C3F8002005B0F0BD4B
:10399000F0B518460F46014689B001236E4A6F48BC
:1039A00058F706F905900020089038780A215AF750
:1039B00003FB02910190BE78FD783C7978790690FE
:1039C0000198FDF72EFB002801D10120089078789E
:1039D000002806D0012806D0022807D0032812D1DB
:1039E00007E0002707E0FF27013704E001277F02F7
:1039F00001E003273F02012E05D80698642802D86B
:103A00000898002801D0FF2129E002990198FEF7CB
:103A1000A7FB002C57D02846514D002700280DD079
:103A20000128F0D10322172312020097029901986E
:103A3000FDF7C1FA002E19D0012218E0288A4008AB
:103A400040002882002301225202009741E0012217
:103A500000E0002202990198FDF7C0FA00210598C4
:103A6000017005984BF754F8002018E400220299E1
:103A70000198FDF7B3FA3B4908680090052000075C
:103A8000828808231A43828082886B4692081B78BA
:103A900092001A438280486803906B4606985873D8
:103AA00008A80897FDF7F2FE7D212046C90048438B
:103AB0002D49FDF7F4FE03A8FDF7FBFE288A01213E
:103AC00008432882CAE7012D0AD0002000233A4685
:103AD000009002990198FDF76EFA002EB9D0B6E772
:103AE0000120F3E770B518460D461B4A0146012335
:103AF000521C1A4858F75CF8044628780A215AF7ED
:103B00005BFA05460E46FDF78CFA002809D03146CF
:103B10002846FDF779FA207020464AF7F9FF002081
:103B200070BDFF20F7E770B518460D460A4A0146FA
:103B30006423921C094858F73BF80446642229463E
:103B40005AF7B4FA20464AF7E3FF002070BD0000A0
:103B5000B464FC073075000012FE0000010800008C
:103B6000003400504C62FC0780841E00F8B51846F3
:103B70000E4601460123E04AE04858F719F831782B
:103B800001240025052920D004291ED003291CD09A
:103B900002291AD0012918D0002916D004704AF73A
:103BA000B7FF49F72DFC00950098401C0090C828ED
:103BB000FADB377808220B26D148D2493B005AF766
:103BC000C9FA0616120E0B08060B0570E7E71A2253
:103BD0000AE004700D700EE002700E700BE011220E
:103BE0000270062206E0342202700C7003E06822A4
:103BF000027003220A700322097800783EF792FDD2
:103C000000203EF7EBFD3EF7B1FD0020F8BDF8B512
:103C100018460C46B84A01460123921CB74857F78C
:103C2000C7FF0090002520780A215AF7C5F964786B
:103C300007460E46012C00D90125FDF7F2F90028B0
:103C40003146384607D0FEF78BFA002D06D0009893
:103C5000FF2101700AE0FEF783FAF8E7AA4807702F
:103C6000AA480670AA480470FEF728FD00984AF793
:103C70004FFF0020F8BD70B59F4A19460123521C22
:103C80009E4857F795FFA34900224B8801234B809C
:103C90000B889B089B009B1C0B800C8804231C43F7
:103CA0000C80FF240B3404E00223521C5B1CA34253
:103CB000FCDB0B885B0701D5642AF5DB0988490723
:103CC00001D5FF2100E0002101704AF721FF00200B
:103CD0003CE7F8B518460E46874A01460123D21C38
:103CE000864857F765FF00250570044637780120A0
:103CF0000522894E0003120708238849012F08D0A6
:103D0000002F20D0FF20207020464AF701FF00201E
:103D1000F8BD35600D88012635430D804D89AD0510
:103D20000D8801D5054300E085430D80088878257E
:103D3000A843283008800888062528430880508A30
:103D400018435082E0E7AA2535608D88F026B543F8
:103D5000B0358D808D8803263602B5438D808D88E1
:103D60002D092D018D808D880126B60235438D8069
:103D70008D88760035438D808D8805438D80508AEF
:103D8000984350821420FCF739FD1420FCF70CFDF9
:103D9000BAE7594A10B5194601230832574857F770
:103DA00007FF002101704AF7B3FE5D4908204880F3
:103DB0005C48012141800521018001880906090E26
:103DC000FBD1002010BDF8B50E46069C01680746E1
:103DD00000250819904201D901250FE0002B07D0DA
:103DE000306802199A4200D9022522465AF75EF934
:103DF0003868001938603068001930602846F8BD0E
:103E0000F0B587B004460390C8180491029010885A
:103E1000154607190020002927D0022000903B46B4
:103E200003A904A8029AFFF7CEFF002818D104982E
:103E30003B460678A01C03900120009003A904A82B
:103E4000029AFFF7C0FF00280AD1B006000EE11C5D
:103E5000039100903B4603A904A8029AFFF7B3FF21
:103E60000399091B298007B0F0BD88211180FAE76A
:103E7000F0B587B00646C81802AF43C7108815468C
:103E80008019019000200C46002924D001270097BA
:103E900004A903A8019B029AFFF795FF002816D1F9
:103EA000601C0390009704A903A8019B029AFFF7E6
:103EB0008AFF00280BD16078A41C8006000E0090B9
:103EC000039404A903A8019B029AFFF77CFF0499BD
:103ED000891B2980C7E700211180C4E7002809DB7E
:103EE000C106C90E012088400F490860BFF34F8FFB
:103EF000BFF36F8F7047000015FE0000010800003F
:103F0000E94BFD07EA4BFD07FD64FC07FE64FC0777
:103F1000FF64FC07001600502448FD0720000050F5
:103F2000003300500031005080E100E0F0B413464F
:103F30000246002528462C4C2C4E0AE0C700E75BC1
:103F40009F4205D1C00000194468002C11D103E044
:103F5000401C3778B842F1DB0020254C254E0DE09F
:103F6000C700E75B9F4208D1C00000194468002CDD
:103F700007D0A446F0BC18466047401C3778B842CA
:103F8000EEDB2846F0BC7047F8B5FF222D321A4907
:103F90001A485AF78BF80020184B1949194C08E0B9
:103FA0000C224243D5181219C4CAFF352D35C4C599
:103FB000401C0A789042F3DB0020134A0CE00C7896
:103FC0000C2524186C43114E4543AD19E418E0CD7F
:103FD000FF342D34E0C4401C1478A042EFDB0C48C1
:103FE0003A21C3624185F8BD7062FC078062FC071C
:103FF0007061FC074862FC0714EBF107F04BFD070A
:104000006C62FC075462FC076C61FC072860FC07CB
:10401000FC76FD0710B51946FD22022312020E4858
:1040200057F7C6FD90214170002101704AF770FDDD
:10403000002010BD10B519460323084A064857F75B
:10404000B7FD91214170FF218170002101704AF775
:104050005FFD002010BD00000108000001FD000010
:1040600070B50E460446002203214DF774FC054648
:104070004EF740FE688028464DF77EFC4EF73AFE2C
:104080007188884200D30846014620464DF75BFD03
:10409000002070BD0246FB4B92009A580120126925
:1040A00000290ED0517F5E239B5C002B0BD005298D
:1040B00006D1517E090702D5917C090700D4002062
:1040C0007047917DEFE70229F9D00429F7D005293F
:1040D000F6D10020EDE7024630B59300E94A012011
:1040E000D2581269137DD47E157F2340547D2C4015
:1040F000012901D0022909D1957C527E15402A0759
:1041000004D41A462243D20700D10020032901D04B
:10411000042904D1590702D4610700D4002030BD1E
:10412000FFB5160AD84CB500615910460A8B012319
:104130009B0281B01A430A8357F7EFFE002852D042
:10414000132850D014284ED0152811D060592D2195
:104150000B5C0122D90600290DDA0146A0318F7DC2
:10416000002F08D08A753D21304642F743F93AE0E6
:10417000022005B0F0BD190703D50021A0308175DC
:10418000F6E7A0308275029801228178437809020F
:104190001943401C1B39E12900D30022C1788378E0
:1041A00009021943B94BFF39801C4939994200D3A0
:1041B0000022C178877809023943801C1B39E12924
:1041C00000D30022C178877808023843FF38493885
:1041D00098420AD2002A08D030463FF705FE304602
:1041E00002993FF744FE0020C3E71E221421304607
:1041F0003FF7BEFB60590121028B89028A4302838B
:10420000F1E710B50446A248008D8007800F012811
:1042100000D000206071002807D054F7E7F901466C
:104220000622A01D59F742FF10BD06229949A01D84
:10423000F8E770B5054600243EF79DFB2855641C41
:10424000082CF9DB70BDF8B502270770012604467B
:1042500046700D4688799049C96988472A210855D2
:10426000287900210007000FA070030059F772FFA2
:1042700007050709100D100B1000A1700AE0A670C9
:1042800026E0032002E0A77004E00420A07001E013
:1042900001281DD0A888000A801FC0B2A0721F2864
:1042A00000D9A17228463EF71BFC811D2046A27A48
:1042B0000B3059F7FBFE28463EF712FC014606225A
:1042C000201D59F7F3FE28794006C00FE070F8BDB5
:1042D000A172F0E7F7B544688CB025462435039504
:1042E00005460746243548F70FFD06464420405B47
:1042F00052214843694909684018C03040896946DD
:1043000008840121384643F73EFC48F772FB0990C8
:104310000E9800698088000AC10061480818298940
:1043200040185F495B3159F747FE01466868039DB5
:1043300047184035288906900090A0680099381ADF
:104340004001400959F738FE0A910098C019401AF7
:10435000400140096946A060098C4900C919891CBF
:1043600049014909884204D2069940184001400990
:10437000A06001460998081A40014A49400988424C
:1043800015D900202B89A268401CD218520152096D
:10439000A260EA89521CEA81A368099A9A1A52011A
:1043A00052098A42EED801B20D9843F78DFCA168FC
:1043B0000998081A4201607D5209824210D82A8960
:1043C000891849014909A1602A890A99511A81422B
:1043D00006D901210D9843F777FCE889401CE88154
:1043E0002989A06859F7E8FDF1802889B080208AE2
:1043F0003081A88870810020B081C807C00FB073D9
:10440000A888522148438E303082304648F787FCD6
:104410000398466320460FB0F0BDFFB51C4900204D
:10442000496801240A7893B0064621460C2A0CD02C
:104430006A46117300221192002E09D0159902913B
:10444000169D1F2D66D9402064E000242246119459
:1044500013990291149DF4E702998918497801296A
:1044600005D0172903D0182901D0192924D1631E9A
:1044700004E003AFFF5C8F4216D05B1E5BB2002BE3
:10448000F7DA15E02C7EFD071879FD07010700001B
:104490004C7EFD07CF79FD07B47FFD074C76FD0705
:1044A00016020000FFFFFF03002B01DB4A2003E0A0
:1044B00003AB1955641CE4B20B0059F74BFE1D26E3
:1044C0001010101010101010102626262626262652
:1044D0002626262626261010101010102600119BC6
:1044E00003E00BAFFF5C8F4204D05B1E5BB2002B7E
:1044F000F7DA03E0002B01DB4A2006E0119F0BAB4B
:10450000D9551199491CC9B211910299895C521C63
:1045100089188AB2AA4201D200289DD0AA4200D0AE
:104520004A20761CF6B2022E01D2002882D017B0A3
:10453000F0BD10B50022134607E084186478012C02
:1045400007D0845C521CA21892B28A42F5D3184656
:1045500010BD80188378FAE7F0B50646A9B0154675
:10456000002084006318DA789F7812025B783A435F
:1045700052BA1B041A430B5D07241B061A43231A65
:104580009F0020AB401CDA510828EAD300218A00A2
:1045900090190746C37880781B02034378785BBA8A
:1045A00000040343B05C10AA00060343601A8000B5
:1045B000135038462230437800781B0203433846B4
:1045C000203047785BBA3F0400783B430006034342
:1045D0000F27781A8000491C13500829D7D358F7A1
:1045E000F9FB0146304659F772F800282DD058F7EC
:1045F000F1FB034620AA10A9684659F773FC002274
:104600006846A11A8B009600C75C7119CF70C75A13
:104610003F0A8F70C7583F0C4F70C35820311B0E94
:10462000AB550F239B1A9B00C65CCE70C65A521C1A
:10463000360A8E70C658360C4E70C3581B0E0B705F
:10464000082ADED3002029B0F0BD0120FBE7F7B532
:1046500000251746064641232A4629460A2057F7D1
:10466000A7FA0446002E10D0012E02D0022E0CD143
:1046700005E02022611C00203EF796F904E0621C50
:10468000394601983EF740F92070204657F7A9FABD
:104690002846FEBDF8B5FF48009007680C46002F7D
:1046A0007BD005461C35287E002876D0012802D014
:1046B000022872D102E02078002819D03889F64902
:1046C000002688423AD1072047F716FF002835D048
:1046D00042233E220021F14857F76AFA082101706F
:1046E0002178002913D0032141702178817043E0A3
:1046F000E8480226611C14302E762022044659F721
:10470000D5FC2246E64930463EF708F945E000214F
:1047100046701F22531A1B1947185B78491CBB703F
:104720002029F7DB00213F22531A47181B19203795
:104730005B78491CBB702029F6DB1DE0D64938891F
:10474000491C88421AD1082047F7D6FE002815D008
:1047500022233E220021D14857F72AFA092101706D
:10476000217800291BD0122141700021FF2243181B
:10477000491C9A702029FADB4AF7CAF92E764020A4
:1047800057F799FE00983EF7CDF957F754FA00987D
:104790000068002801D03EF7BCF80020F8BD0021D9
:1047A00046701F22531A1B1947185B78491CBB70AF
:1047B0002029F7DBE0E770B5087800250C460128D2
:1047C00009D01D2810D02B2812D04022194652F7AC
:1047D000AFF9284670BD57F758FDB248012504606F
:1047E000B14853F738FDF4E7B0483DF7FBFFF0E779
:1047F000AF4801680029ECD101210160AD483EF7C6
:10480000F7F8E6E770B5A44DAB4C223DAB4217D1AB
:10481000A24809232A460021C01E57F7C9F90446B9
:104820000822A649401C59F741FC20790821084379
:1048300020710025257020464AF76AF9284670BD88
:10484000A04770BDF1B584B004989D4980000C5814
:1048500004980502A81D0290002C15D0606881887C
:1048600004290CD34188861D0C38009101903146F3
:10487000049854F7C6FA9349884206D160680C3808
:1048800057F7D9F90020606073E4F178B2780F022D
:10489000019928431743C880384640383F2819D823
:1048A00003223946049850F733FB0600E6D0B07B6C
:1048B0000128E3D13420B07329460A310423824809
:1048C000029A57F775F9B18941801021017057F7A5
:1048D00088F9D3E76168342008700221009857F7FF
:1048E00059F805463146009A59F7E0FB687829786F
:1048F000000208436168C880E878A978000208438C
:104900006168062F08810BD0042F09D06068052F3D
:1049100010D00C3857F78FF9284657F7B6F8B1E79B
:1049200060688188052913D32979817261682879A3
:1049300088720DE0818805290AD32979817261681E
:104940002879887260688188062901D36979C172E3
:10495000606857F746F9DFE7FFB587B00E4609985C
:1049600057F7DBFA0999090A0391002876D08800E5
:10497000534905900D585549B079096B0A225043A7
:10498000B47808183EF7ACF801906868002808D0A1
:10499000012C2DD00398FFF755FF6868002802D03E
:1049A00026E0022C5AD1B0880127022805D30198AD
:1049B000417800780C02044302E04EF79BF904466C
:1049C0004EF798F9A04201D20224002720464C302D
:1049D00083B23C493E48099A57F7EAF8241D6860BB
:1049E0004480002F01D0002000E034206968087066
:1049F00068680028BAD0811D0091B2880199841C92
:104A0000071D01928088238882189A4209D8009A4B
:104A10008018019A59F74AFB39880198081838809C
:104A200009E01A1A009BC01859F740FB208838800B
:104A3000696834200870388804280FD300984178BA
:104A40000278080210432188001D884207D280B2F4
:104A500020803988814207D9388002E086E0884288
:104A600002D96968342008703888218888427DD14D
:104A7000686800990C380190039854F7C2F9696886
:104A80000978002974D10F49884271D003990F0227
:104A900038431FE0287AFD072520000004080000A5
:104AA00089E7F1074C7EFD07030C0000C3C3C3C3B5
:104AB0005077FD07CC7DFD070DC3F0075CE5F107DE
:104AC000AC7DFD07FFFF0000260E0000E078FD072B
:104AD000010A00000199C88020880221019056F740
:104AE00059FF04902288009959F7E0FA04980028A9
:104AF0003CD0696800208880019802226B460399A7
:104B000007C36868049B821C011D801D3DF7C2FE1F
:104B100069680870049856F7B8FF686841880029EA
:104B200002D00178002956D0018940393F2946D862
:104B30000178302920D00146F64A05980C391058E2
:104B400008303EF70BF869680398891D3DF7B3FEFE
:104B500046286868018921D00322039850F7D8F9C4
:104B600000282ED0808A00282ED02AE047E0FFE7D8
:104B70000398FFF767FE42E0E749098D0906C90F70
:104B800007D0E6490C380968099A898D89B257F728
:104B900045F868680C3857F74EF812E0032203987E
:104BA00050F7B6F904000CD039460A310423DC482A
:104BB000099A56F7FDFFA18941801021017057F72E
:104BC00010F8002068601AE06868002201890398E4
:104BD0003DF76CFEF5E70189084640383F280ED8BE
:104BE0000322039850F794F9002808D0808A0028FF
:104BF00005D168680022018903983DF757FEB07916
:104C00003DF761FF00200BB0F0BDFFB58BB006464D
:104C100016980027022821D00D9801881498814207
:104C200078D37188084640383F2802D8159850F745
:104C3000B0F90C98361D0088149A80190E9959F70E
:104C400035FA0C980188149808180C9908800D986A
:104C500001881498081A0D99088058E100200E9DCB
:104C6000079069782C78090221433180E978AC7883
:104C70000902214371808C46403904242D1D0246CF
:104C800003468E46402900D32878614604291FD068
:104C9000052914D0062918D070463F283DD815980C
:104CA00050F777F90006000E04D09B48008D0006EF
:104CB000C00F30D0022301209A4A002712E0697801
:104CC00000290FD0984A17230CE0984A0F2309E0D7
:104CD000522802D0D22802D002E0142000E0152091
:104CE000934A1F23002A7DD098427BD2800010581F
:104CF00004900028F7D00020089005907088403874
:104D0000402803D32878052430716D1C701D009055
:104D10000498AFE0FAE03027ECE03327EAE05228CD
:104D200063D00CDC4B283FD004DC412869D04228FA
:104D300059D111E04C2820D0502854D140E06328AC
:104D400030D004DC572818D061284CD19AE06C2868
:104D500063D0772847D109E000982978017000983E
:104D6000641C401CA4B26D1C009080E00498401CA0
:104D7000049001780898814279D10098A41C401CC5
:104D800041084900881C009068782A780002104386
:104D900008800599AD1CA4B2002968D008900020B5
:104DA000059064E00120FBE710222946009859F79E
:104DB0007DF9009810341030A4B21035009056E000
:104DC000204640301499039088420CD8402229464E
:104DD000009859F76BF900984030009003984035DF
:104DE00084B244E077E0342741E008222946009865
:104DF00059F75CF9009808340830A4B208350090DF
:104E000035E006222946009859F750F90098A41D6C
:104E1000801DA4B2AD1D009029E01498001B80B243
:104E200003903088001B001D81B201200790049878
:104E3000401C04900098401C4008400000900498DA
:104E4000007857281CD04228CDD100980170090A5B
:104E5000417000982946801C0090039A59F726F962
:104E600003980399201884B2009840180090049881
:104E7000401C04900078002820D0002F19D01DE09D
:104E80004908E2E71498001B80B203900098039A47
:104E9000401C4108490001200091079029460098D4
:104EA00059F704F903980099201884B20398081858
:104EB000DCE70D990988A14200D330E70D980088FE
:104EC000A04208D304990978002904D10799002940
:104ED00003D1A04201D034270CE00D99001B0880BB
:104EE0000C9801880098801B001F08180C99002F4F
:104EF00008800CD07088042809D0062807D04038D4
:104F0000402804D30E984079707100E03427384669
:104F10000FB0F0BDAC7DFD074C7EFD075876FD0758
:104F2000260E000014F3F1071CF3F10778F3F107E4
:104F3000B4F3F107FFB581B01F4616460C46104684
:104F400056F7EBFF00253F2802D02189062908D01B
:104F50003B4632462146019850F7A7FB05462846B6
:104F600092E4000701D50225F9E720780028F6D160
:104F7000300AA11D3DF7A9FBF1E7F3B581B0019817
:104F8000264C850060590F464068CE880146243182
:104F9000009143F7CBF90099214A40310091C9892A
:104FA000701A80B2904214D2B14212D06059314688
:104FB000406842F774FA60590522791C1F3059F78E
:104FC00075F8019805210002401C80B256F773FF66
:104FD000FEBD60590522791C1F3059F767F800980B
:104FE00080883EF74FFAFEBD10B558220D490E4895
:104FF00059F75CF80B492C222C390C4859F756F814
:1050000009480B49A03001600649543941600649FE
:1050100008482039086010BD704700001879FD0766
:10502000FF7F0000D862FC0720000840C000FC079A
:105030008CBFF107FF071000F0B5374887B0018932
:1050400006914188354D0591A9890491698B344AAF
:10505000C9B212880392334AD289334C0292228811
:105060000192C2880092314A0126038976037711A2
:10507000BB4303814388B7103B434380A889000AA0
:10508000000296310843A88125483821018025482F
:105090000027C781107800280DD025482188006896
:1050A0007211114321802188090A09024030007DD4
:1050B0000143218002E0142000F026FA184887807E
:1050C000018801880122114301800188C907FCD0B1
:1050D00000E0761E0188C90701D0002EF9D1878033
:1050E0000D49069A0A81059A4A80049AAA81039A70
:1050F00002800C4B029ADA81019A2280009ACA80BF
:10510000002E02D0012007B0F0BD018849084900F7
:1051100001800020F7E70000002C0050002500501F
:105120000022005000240050002000504063FC0783
:105130004C76FD07F0B5324885B00188039141886F
:10514000029130490989304B019119882F4C009107
:1051500027882F49CE8803256D022E490022028020
:1051600022224280FF222748D13202812C221A803B
:105170000878FF21013100280CD0274822880068D8
:105180000A4322802188090A09024030C07C014379
:1051900021800AE02088084320802088000A00023D
:1051A00013302080132000F0AFF9174800218180D0
:1051B0000288028801231A4302800288D207FCD0A9
:1051C00000E06D1E0288D20701D0002DF9D1818048
:1051D0000B49039A0A80029A4A800A4A019911816E
:1051E0000099018027800A49CE80002D02D001203D
:1051F00005B0F0BD01884908490001800020F7E7AB
:105200000024005060280050002200500020005070
:10521000002C00504063FC074C76FD0730B5644815
:1052200002880321490234230380002383800488F9
:10523000048801252C4304800488E407FCD000E0A6
:10524000491E0488E40701D00029F9D18380028037
:10525000002901D0012030BD0188490849000180A2
:10526000002030BDF8B5534C6088C6076088F60F43
:10527000C005C50F60884008400060806088FF2737
:105280000137B8436080FFF7C9FF002805D0FFF75A
:1052900051FF002801D0FFF7CFFE6188A188618807
:1052A000490849003143618061882A02B9431143AA
:1052B0006180F8BDF8B53F4C6088C6076088F60F7E
:1052C000C005C50F60884008400060806088FF27E7
:1052D0000137B84360803DF773FB3DF777FB002251
:1052E000082102203DF766FB002800D001206188DC
:1052F000A1886188490849003143618061882A0298
:10530000B94311436180F8BD70B501252A492A02CD
:105310000A60BFF34F8FBFF36F8F28490A60284997
:105320000B681C0A240240231C430C60224980396C
:105330000A6020494C880626B443241D4C804C88C2
:105340002C434C804C8838252C434C804C889C4303
:105350004C8001280FD14888330218434880488880
:105360001043488048882A02104348804888012218
:1053700092039043488070BD10B5124CE18A124AE6
:10538000CBB21189248BC904890E6404640E001BFE
:10539000093141430120C002401A80B25843400302
:1053A0001189000E090A09020143118110BD000094
:1053B000002200502020005080E100E080E200E068
:1053C00008E400E000230050002C005010B50F4905
:1053D000032056F73EFD0021032056F76CFD10BD5B
:1053E00010B5044601230A4A00210A4856F7E0FB9B
:1053F00009498C4201D1032103E008498C4201D1C3
:105400000021017049F784FB10BD00003063FC07E8
:1054100011FC000001080000A5A5A5A5C3C3C3C3D6
:10542000F8B5020205464123092134480A3256F7ED
:10543000BFFB27210170044600201F233049AA002A
:105440008F581E1A4936BE5D2718401C7E702028D2
:10545000F6DB00203F238E581F1A4937F65D2718C8
:105460002037401C7E702028F5DB57F7B3FC01463F
:10547000601C58F72CF9002812D10A2000906A46C7
:10548000052128464EF720FC28464FF705FC0099D9
:1054900060221143CAB20146012328464EF77EFB23
:1054A000204656F79EFBF8BD70B5054604460089B8
:1054B00014490C3488B088421AD100201F216E464E
:1054C0000A1AA25C3254401C2028F9DB2022314603
:1054D000204658F7EBFD00203F210A1AA25C325407
:1054E000401C2028F9DB20226946A01858F7DEFD71
:1054F000284645F7FAFE08B070BD0000270D0000F1
:105500002C7EFD0726200000064A4108515CC20798
:10551000054801D0090901E00907090F1031C180D0
:1055200070470000BC4EFD07002C005010B50C4623
:105530000123FE4A0021FE4856F73AFBFD4A217836
:1055400011700021017049F7E3FA002010BD10B579
:10555000F64A0C460123521E0021F54856F728FB57
:10556000F54A217811700021017049F7D1FA002025
:1055700010BD10B5ED4A0C460123921E0021EC48E7
:1055800056F716FBED49A288CA8722884A870A4641
:10559000E3884032138062888A870021017049F7CE
:1055A000B7FA002010BD10B51A4682230021E0484A
:1055B00056F7FEFA1121017049F7AAFA002010BD32
:1055C000DA4A10B50123413A0021D94856F7F0FADA
:1055D0001121017049F79CFA002010BDD34A10B583
:1055E0000123403A0021D24856F7E2FA1121017016
:1055F00049F78EFA002010BD10B51A46022300218B
:10560000CB4856F7D5FA1121017049F781FA0020ED
:1056100010BD10B51A4601230021C54856F7C8FA37
:105620001121017049F774FA002010BD10B51A4617
:1056300001230021BE4856F7BBFA1121017049F73A
:1056400067FA002010BD10B51A4682230021B84821
:1056500056F7AEFA1121017049F75AFA002010BD31
:1056600010B51A4682230021B14856F7A1FA00214D
:1056700041701121017049F74BFA002010BD10B59F
:105680001A4601230021AA4856F792FA1121017007
:1056900049F73EFA002010BDA44A10B50823333A5A
:1056A0000021A34856F784FA0446031DC21C811C3E
:1056B000401C56F755F80146002000290BD0112157
:1056C00021706070A070E070A080E080204649F7F3
:1056D0001FFA002010BD2070F7E77FB508460C3890
:1056E00056F7A9FA56F751FA00246D460390204662
:1056F00056F745FA61004919641CE4B24880042C4D
:10570000F5D38A4A1023313A0021894856F750FAD6
:105710006D461ECD1EC000211038017049F7F8F902
:10572000012004B070BDF8B5804A0F4608230A3A3C
:1057300000217F4856F73CFA814D0446286B6E12D3
:10574000B043304328637F493888496A884760609E
:10575000286BB04300212863388860802170204680
:1057600049F7D6F90020F8BDF8B5704A0D46042374
:10577000093A00216E4856F71BFA714E0446306B09
:105780007712B843384330636E4A2888926A696852
:105790009047306BB84300213063288860802170C7
:1057A000204649F7B5F90020F8BD70B518460D46FA
:1057B0005E4A01460123323A5D4856F7F9F904463C
:1057C0002878002802D0012805D101E05E4800E0D9
:1057D0005E483DF707F812202070204649F798F9F7
:1057E000002070BD10B518460C46504A01460823EB
:1057F000133A4F4856F7DCF921880122920789189D
:1058000009684160218841800021017049F780F9D1
:10581000002010BD10B518460C46444A014604232A
:10582000123A434856F7C4F9228801239B07D2183D
:1058300061681160218841800021017049F768F991
:10584000002010BD10B51C46084646F74EFE374AEC
:105850000123113A2146364856F7AAF90021017072
:1058600049F756F9002010BD70B50C881846164649
:10587000082C00D30824CA788B781502522254438E
:10588000334A1D431368E31880331D830B79116875
:10589000611880314A8B120A12021A434A83234A42
:1058A000014601230E3A224856F782F90021017081
:1058B00049F72EF90021304656F7FDFA002070BD59
:1058C00010B588781C46002801D0012200E0002293
:1058D0000888114640F7D2FD144A01230D3A2146AB
:1058E000134856F765F90021017049F711F90020B6
:1058F00010BD70B518460C460C4A014601230C3AFF
:105900000B4856F755F9227852214A431049002393
:105910000D685219C0321382227852256A430D68ED
:105920005219C03253822278522413E043FC000003
:1059300001080000B476FD07DD76FD07A479FD07B8
:1059400040000040B47FFD07C3C3C3C3A5A5A5A500
:105950004C76FD07096862435118C0318B820021E3
:10596000017049F7D5F8002070BD70B518460C4697
:1059700001460123314A324856F71AF9227852215A
:105980004A43304900230D685219C03253812278AE
:1059900052256A430D685219C032938122785224ED
:1059A000096862435118C031CB810021017049F769
:1059B000AFF8002070BD70B5184616460D461F4A58
:1059C00001460123D21C1E4856F7F2F804462888E7
:1059D000082800D3082042F79BFC002805D00021AE
:1059E0002170A9786430017701E0122020702046F0
:1059F00049F78EF80021304656F75DFA002070BD59
:105A0000F8B50E4610491C4615460020C2008A5AB9
:105A1000A24209D1C00040184768002F07D02A468B
:105A200031461846B84702E0401C1928EED32246FA
:105A300031462846FEF77AFAF8BD000038FC00002F
:105A4000010800004C76FD075863FC07F0B51FB451
:105A50000646002082B005464024019100901BE0DC
:105A6000019922460F46304600F0C8F8049A059B7B
:105A7000801A994110D310461946224658F75AFB0E
:105A8000361A8F410197224601200021009F58F7C6
:105A900051FB38184D4100902046641E0028DFDC81
:105AA000019B00982946324607B0F0BD03460A78AC
:105AB0000270401C491C002AF9D118467047024662
:105AC00070B54A40D30FDB0740002DD04A002AD0E2
:105AD000010E140E000212020919400A520A84181B
:105AE000E50104465443000A120A2E045043A41947
:105AF0004219200CC543AA18120C0125AD03521CF3
:105B0000521912047F39240400D0521C104301D4CE
:105B10004000491EC2B20C06C0092018401C4008B3
:105B2000802A02D003E0002070BD40084000002918
:105B300000DA0020184370BD70B502464A40D50F08
