:0200000407FCF7
:10000000E87CFC077105FC077905FC079105FC07F6
:1000100000000000000000000000000000000000E0
:10002000000000000000000000000000A905FC071F
:100030000000000000000000AB05FC07AD05FC0758
:10004000631DFC07BF1DFC071D27F0075D1AFC0799
:10005000ED1BFC07AF05FC079313FC07AF05FC077E
:10006000AF05FC07AF05FC072512FC072912FC07AA
:100070002D12FC073112FC073512FC07AF05FC07F7
:100080006D12FC07AF05FC07AF05FC07AF05FC07C9
:10009000AF05FC07AF05FC07AF05FC07AF05FC0784
:0200000407FCF7
:100510000448854606F068F9004800474508FC078E
:10052000C046C046E87CFC0710B50F49062008808D
:100530000F2000F00CF8012000F009F8002000F076
:1005400006F8002005210907088062B610BD0028C2
:1005500009DBC106C90E0120884004490860BFF3C9
:100560004F8FBFF36F8F70470034005080E100E081
:100570000F4880470F48004704207146084203D0C7
:10058000EFF309800C490847EFF308800A49084750
:1005900004207146084203D0EFF309800749084759
:1005A000EFF3088005490847FEE7FEE7FEE7FEE7B0
:1005B0002905FC071105FC072906FC07C105FC07F6
:1005C00005221207518A8023194351821349036877
:1005D0000B6043684B6083688B60C368CB600369C2
:1005E0000B6143694B6183698B61C369CB610862AD
:1005F0000B48836A4B62C36A8B62036BCB62C36B2B
:100600000B63436B4B63806B88630649082008804B
:10061000908A800601D500BE7047FEE70000FD0706
:1006200000ED00E000330050052109070A8A042389
:100630001A430A820A8A02231A430A820A89402339
:100640001A430A811B4B01221A601B4B08221A8095
:100650004A8A80231A434A82184A0368136143680E
:10066000536183689361C368D3610369136243690B
:10067000536283699362C369D36210631048836ACB
:100680005363C36A9363036BD363C36B0B4A4032F8
:100690001360436B5360806B9060888A800608D536
:1006A00000BE488A012280088000D203104348829D
:1006B0007047FEE780E200E0003300504000FD0795
:1006C00000ED00E0F8B503460C4601201546002178
:1006D0002B4E0246412B3BD00ADC012B16D00222C6
:1006E000072B26D0402B23D12078022824D32AE0C0
:1006F000422B33D0432B37D0442B19D120780028FC
:100700001AD01F48407B2870227010E006221D4935
:100710001D485DF7EFFC0627002802D006221A4983
:1007200001E00622B11C28465DF7C0FC27700020BE
:10073000F8BD2078022802D221700420F8BD30785C
:100740002870707802E0307A2870707A6870DBE781
:1007500020780028F0D00A48807AD4E72078002852
:10076000EAD00748C07ACEE720780028E4D0307B72
:10077000C9E7002070470120704701207047000042
:100780002A68FC0790E1F1070842FD07F8B5022846
:1007900001D003284ED1974A136904210B431361FA
:1007A00005242407628A20239A436282228A022334
:1007B0001A432282904E0027102202287578608A00
:1007C00039D010436082608A084360827068C01C20
:1007D00083088A480760628A40210A436282628AEB
:1007E0008A43628247618649816201210904C162AC
:1007F000218880200143218000970099491C0091A5
:100800006429FADB618A1022114361827B495B1EF5
:100810004B6121888143218003205BF753F8002836
:100820000CD00120F070208A0F2109028843290290
:1008300008432082F8BD90436082EDE7F77030787E
:100840000543F0E708B500F080F800F09EFA0525B2
:1008500000262D07042709E00421684600964CF77E
:10086000C9FB002814D000F007FA11E0288900061F
:100870000ED501208007006B000409D46148007880
:10088000C00705D15BF7A9FD5F4800780428E3D0D5
:1008900072B601F027FB042806D002280BD00328EB
:1008A00009D001284BD04BE058480078012801D0EE
:1008B000032000E00220694608700446288A384375
:1008C00028822046FFF762FF022C01D0032C18D1AA
:1008D0004F484188FF2201329143418041880122E3
:1008E0001143418000960098401C00901428FADBC8
:1008F000688980088000401C688168894006FCD5B2
:100900006E80A88A800602D542490820088030BF40
:10091000A88A800602D53F49082048803648C0781A
:10092000002807D03C48006801898AB2416803204A
:100930005AF7A2FF2F480169B943016100E030BFB7
:1009400062B6C8203549088090E7F0B53448354E86
:100950000827354A354BB04201D3394608E090426A
:1009600001D30C2104E0984201D30E2100E00F21B5
:100970002F4C304D204864192F4D8170641901258A
:10098000ED034460AC4201D8012406E00325AD0329
:10099000AC4201D8032400E00F240C434470274CE0
:1009A00031468C4223D2264D26467519944205D3F2
:1009B0008D4201D204271AE00C2718E09C4209D38B
:1009C000954201D2022712E08D4201D206270EE0A5
:1009D0000E270CE09D4201D2012708E0954201D28A
:1009E000032704E08D4201D2072700E00F2707709C
:1009F000F0BD000000ED00E0DC41FD070000F40761
:100A0000204F101A5877FD072C43FD07B477FD07D8
:100A100020000050003300505876FD070031005090
:100A2000DC41FD070000FD0700C0FC070080FC075B
:100A30001005FC0788710000000004F8E87CFC0742
:100A40000C040000704770B50D46002441F793FF79
:100A50002855641CE4B2202CF8D3002070BD10B5DA
:100A60005DF712FB10BD10B55DF717FB10BD7047A9
:100A700070470749884200D000BE05210907488A0F
:100A8000012280088000D203104348827047000092
:100A90001111111124480178002902D080214170E0
:100AA00070472249002008702149C87070471E49CC
:100AB0000A78002A03D000280CD002200BE000287E
:100AC00001D0022000E001201849087018490120D7
:100AD000C87070470120803048707047002805D0EA
:100AE000012804D0022804D10120E0E7D2E7002049
:100AF000FBE770470C48C07870470020EFF3108187
:100B0000012282F31088052212071289120605D4E9
:100B10000848028901231A4302811846002900D09F
:100B2000012181F310887047E441FD07B477FD0788
:100B30005877FD070033005070B505200007018984
:100B40003022914301810189802211430181018971
:100B500089088900491C0181018908231943018101
:100B6000D3490C8814430C80448A9C4344820589F1
:100B7000402425430581058A0426B5430582858ADC
:100B8000AD07FCD5CB4E002575610E8801252E439F
:100B90000E804D89AE05C84D0E8801D52E4300E06C
:100BA000AE430E800D887826B54328350D800D881C
:100BB000062635430D80458A1D4345820B889343A5
:100BC0000B800289A24302814889800503D5B84978
:100BD00005206031888001208007016882159143DB
:100BE0000160B64801683F225202914342148918BD
:100BF0000160016802031143016070BD10B5B04986
:100C000000200968572901D9573908B2C10F0818BF
:100C100040103D21484300B2C10701D01F3000B24F
:100C2000A849884200D8084680B25BF763FC10BD33
:100C300010B59F494888C006040F48880122104318
:100C4000488048881E22904348809F484B0143803B
:100C50000523038003885B07FCD480884B8893437B
:100C600014334B804B885B085B004B804B8893436D
:100C7000620013434B8010BD70B594490120C863D6
:100C8000C86B0028FCD101208007C069894C002175
:100C90002269904200D22161A2780125002A04D065
:100CA000A1702061FFF7C4FF11E021691922411AE8
:100CB000D201914211D32061FFF7BAFFE188884247
:100CC00001D9411A00E0091A89B2182905D3E08038
:100CD00005F078FC002800D1A57070BD10B548F76C
:100CE000CFF810BD10B548F7DAF810BD714B0020F1
:100CF000197800290DD075490122CA63CA6B002AF0
:100D0000FCD101218907C969714A1268914201D257
:100D1000012070470021197070470020704710B5FE
:100D20006C4900200860FFF769FF01208007016B14
:100D300049004908016310BD08B55E4988805C49D7
:100D40004A8801231A434A80002200920099491CD4
:100D500000911429FADB052109074B899B089B00A8
:100D60005B1C4B814B895B06FCD5488019208001B8
:100D70000092521C00928242FBDB4889800880006E
:100D8000488148890006FCD508BDF8B55248C821FD
:100D900001800024448051480827478000F040F932
:100DA000434820304088C046C04642480121017077
:100DB0003F4860304188C908C90041803C4E718974
:100DC00089050AD54188C2130905090D8918418092
:100DD0004188782291434031418005252D0768885C
:100DE000002803D137488838FFF7A6FF70884008ED
:100DF000400070803A4804606A8A40210A436A824F
:100E00006A8A8A436A8244613649816201210904FF
:100E1000C162288880210843288000940098401CE3
:100E200000906428FADB002000F0C8FE2148203042
:100E300000F0D8F82C490A8A1E484281498A8181EB
:100E400000F098FE00F05AF804F04EF9012041F746
:100E500098FDFFF771FE2548006841F72BFA2448FA
:100E6000C47004710120800701688215114301607C
:100E700000F07EFBFFF70EFE02F0F0FE04F09BF99F
:100E8000FFF74DFF1B4913200860FF201A499130DE
:100E900008600B494F200860EC827088E02188438D
:100EA000A03070800C49C82008800C484780F8BDED
:100EB00020000050E841FD07001000000002004043
:100EC0003043FD07E204000000160050C00000405F
:100ED0009476FC07AC76FD070031005000330050DB
:100EE0000000F407204F101A00FEF8074C76FD07AB
:100EF0005877FD073443FD073843FD0770B5204C94
:100F0000204920465DF7EBF805211F4849025DF7AF
:100F1000E6F805F009FA1D480025058030221C4935
:100F20001C485DF7C3F81C481D4905701B48086044
:100F30001D491C4808601E491C4808601D490A20BC
:100F400008701D481D490570322008701C49052095
:100F500008601C4A012111601B4908601B490620DA
:100F600008601B49072008601A4908200860FF2014
:100F7000194907300860194908601948046070BDB4
:100F8000005CFD07781600000076FD071842FD079B
:100F900058ECF107FC76FD07F976FD07786AFC0747
:100FA0005076FD073868FC075476FD07BC69FC07DE
:100FB0005876FD07B476FD07B576FD07DD76FD07AB
:100FC0005C76FD076076FD076476FD076876FD07B1
:100FD0006C76FD077076FD074876FD074476FD07C1
:100FE0004C76FD0710B5062201495DF75FF810BD8C
:100FF000A8FFF8070520000701883022114301806F
:1010000001880322114301807047052000070188F1
:10101000302291430180018889088900018070474E
:10102000F0B585B000268C4C0296029828214843E2
:10103000009600190099890046500099491C0091BA
:101040000A29F7DB0298401C02900428EDDB03F02C
:10105000E1FF814D0021083D29606960012702966A
:101060000020009002997D484900465A0099384670
:10107000884080B206421DD002982821484300993A
:10108000001989004058411C1BD000280DD0C11701
:10109000009A5DF74FF8029A12015DF74BF82A6843
:1010A0006B6810431943286069600098401C0090E9
:1010B0000A28DBDB0298401C02900428D0DB05B034
:1010C000F0BD00BEE3E7F8B5164604460D460A46F5
:1010D0001F46012000215DF72DF822015DF72AF857
:1010E0005D4B083B1A685B6810401940084300D10B
:1010F00000BE032C00D10424594960014018690046
:1011000008183E43C680F8BD70B504460D460A4631
:10111000012000215DF70EF822015DF70BF84E4A21
:10112000083A1368526818401140084300D100BEC5
:10113000032C00D104244A49600140180121A94030
:10114000818070BD70B504460D460A46012000211D
:101150005CF7F0FF22015CF7EDFF3F4A083A1368A5
:10116000526818401140084300D100BE032C00D142
:1011700004243B49600140180121A940418070BD11
:10118000FFB581B00C4605460A461F4601200021E6
:101190000A9E5CF7CFFF2A015CF7CCFF2E4B083B81
:1011A0001A685B6810401940084300D100BE002E49
:1011B0002146284602D0FFF7C5FF01E0FFF7A4FF54
:1011C0003B4621462846039AFFF77DFF77E770B537
:1011D000012421460A3881400D4688B200F02CF8DF
:1011E00084402048C189A9430C43C48170BD10B517
:1011F00004460A3804280BD82046FFF7E8FF1649B2
:10120000A000A03140188038806D002801D08047B0
:1012100010BD002CFCDBE106C90E012088401249FC
:10122000086010BD0A20E2E70B20E0E70C20DEE7B3
:101230000D20DCE70E20DAE700280BD0411E4840E5
:10124000C003010C002002E04908401C80B20029C4
:10125000FAD17047102070472842FD07D26AFC0778
:10126000003000500014005080E200E010B5FFF79D
:10127000CCFE052000078188CA0B164918D0164BF2
:101280001A88520714D51A88D20711D0188802225A
:101290001043188018884008400018800C68002C03
:1012A00005D0985E0421595E0A229A5EA04710BDBF
:1012B0008088C006FBD5094802881206F7D50122AE
:1012C0008280028880239A43028048680028EED0FA
:1012D000804710BDDC42FD070002005000010050B5
:1012E00054490A880F239B019A43800102430A80D4
:1012F000704750490A880F239B019A43800102439B
:101300000A80704710B504464A494B4808800020BF
:101310004880062000F046F8204600F050F810BD46
:1013200044484649028802231A430280491E02D3D8
:1013300002889207FAD40021018140897047F8B5EC
:1013400005463F48006800906846FFF7DBFF142021
:1013500000F060F8002D01D0092000E00720FFF721
:10136000C8FFFFF7DDFF0446012000F053F8002618
:1013700068468670FFF7C6FF002D01D0092000E007
:101380000720FFF7B6FFFFF7CBFF2A4900190E80B1
:10139000F8BD2849012008812A480068002800D0AB
:1013A00000477047002809DBC106C90E01208840AC
:1013B00025490860BFF34F8FBFF36F8F704730B57B
:1013C00005001FD01B4C297820880122D2029043AF
:1013D000C9020843208028780128687813D0FFF7D5
:1013E0007FFFA97801208002002921880ED00143C7
:1013F000218009206080E97802200029618807D0D7
:101400000143618030BDFFF774FFEAE78143EFE7F6
:101410008143F6E70AE000BF00BF00BF00BF00BF86
:1014200000BF00BF00BF00BF00BF00BF401EF2D220
:10143000704700000015005001400000A086010028
:10144000DC6AFC07E442FD0780E100E0F1B592B000
:10145000644E65490496088AB41C0C9089220520C4
:10146000000702810122614B52031A800288802307
:101470001A4302800288920892000280088A02229F
:101480001043088200F019FE41F79AFA41F79EFADC
:101490000020694601E08888401C8880888891285F
:1014A000F9D3534801880991418810915149CA885C
:1014B0000F920A890E92C2880D92408B08904E4876
:1014C000408807904888069000F05BF80025B0B28D
:1014D0002B468446494861464180FF218180012195
:1014E0000180C188C907FCD10A460846049E275CD2
:1014F000365C7E40F607F60F8E401643491CC9B293
:10150000F2B2082905D112994A556D1C0021ADB2DD
:101510000A46354FC82620373E801030FF2680B25D
:10152000B600B042E2D95B1C9BB2022BD2D32E484C
:101530000C9901823249002008802D4809990180C8
:10154000109941802B490F9ACA800E9A0A810D9AF0
:10155000C280089A4283284A07985080069848809B
:1015600005200007028880218A43028013B0F0BD65
:1015700010B52448FFF76AFF2248006841F701FAD6
:1015800010BD08B51A49002008804880194A1E4B32
:10159000D380FF23D2331381C880C3215180184ADE
:1015A000082111806946088003E06A461188491CB9
:1015B0001180694609889129F7D36946088003E0BC
:1015C0006A461188491C1180694609889129F7D318
:1015D000694601E00888401C088008889128F9D3F2
:1015E00008BD00001001FC07E03000500002004080
:1015F00000240050602800500026005000350050A4
:10160000202000509876FC0780800000EFF31080C7
:10161000012181F31088052109078A880123DB0253
:101620001A438A80002800D0012080F31088704778
:1016300010B54B4841780078FFF784FD10BD10B518
:10164000EFF31084012080F3108846480188490890
:10165000490001800520000781880122D2029143C0
:101660008180FFF7E5FF002C03D0012080F3108874
:1016700010BD0020FAE701B56946394809780170C4
:1016800069464978417008BD36490A8852085200B7
:101690000A800A88FF2381339A43C00102430A80EB
:1016A0000888012210430880704710B504468178ED
:1016B0002B480170E1784170FFF7BAFFFFF7A6FFF2
:1016C00020780207C107520F490E5200000911434A
:1016D000C000014360784207920D4006C00F1143DD
:1016E000800301431F480180018989088900018125
:1016F0000121C18002880A430280002010BD10B57C
:10170000174841780078FFF7FFFC10BD154900220B
:101710000B899B089B009B1C0B810B88DB059B0F97
:10172000012B01D9030C8B80488008888004FCD5EC
:101730000120C8800888C005800F012801D9888849
:10174000020448888018704710B50446FFF7D7FF99
:101750002046FFF7DBFF0446FFF76AFF204610BD77
:10176000E842FD070012005010B50120FFF78CFF82
:1017700005200002FFF7E8FF80B210BD10B5FFF7AB
:10178000F3FFC00701D00D20C04310BD70B5002489
:101790009D4DFFF7E9FFC00704D0641CAC42F8D3AD
:1017A0000020C04370BD10B5FFF7A9FFFFF740FF51
:1017B0000020FFF769FFAB20FFF7C6FF002010BD38
:1017C0000DC892490DC1704710B50446FFF7D6FF0A
:1017D00000281ED1FFF758FFFFF791FF9F20FFF76A
:1017E00095FF0020FFF792FF0006000A206000200E
:1017F000FFF78CFF00062168000C084320600020E2
:10180000FFF784FF2168C0B208432060FFF710FF94
:10181000002010BD70B59AB0064660227C4968462B
:101820005CF744FC18A8FFF7CFFF002815D11898E3
:10183000002814D0411C12D0082100246D460C222F
:1018400062435219526882420CD10C204443601901
:10185000FFF7B6FF285D307000201AB070BD0A2077
:10186000C043FAE7641CE4B28C42E8D30920C043C9
:10187000F3E710B5FFF782FF002805D1FFF704FF5B
:10188000B920FFF761FF002010BD10B50446FFF737
:1018900075FF00280DD1FFF7F7FE2046FFF754FF34
:1018A000FFF774FF002804D1FFF75EFF800701D522
:1018B000002010BD0B20C04310BD70B50C4605467E
:1018C000FFF75CFF00280DD10620FFF7DEFF0028A0
:1018D00008D10220FFF7D8FE20062843FFF734FF87
:1018E000FFF754FF70BD70B514460E460546FFF76E
:1018F00045FF002824D10620FFF7C7FF00281FD18D
:10190000FF200130844200D904460220FFF7BCFECC
:10191000FFF7F5FE0121304649060843FFF7F6FEC2
:101920000020FFF7B1FE05E028786D1CFFF7EEFE02
:10193000641EA4B2002CF7D1FFF77AFEFFF726FF52
:1019400070BDFFB583B0002001900E460091FF20CE
:10195000014315460C460020FFF796FE2B48806891
:10196000801BA84200D205462E46002715E00098AD
:101970008019A04202D90098261A761C0398B2B2A8
:10198000C0190099FFF7AFFF019000280AD1601C31
:10199000BF19EE1BFF3401340090AF42E7D3069825
:1019A0000760019807B0F0BDF8B51D4617460C4614
:1019B0000646FFF7E3FE002824D114483919806851
:1019C000814202D9001B286000E02F600220FFF74F
:1019D0005BFEFFF794FE0321204609060843FFF74C
:1019E00095FE0020FFF750FE002405E00020FFF7E1
:1019F0008DFE3070641C761C2868A042F6D8FFF774
:101A000017FE0020F8BD000080841E00A876FC07A9
:101A1000E06AFC07544930B4884201D0012100E05B
:101A20000021524A4901891808E0838ADB07DB0F4D
:101A300012D00388541C8D68CC81AB54CA898B8921
:101A40009A42F2D382885208520082808A69002A20
:101A500002D0C88930BC104730BC704710B544482C
:101A600000F001F810BDF8B53F4D404E0446208906
:101A70000007000F062826D009DC012840D00228E4
:101A80001DD00428F3D12046FFF7C4FFEFE7072855
:101A900028D00C28EBD1AC4201D0012000E000207E
:101AA000400187192046FFF7B5FFA1884908490082
:101AB000A180B9690029DAD0F8898847D7E720469C
:101AC00000F01FF8D3E72046AC4201D0012100E02E
:101AD0000021490189190A69002AC8D0818A9E23F8
:101AE00019400BE02046AC4201D0012100E000216A
:101AF000490189190A69002AB9D001219047B6E73E
:101B0000F8BD194930B4884201D0012100E000211C
:101B1000164A490189180EE003891B069B0F032B07
:101B20001BD0838A9B06DB0F002B95D0531C0C68BF
:101B3000CB80A25C0280CA888B889A42ECD38288D0
:101B400002239A438280828880239A4382804A6952
:101B5000002A81D0888830BC10477C231B5A9B0701
:101B6000DB0FE1E778E7000000100050EC42FD07D2
:101B70000011005018B51B4900220A60052000071B
:101B8000448A40231C434482448A9C4344824A61E1
:101B9000154B8B6201231B04CB62048880231C43FA
:101BA00004800092521C0092642AFBDB0A68D2086F
:101BB000D2000A6001889943018018BD05210907F8
:101BC0000988090600D400BE06490A88520700D0D9
:101BD00000BE002802D0FF20023000E00120086093
:101BE000704700000000F407204F101A10B50A4893
:101BF00080890A49C96A002901D0884710BD04209C
:101C000000F001F810BD002805DBC106C90E012057
:101C1000884003490860704720130050B476FC07E1
:101C200080E200E0F8B50126B607B56B2846FFF75D
:101C300059F8984C21694718002020619649384688
:101C40005CF7BAF995494860934A5043381A00D076
:101C5000101A80B20860306B082188430843306353
:101C60008F4805608F480068002810D0A8420ED227
:101C70008D49097800290AD16168281A4018E1685D
:101C8000821D8A4201D2801D00E008466060F8BDD6
:101C9000F8B5FFF7BAF90026834805270670042532
:101CA000824C35E02188042089088900891C218024
:101CB0006080208828432080FFF79CF900E000BF67
:101CC00020884007FBD4FFF7A0F9E088A188000432
:101CD00008187749401805286E480ED24188491CDB
:101CE00089B24180142918D34680416882684B1E0E
:101CF000934200D91A4642600FE046804168C368AB
:101D00008A1C9A4200D21346436067480121017041
:101D100038467F1EFFB20028C4D105200007418944
:101D2000890708D0418989088900418161494A8829
:101D3000520852004A800189802211430181018AA0
:101D4000A9430182818A8907FCD500F0C3F80120EC
:101D500080070169490700D500BE01694907FCD524
:101D6000F8BDF8B5052636077089800720D0B08AFF
:101D7000400701D503F0B8F94E4D28888027384335
:101D800028804A4CFF20608004202080FFF732F931
:101D90007D21C900E088A288000410188842F9D982
:101DA000052020804448008870802888B843288017
:101DB000424801894907FCD4FFF76AFFF8BDF8B52E
:101DC000344E0127BD072C69002C62D0200603D5B4
:101DD0008020A8614AF7B7FFA00703D50220A861B9
:101DE00046F777FF200706D50820A861002046F7B0
:101DF00030FF04203070E00505D5FF200130A861D8
:101E0000012046F726FFA00504D501204002A86165
:101E10004BF702F8600603D54020A86146F714FF8F
:101E2000E00603D51020A86145F749FB600721D5DE
:101E30000420A861214801894908490001815AF715
:101E40002FFB40F739FC002030701A48408980058C
:101E500010D5707800280DD1194877700088C00718
:101E600008D10120FFF76BFA8B218900884201D944
:101E700002207070E00706D00120A8615AF72CFB01
:101E80004AF761FF3770A0069DD52020A86100BEEB
:101E900099E7F8BD2C43FD077102000040000040A7
:101EA0004843FD074043FD07E476FC070016005059
:101EB00061F8FFFF20000050EC41FD0700330050A7
:101EC0000015005010B540F72EFA65488068654946
:101ED000486010BD10B540F752FA6248604940684A
:101EE000886010BDF8B5002600F0B5F80027009016
:101EF000FEF700FE5C4C002802D12079022801D1B7
:101F00000020009059480089C00711D1FEF7EEFE6D
:101F100000280DD159F71BFC002809D0E0780126D4
:101F2000002805D005200007808AC00701D00426BC
:101F30008FE0208800287DD1FEF7DCFD002806D147
:101F40004B48806A002802D000F085F80090FEF728
:101F500055FEA17868465AF705F9002879D0012581
:101F6000AD072869400674D43F48817868464BF72E
:101F700041F800286DD03F4900200C683E4909789F
:101F8000022900D132343D490A78012A00D1213496
:101F90000870E96B1220890A89020143E963E86B42
:101FA00037490840A1020843E863E86B3721C002C3
:101FB000C00A89050843E86332490098042688422C
:101FC00000D300BEC00264215BF7F6FF002800D0FA
:101FD000401E244AC01E611C1060884200D114605B
:101FE00021480079002801D0012100E0002110687B
:101FF00046F7D5FF2448C06A8047FEF78EFE0028CA
:1020000002D0FEF7F7FF0127154C286B0004C00F24
:10201000FBD02068C005FCD520688025A84320603F
:10202000002F01D0FEF7F1FF10484189462906D262
:10203000462200E00DE0154B511A19604281FFF76E
:1020400041FF20680006FCD5052000070189A9434F
:1020500001813046F8BD0E480068806A7047000074
:10206000000200404043FD075877FD070033005051
:10207000787EFD073043FD07B477FD072D43FD074C
:10208000FF03E0FF40420F00B47FFD073C43FD0724
:102090005876FD0700207047704770477047002052
:1020A000704701218907086B0722104308637047B6
:1020B000704740087038C0B2704740493E480860D9
:1020C00040493F4848814048418806229143891C45
:1020D00041803E4A6321D1803D493A4A0988603AAD
:1020E00011823C49098801803B480078002802D0D1
:1020F0003A4930200883704700B58BB0384A4262B5
:10210000384A8262384A4261384AC262384A0260BA
:10211000384A0262384A4260384AC2612748002180
:102120004038426B1F231B049A434313D218426367
:1021300033480268C3129A430260026803139A4349
:10214000026068464154491CC9B22829FAD30146A5
:102150002C482822006840305BF7A8FFFFF7ADFF4E
:10216000FEF766FD2849088004F02CFA0BB000BD8C
:1021700012484038416B1F221204914342138918C0
:10218000416300060168C908C90001600520000715
:10219000018989088900491C0181018908221143AC
:1021A00001811A484189890504D501887822914323
:1021B0000831018081E700004C0554078000004091
:1021C000EBE600006028005000260050002C005074
:1021D000F441FD07F241FD074C43FD070024005088
:1021E0009520FC079920FC079F20FC07A320FC07F3
:1021F0009B20FC07B120FC079D20FC07B320FC07B7
:10220000000200404C76FD07EE41FD072000005023
:10221000FFB58FB000241F461B9E1A9D7E4869465D
:10222000099413460884002A05D0042219460AA8F6
:102230005BF73CFF02E00020C0430A900F980A9928
:10224000401C0B90C0B207E00A460241D20701D001
:10225000641CE4B2401CC0B2B842F5D31820444319
:102260002018032159F796FB044610980188218015
:10227000199961800F98142148434119087902285F
:102280000DD0042830460CD040221043207109693B
:102290001022A01D5BF70AFF0B98C6B272E02671F0
:1022A000F5E72022F1E70A983041C00768D03046B0
:1022B000142148430D9040190C900079022804D055
:1022C000042813D010283DD056E0182102A85BF74F
:1022D00006FF0D9828580178684601720D98285815
:1022E0004178684641720C9880681CE0182102A869
:1022F0005BF7F5FE0D9828580178684601720D9835
:1023000028584178684641720D9828588178684667
:1023100081720D982858C1786846C1720C980121C5
:1023200080688904084306900C98818968468183F7
:10233000182109980A464843001902A918305BF78A
:10234000B5FE19E00D981822295809985043001934
:102350000490102218305BF7A9FE0C9904988A6843
:102360000121C9040A430146283110465BF7D9FE12
:102370000C988189049881850998401CC0B2099005
:10238000761CF6B2BE428ED30998607120464DF796
:102390007AFD0390002838D1109821880180002010
:1023A00009900B98C6B2BE422FD20A983041C0079E
:1023B00024D009981421401CC0B2714309904819D7
:1023C00002908089000419D40298C089002815D091
:1023D00002980079022806D16858022208A95BF702
:1023E00089FE00280AD002982288C18903690998C9
:1023F000101880B200224DF720FE0390761CF6B232
:10240000BE4202D203980028CFD0204659F73DFBA8
:10241000039813B0F0BD00000328000002468B882B
:102420000020022B01D00D207047C988002A05D05A
:102430000029F9D00129F7D0812070470029FCD06C
:102440000229F9D17047F0B589B004464DF76CFD0B
:1024500005460026384F14E005A920464DF783FDB8
:10246000002301AA07A905A800964DF76FFE68464C
:102470008088B84203D1641CA0B209B0F0BD641ECC
:10248000A4B2A888A04202D8E888A042E4D20020E2
:10249000F3E7F0B58BB004464DF746FD264F002616
:1024A0000546FF371BE008A920464DF75CFD0023D9
:1024B00001AA05A908A800964DF748FE684680883D
:1024C000B84203D16946097D022911D01A498842D0
:1024D00003D16846007D022807D0641CA4B2A888F6
:1024E000A04202D8E888A042DDD200200BB0F0BDA7
:1024F0002046FBE710B50446FD2000F036FE827949
:102500000021A24202D98088001981B2084610BD7C
:1025100070B504460D46FD2000F027FE818880221C
:10252000A14206D880790818A04202D9601A287002
:102530000022104670BD00000328000030B503469D
:102540000120002103241A46CA40D20704D04D00BE
:1025500022466D1CAA401043491CC9B20929F2D376
:1025600030BDFFB585B005460E981E460088FFF7C2
:10257000E5FF049030461E210840A98A4B4A0023FB
:1025800080300191009302920390132304AA4849DA
:1025900006984EF730F8070027D10121202059F77F
:1025A000F9F9044620215BF79AFD2C610698008812
:1025B00020830E9800886083F00701D00120C003BB
:1025C000079908432080A88A60801420E8820120AF
:1025D000E88120461E30A86036486860201D40F71C
:1025E00099FAA88A002159F766FC384609B0F0BD6F
:1025F00070B5046905466068002805D0201D40F7C5
:1026000091FA59F742FAF6E700202861204659F777
:102610003CFA70BD704770472448E430704730B5CD
:102620000446228B0920521C93B2648B002225465B
:10263000D540ED0706D05D1C8D4201D1104630BD5E
:102640009B1C9BB2521CD2B2092AF0D330BD10B5EC
:102650000346008B5B8B401C80B200221C46D4409A
:10266000E40706D0914202D1401C80B205E0801CF4
:1026700080B2521C52B2092AF0DB092A00D1002094
:1026800010BD02460020802901D98D207047062AFE
:1026900006D0072A07D0082AF8D10729F5D17047B4
:1026A0000829F2D170470629EFD37047406BFC0729
:1026B0000A1800004C6CFC07FFB581B00C461420D2
:1026C00000F053FD21780746092935D2FFF7BFFFF7
:1026D00000282FD061782078FFF7D3FF06002CD197
:1026E0007D680DE028792178884208D100222946AA
:1026F000381D40F787FA284659F7C7F902E02D68D8
:10270000002DEFD160780121083059F743F9617845
:10271000054608315BF7E3FC207828716078687122
:102720006278A11CA81D5BF7C1FC2946381D40F743
:1027300015FA02E0822600E0812602235248039A1D
:10274000049959F735FA21780170467059F749FA1A
:10275000002005B0F0BDFFB581B0002000900E460E
:10276000039859F7DAFB002802D001284CD04DE03D
:10277000142000F0FAFC07463188FFF750FF0546A9
:102780004248092D36D27C6803E02179A94203D062
:102790002468002CF9D117E0002C15D06379039A36
:1027A0009B1D049959F704FA0546308828800020BB
:1027B0002871607968806279A11D681D5BF776FCDD
:1027C000284659F70EFA21E03D770498010A7977F7
:1027D000384600F0E7FC01462B480123401C039AD1
:1027E00059F7E6F9057059F7FCF90121039859F7F3
:1027F00062FB0BE00623039A049959F7D9F9318853
:10280000018080210171DCE7022000900098A0E7A0
:10281000F8B517460D46104659F77FFB012831D110
:10282000142000F0A2FC0446017FFFF710FF0646CB
:10283000217F2A781548914214D1617F6B78090273
:102840003A4608319B1D59F7B3F90446068000202B
:102850002071687860806A78A91C601D5BF726FC8F
:10286000204609E0617F062309023A46083159F7FC
:102870009FF906808021017159F7B3F9002138468C
:1028800059F719FB0020F8BD01140000140C0000DA
:10289000FFB5064685B000270121282059F77AF8B0
:1028A000044628215BF71BFC0025346126E00898CC
:1028B0001E210840B28A80300390534B00216F469E
:1028C0000EC752480022411904914B78405D069989
:1028D000FFF79EFC0746002D02D106980088A080D5
:1028E0004A480499405D4978091A069800880818F2
:1028F0000699002F088027D16D1CEDB2444800785E
:102900008542D4D3434D2878A0710898C00701D0E0
:102910000120C003079908432080B08A6080FD2011
:10292000F0820120F08120462430B0603A48706087
:102930002046103040F7EEF82988334800F0CDF8F3
:10294000B08A002159F7B7FA384609B0F0BD70B522
:1029500004690546264610362069002805D0304611
:1029600040F7E0F859F791F8F6E700202861204693
:1029700059F78BF870BDF3B581B00298082800D3E1
:1029800000BE0124204D254F224E10E02046142188
:10299000484341190979022908D128580088B842CA
:1029A00004D1E1B20022029800F0B4F8641C30882F
:1029B0008442EBDBFEBDF7B582B000690124124D05
:1029C000164F144E009010E0204614214843411940
:1029D0000979022908D128580088B84204D1E1B207
:1029E0000022039800F096F8641C30888442EBDBE8
:1029F0000399009800F0CEFB002159F75CFA05B06E
:102A0000F0BD0748704700005C71FC075471FC077B
:102A10005871FC075A71FC07AC6CFC0702290000D6
:102A2000546CFC07F7B5074682B00D46FD2000F058
:102A30009CFB0646046910E02079B8420CD160790D
:102A4000A8420DD0304600222146103040F7DAF877
:102A5000204659F71AF805E02468002CECD101E073
:102A6000002C0ED1284608300121009058F792FF23
:102A7000044600995BF733FB30462146103040F79F
:102A80006DF8277165712A46A01D04995BF70EFB4E
:102A9000002005B0F0BD70B5064614460D46FD2079
:102AA00000F063FB0369002C00D100BE002D0DD1A6
:102AB00000BE0BE01879B04207D158792880981DE4
:102AC0002060002B04D0002070BD1B68002BF1D1CA
:102AD0000020288020600A2070BDFEB50546002039
:102AE0000E4600900124FE4F019010E02046142174
:102AF000484341190979022908D128580088B84269
:102B000004D1E0B26A460821FFF78CFF641CB4428E
:102B1000ECDBFEBD7FB515460E460446082800D303
:102B200000BE03AA02A93046FFF7B5FF6846028936
:102B3000002A00D100BE0399002900D100BE5BF736
:102B4000B5FA68460555024601893046FFF76AFF27
:102B50007FBD7CB5FD2000F008FB84680546002C95
:102B600000D100BE687B6A4601A90C34FFF793FFD1
:102B700068468088082800D000BE0099287B082875
:102B80002DD2421C2A736278002A0A5C02D0D20736
:102B9000F4D001E09207F1D5A18808318BB2A96881
:102BA000CA880102C1200001083159F701F8064620
:102BB0006078002801D0122000E013203070A8882F
:102BC00061884018B080A088F0803046A288A11D9E
:102BD00008305BF76BFA304659F703F87CBD607834
:102BE00000260028A868C288018907D00423BD48B0
:102BF00058F7DEFF61880180867007E0B948062338
:102C0000801C58F7D5FF61884180067158F7E9FFAD
:102C1000A86858F73AFF00212846AE6000F0BAFADB
:102C2000002159F748F97CBD10B50878122801D069
:102C3000132801D1FFF78DFF002010BD10B50C4601
:102C4000FD2000F092FA80886188A31D401880B2B0
:102C5000A18800224DF7F1F9002010BDF8B5174604
:102C60000D46FD2000F081FA0446808869884018EE
:102C700086B2384659F751F9012805D03046FFF79A
:102C800008FC002802D002E00220F8BD00BE694620
:102C9000FFF73EFC002800D000BE0121384659F75E
:102CA0000AF90C3D0020A560207368460078607327
:102CB000FFF74FFF0120F8BDF8B517460D46FD2080
:102CC00000F053FA044680886988401886B2384676
:102CD00059F723F9012805D03046FFF7DAFB002821
:102CE00002D002E00220F8BD00BE6946FFF710FCEA
:102CF000002800D000BE0121384659F7DCF80C3D11
:102D00000020A5602073684600786073FFF721FFFC
:102D10000120F8BD70B516460C46104659F7FDF86F
:102D2000002813D1FD2000F020FA05460623324684
:102D300008216D4858F73CFFA988628889180180EE
:102D4000A1884180A179017158F74BFF002070BD27
:102D5000FFB589B00F460B9859F7DFF8002802D06D
:102D600002200DB0F0BDFD2000F0FFF9059000201D
:102D7000694608720C9802A9050A3888FFF7C8FB53
:102D80000024694606468C83002825D1FD2002F0E8
:102D9000BBF843686846007A1422014651430A1D75
:102DA0009A5C022A27D159584D4A0988914222D16A
:102DB000082D00D300BE04AA01A9FFF76CFE6846E7
:102DC0008088002800D100BE0498002800D100BEF1
:102DD000405D6946888302244348A31D001F0B9A67
:102DE0000C9958F7E5FE0546388828802E716C80CE
:102DF000002E16D01AE02946059800F0D3F90146B6
:102E000038480423C01E0B9A58F7D2FE0570694655
:102E1000097A418058F7E5FE01210B9859F74BF8E4
:102E200007E0224607A9681D5BF740F9284658F7D6
:102E3000D8FE002095E7FFB585B00C46FD2000F0D8
:102E400094F9039000276846077008986946060AB7
:102E50002088FFF75DFB05466088002800D000BE93
:102E6000002D71D1FD2002F04FF869460978142336
:102E7000594342680B1DD35C022B21D15158184A8B
:102E8000098891421CD1019702972088FFF7DBFA4D
:102E9000002800D100BE01AB002204A94DF7E9FAD9
:102EA000049821468005C00FFFF7B8FA05062D0EDD
:102EB0004AD168460178E2883046FFF72BFE28E0C9
:102EC00000280BD080698446002807D06846A28875
:102ED0006188A31D00786546A8470546019705E06F
:102EE0000229000007FD0000180C0000029720884E
:102EF00001A94DF738F8002D26D101980089C00BA3
:102F000007D16288A1882088A31D4DF796F8051E79
:102F10001AD13146039800F045F90146A088079A76
:102F2000801D83B23E4858F743FE0746A288A11D84
:102F3000801D5BF7BBF8684600787880A088B88071
:102F40003E70384658F74DFE04233648079A0899D4
:102F500058F72EFE21880180857058F742FE002028
:102F600009B0F0BDF8B51D4617460E46104658F795
:102F7000D4FF002815D1FD2000F0F7F804462848BA
:102F800004233A461946C01C58F712FE290A01705C
:102F9000082900D300BE3188A288891A418058F7D9
:102FA00020FE0020F8BD70B516460C46104658F7B6
:102FB000B4FF012819D11B48A179801E002916D021
:102FC0002178062309023246083158F7F1FD0546FB
:102FD000A078FFF78FFA288080202871284658F7BC
:102FE00000FE0021304658F766FF002070BDA18822
:102FF0003246891D8BB221780902083158F7D8FD75
:103000000546A078FFF776FA288000202871A0886E
:103010006880A288E11D681D5BF748F8DEE70000C4
:103020000AFD0000160C0000F8B50025834EFF27AE
:10303000002818D00024182060438719F88A00F06F
:10304000E9F8002802D0416838468847FF20F88216
:103050007D60BD60FD81387D58F772FF641CE4B26D
:10306000202CE8D3F8BD00242046182148438119BC
:10307000224610320D618A82CF824D608D60CD81F3
:103080008D813550087D58F7E4FE641CE4B2202C95
:10309000EAD3F8BDF3B5054681B00026408800F0BC
:1030A000B9F801000AD0654F6A880020182343430D
:1030B000DB19DB8A934203D1422628E0402626E032
:1030C000401CC0B22028F1D3002418206043C0194E
:1030D000C08AFF2806D0641CE4B2202CF5D3202C33
:1030E00014D014E028460830009018206043C0191E
:1030F0000E686B78AA880746A91DB0470600EED176
:103100006888F8820298B98A0180E8E74B26304641
:10311000FEBDF8B5494E07460024182060438519C6
:10312000E88A00F077F8002803D0826839462846FC
:103130009047641CE4B2202CEFD3F8BDF3B53F4EAA
:1031400081B00F460024182060438519E88A00F0FA
:1031500061F8002804D0C3683A4628460199984788
:10316000641CE4B2202CEED3FEBD034610B5002053
:10317000324A014618244C43A418E48A9C4204D1E4
:10318000182041438818006910BD491CC9B2202984
:10319000F0D310BD42885004400CD20B01D009027C
:1031A0000843704702885004400CD20B01D009023A
:1031B0000843704730B5FF21020AC4B21F4B0020FC
:1031C00018254543ED18AD8AA54204D1182148437E
:1031D000C018C18A03E0401CC0B22028F0D31002FE
:1031E000084330BD30B5FF21020AC4B2134B0020A2
:1031F00018254543ED18ED8AA54204D1182148430E
:10320000C018818A03E0401CC0B22028F0D310020D
:10321000084330BD014610B50020C9B2142906D0BC
:10322000FC2907D0FD2901D1FFF7EBFB10BDFFF70B
:10323000F3F910BD00F09EF910BD00005043FD07EA
:10324000FFB50646FF20FBB01F460321E13058F7CB
:10325000A1FB04467C98394600882080B08A6080B3
:103260001E2001408031C44821710FC86D460FC532
:1032700010226946A01D5AF719FF182109A85AF70C
:103280002EFFBD491822F03909A85AF70FFF204632
:1032900018300546182209A95AF708FFB64918221E
:1032A000103145A85AF702FF28461830182245A9C0
:1032B0005AF7FCFE18210FA85AF711FFAE49182241
:1032C000D8390FA85AF7F2FE2046483018220FA925
:1032D0005AF7ECFEA849182228314BA85AF7E6FE07
:1032E0002046603018224BA95AF7E0FE182115A895
:1032F0005AF7F5FEA0491822C03915A85AF7D6FE8C
:1033000020467830182215A95AF7D0FE9A4918227B
:10331000403151A85AF7CAFE20469030182251A9D0
:103320005AF7C4FE18211BA85AF7D9FE9249182251
:10333000A8391BA85AF7BAFE2046A83018221BA9A4
:103340005AF7B4FE8C491822583157A85AF7AEFEE6
:103350002046C030182257A95AF7A8FE182121A8E4
:103360005AF7BDFE84491822903921A85AF79EFECB
:103370002046D830182221A95AF798FE7E491822F3
:1033800070315DA85AF792FE2046F03018225DA9F0
:103390005AF78CFE182127A85AF7A1FE7649182261
:1033A000783927A85AF782FE2046FF3009301822C4
:1033B00027A95AF77BFE70491822883163A85AF76B
:1033C00075FE2046FF302130182263A95AF76EFEA1
:1033D00018212DA85AF783FE6749182260392DA8B5
:1033E0005AF764FE2046FF30393018222DA95AF7CB
:1033F0005DFE182133A85AF772FE5F49182248393A
:1034000033A85AF753FE2046FF305130182233A913
:103410005AF74CFE58491822A03169A85AF746FEBF
:103420002046FF306930182269A95AF73FFE18215B
:1034300039A85AF754FE50491822303939A85AF79A
:1034400035FE2046FF308130182239A95AF72EFE6A
:1034500049491822B8316FA85AF728FE2046FF3094
:10346000993018226FA95AF721FE18213FA85AF760
:1034700036FE4149182218393FA85AF717FE204650
:10348000FF30B13018223FA95AF710FE3A491822EE
:10349000D03175A85AF70AFE2046FF30C9301325EF
:1034A000182275A95AF702FE657120464CF7EBFC0D
:1034B000059000283DD100210C2058F76BFA0546F5
:1034C0000C215AF70CFE2088E88084980078287137
:1034D00000206881F80701D00120C0037D990843CE
:1034E0002880B08A6880FC20F0820120F081284684
:1034F0000830B0602148356170607C98E9880180AF
:10350000B08A002158F7D7FCED880D206946087471
:10351000F420088428460F3080B204AB0022012139
:103520004CF78BFD1135A8B208AB002202214CF7F5
:1035300084FD204658F7A9FA05987FB0F0BD10B574
:10354000002201690261084658F79FFA10BD7047D2
:1035500008B5006900216A4611704181C0880A4699
:103560000C3080B26B4601214CF767FD002800D07B
:1035700000BE08BD02487047B46DFC07BC6EFC0776
:10358000B46CFC07F8B51F4614460E46FC20FFF746
:10359000ECFD0546C088B31C0C3080B2002201212E
:1035A0004CF74BFD002800D000BE688900281DD0D4
:1035B000390A0902C120092322460001083158F7BF
:1035C000F7FA04466889012812D0132020700020E1
:1035D0006080E88801220C30A0802046E280B11C87
:1035E00008305AF763FD204658F7FBFA0020F8BD73
:1035F0001220EBE710B50C46FC20FFF7B6FDC088A3
:103600002346801D80B2002204214CF716FD0028BD
:1036100000D000BE002010BDFEB50C4600211F46A4
:1036200015461046019158F778FC002805D0284629
:1036300058F773FC012872D0C3E004232A463946A8
:103640008B4858F7B5FA0546FC20FFF78EFD064675
:10365000218880793A0A081A009229808021C0B214
:103660000027A97002280CD0042831D00A2857D08E
:10367000082879D00D2876D0A970284658F7B1FAD5
:103680009FE06288A1882088A31D4CF7D6FCA87013
:1036900030460099FFF786FD0146FC220823100200
:1036A00058F786FA0646009851F7EAFA30807760B4
:1036B000607A01067160207A000401437160E0794C
:1036C000000201437160A0790143012071606AE04A
:1036D0006288A1882088A31D4CF7AFFCA8703046F3
:1036E0000099FFF75FFD01460823FC22614858F767
:1036F0005FFA0646009851F7C3FA30807760607A27
:1037000001067160207A000401437160E0790002D3
:1037100001437160A07901430220716043E04EE0F3
:103720006288A1882088A31D4CF787FCA8703046CA
:103730000099FFF737FD0146A088FC22001D83B2E7
:103740004C48801C58F734FA0646009851F798FA0E
:103750003080A288A11D301D5AF7A8FC2079F07096
:10376000042020E000E023E06288A1882088A31DD7
:103770004CF763FCA87030460099FFF713FD014633
:103780003C480623FC22401C58F712FA06460098D3
:1037900051F776FA3080B780E0790102B180A079E4
:1037A0000143B1800320B070304658F71AFA64E73D
:1037B000E079A179000208437081AF705DE70220D3
:1037C00001900198FEBDFFB583B01C460E46002750
:1037D000059858F7A2FB002805D0059858F79DFBDF
:1037E000012840D040E0FC20FFF7BFFC317882790F
:1037F0006B46891ACAB200211980019119810221F0
:103800000D2A22D0132A24D0308801AA19464CF759
:1038100008FD0546684600882146801D83B214488D
:10382000059A801E58F7C4F9318801800446057155
:10383000684602886280002A03D0601D01995AF709
:1038400035FC204658F7CDF90EE0002519800A30E6
:1038500007E000251980200A4EF76FF96A461081AB
:1038600002A80190D6E70227384607B0F0BD000055
:10387000160C000001FC000010B500F0C5FC00F0C3
:1038800051FD00F06DFA0020FDF728F910BD0C2164
:103890003C4A10B5414389188978FF2902D000F0CD
:1038A000EAF810BD01F0AEFC10BD10B500F0DAF87A
:1038B000002801D001F0A6FC10BD10B501F0A2FC5B
:1038C00010BD10B530490A780270401C491C5AF7E7
:1038D000EDFB10BD2C49498C018070470821018007
:1038E00010214180002181807D21C180704770B509
:1038F0000C4601780025244B002904D0012909D069
:103900004820207070BD8278011D1A70581C5AF72B
:10391000CDFB01E040885884257070BD01200870FF
:10392000002048808880704710B501F080F910BDF4
:103930001FB54A78002A0AD0144B012A12D0022A55
:1039400010D0032A0DD101231022891C07E010A4F6
:103950001ECC03946C460EC401231022694601F06C
:1039600085F91FBD009301230422F7E710B5044633
:10397000497800F087FB204601F0B7F9204601F0B6
:10398000A8F910BD6846FD078846FD0740E2010022
:10399000000102030405060708090A0B0C0D0E0FAF
:1039A0000021F74A05E0834201D101207047491CFC
:1039B000C9B20C234B43D35CFF2BF4D100207047DA
:1039C00070B5EF49EF4C0E460C36EF4D0DE0521836
:1039D0005268002A07D0C2B20C235A4351184968D2
:1039E000401C60702DE0401C607060780C224243E7
:1039F0008B5CFF2BEBD10AE089194968002903D0C1
:103A0000FFF7CEFF002809D02078401C20702178D5
:103A10000C204143705CFF28EED117E020780C2188
:103A2000414389194968401C20700AE04919C96856
:103A3000002909D0C1B21C2251434919C968401C50
:103A4000A0708847002070BD401CA070A0781C2189
:103A500041436A5CFF2AE9D10020A07060702070A9
:103A6000012070BD10B50121042058F724FAFFF79A
:103A7000A7FF10BDA4E7F8B505460024C04E0AE034
:103A800080198168002904D0641CE4B22846884764
:103A900001E0641CE4B220460C214843315CFF295C
:103AA000EED1B74E00240C3609E08F19B968002911
:103AB00003D0FFF775FF002809D0641CE4B20C2185
:103AC0006143705CFF28F0D10024AF4E10E0641C0D
:103AD000B968E4B228468847F1E7801901690029EE
:103AE00004D0641CE4B22846884701E0641CE4B2B8
:103AF00020461C214843315CFF29EED1F8BDF8B5C2
:103B0000A04DE868002835D15223042209219F489E
:103B100058F74EF80446E8600D20207000266670C5
:103B20009B48A080E08007202072A672012060726E
:103B30001820E072024620460C3096A107465AF73C
:103B4000B5FAE8682B210E54C07A21462C310C308E
:103B50001F2806D8E07A0721C219204694A30B300B
:103B600006E02B20005D92A34218204607212B304F
:103B700000F028F9E868F8BDFFB5074683481E46FF
:103B80000D4681B0412304220921401C58F710F84A
:103B900004461020207065702A463946A01C5AF74A
:103BA00085FA2120065520463246223003995AF7DD
:103BB0007DFA204658F715F805B0F0BD70B5714E86
:103BC00004468500361D7059002816D121020E23A7
:103BD000042279480A3157F7EBFF09210170002CC4
:103BE00000D000BE70511021818008214180002149
:103BF000C1807D22028141818181705970BD70B583
:103C0000604EB068002827D160482C230422092187
:103C1000093857F7CDFF032101700A21B0604170C8
:103C2000F7210184002585760446458010210A305D
:103C30005AF755FA2021E176A583E5835F4965842B
:103C4000488FFB22FB2800D91046E0845C48898F0E
:103C5000814200D808462085B06870BD3EB5002579
:103C60004749009501950C224031684602955AF764
:103C70001DFA44480C22183069465AF717FA414C8D
:103C80000722383422704AA1601C5AF70FFA3C49C7
:103C900065843031042058F7DCF80021042058F7FF
:103CA0000AF93EBD10B5044601024348022304222E
:103CB0000A380A3157F77CFF0C2201215443017066
:103CC000304A1321417018320021A218D17057F7E1
:103CD00088FF10BD70B50D460102374814462C23ED
:103CE00004220C380A3157F763FF014620310D7268
:103CF0004C7257F776FF70BD01E710B5FFF7FFFE76
:103D000057F76FFF1F490020C8600221042058F7B1
:103D1000D2F810BD10B50446FFF750FF57F761FF0A
:103D2000184A0020A100121D505010BD10B5FFF719
:103D300066FF57F756FF13490020886010BD114AEF
:103D4000002124324B00D35C834203D14800801809
:103D500040787047491CC9B20A29F3D30420704740
:103D6000084910B50020FF232431042442008B545D
:103D70005218401CC0B254700A28F7D310BD00007E
:103D8000D46EFC075046FD072470FC070D0D0000A3
:103D90004C04000005030A18F5FE1107595A08E4FF
:103DA000862A9E8FE911BC7C9843421800000000CF
:103DB000444C472D4F5441000E0E0000A479FD07DE
:103DC0004808000070B50646481C107009201546CA
:103DD0000C46507022461946A81C5AF767F93078ED
:103DE000A41C0019307070BD10B5104658F795F836
:103DF000002802D000BE002010BD012304220921AA
:103E00009B4857F7D5FE0121017057F7EAFEF2E70C
:103E100010B50C780F2C17D00CDC0C2C14D004DC53
:103E2000012C13D0032C0DD116E00D2C1CD00E2C20
:103E300008D109E0112C07D0122C05D0132C03D087
:103E4000172C01D001F033FA002010BD487800286B
:103E500005D1FFF76BFFF7E74878002801D000BED7
:103E6000F2E7FFF722FDEFE7487801F005FAEBE70C
:103E7000F8B51C4610460E4658F74FF8022802D0F7
:103E800000BE0020F8BD240A00D000BE0C2027464A
:103E9000474378483D18AC70FF2C1AD00121E970D7
:103EA0000321042058F707F872483188C153707A0B
:103EB00028713146681D06220A315AF7F7F87A2030
:103EC0006D49604340186030017E01222046FFF7B3
:103ED00001FF3146204601F0A7F9D2E770B50D7811
:103EE0004C78092D04D0002C00D000BE01F0DFF981
:103EF000002070BD70B51D4610460C4658F70DF8F1
:103F00002A0A032802D000BE002070BD0C204243C4
:103F10005848FF21101881700021C170204601F01F
:103F2000AFF9F1E7F0B508780025544C89B01F4689
:103F30001646002804D0012817D0022827D129E0EE
:103F40006846FFF7BEFC684603783246394620468D
:103F50000A3357F72DFE0446057068460278411C67
:103F60006280201D5AF7A2F82BE069460D80684652
:103F7000FFF7B0FC0A2332463946204657F718FEB1
:103F80000121017069460988418057F72AFE002007
:103F900009B0F0BD0A233946204657F709FE04460A
:103FA0006846FFF79BFC022020706846008860800E
:103FB00068464088A08068468088E0806846C0885F
:103FC00020812046E1E7002070470020704738B587
:103FD0000C464820694608701D0A2046FFF787FCFA
:103FE0002648290202230422801C0A3157F7E0FDEB
:103FF0006946097841702178017057F7F2FD002079
:1040000038BD10B5104657F788FF012809D1FFF7D2
:1040100031FD002805D00221042057F74CFFFFF79F
:104020004CFC002010BD70B518460D460146E1203D
:104030000623000157F7BCFD044601462846FFF75A
:104040006DFC204657F7CDFD002070BD0020704765
:104050000020704700207047FEB51C46089B0E26C6
:10406000074D6F4668C71346224600F066FDFEBD49
:10407000020D00006846FD07AE46FD070B0E00006E
:10408000206FFC07F8B50E467A2148430B4D0746D2
:1040900044192046082226771430114600F070FF9C
:1040A000A01C1022314600F06BFF3EF764FC6082DA
:1040B000E85D01210843E855F8BD0000AE46FD0764
:1040C00010B50A78180A13005AF744F808051919A8
:1040D00019131A1A16190C22484C424312190123BB
:1040E000D3727A22464C00234243A354FFF71CFCB0
:1040F00006E0FFF71DFC03E0FFF738FC00E000BE20
:10410000002010BDFFB581B004980C26000A009075
:1041100004983B4D040A23467A2073430A784443AB
:10412000364E601907469E19921E603713005AF7E3
:1041300011F80604123E1921293E89783976C907FB
:1041400006D0711D0622713059F7B0FF3079F8752D
:104150000020F07230E00020F07238760098FFF70F
:10416000A1FD29E017223A30891C59F79FFF285DED
:10417000042111E010226130891C59F797FF285D56
:10418000102109E04A8A002A09D01C221E30891C0D
:1041900059F78CFF285D0221084328550CE01C22AA
:1041A000801C891C59F782FF285D0121F4E7049BDC
:1041B000039A019801F07BF8002005B0F0BD0020C3
:1041C0007047180A7A2250430D4A097880186030E7
:1041D00001760020704700207047002070470020C3
:1041E0007047FEB51C46089B0726064D6F4668C7FC
:1041F0001346224600F0A1FCFEBD00006846FD0704
:10420000AE46FD07A06FFC07704710B50A230422D5
:1042100009210B4857F7CCFC04461B2020701420C2
:10422000FFF78DFD6070142060800420A0800020C6
:10423000E080FF2174312181204657F7D2FC10BD68
:104240001B0D0000F8B50E460978184600242546D7
:104250000B0059F77FFF090609120915150C180FF5
:104260001B000B241AA512E007241CA50FE008244C
:104270001CA50CE007241EA509E00A241EA506E0E3
:104280000D2420A503E0062422A500E000BEA31C07
:104290000146224857F78CFC0746307838707C700E
:1042A000002C04D022462946B81C59F7FFFE384698
:1042B00057F797FC0020F8BDFEB51C46089B012669
:1042C000174D6F4668C71346224600F036FCFEBD08
:1042D0004469616C6F672053656D690044413134F6
:1042E00035383500123456FFFE9ABCDE000000005F
:1042F00001D2008005000100312E302E302E302DED
:104300004C450000765F362E302E31342E3131315F
:1043100034000000FFEEDDCCBBAA00000314000057
:10432000D86FFC07F9480021017441618161C160C7
:1043300001770246D162142101707047F3480021D1
:1043400001744161C160704710B509230422194608
:10435000EF4857F72DFC04461B202070FC20FFF788
:10436000EEFC6070FC2060800420A0800021E180D1
:104370002172204657F735FC10BD10B50446FC20CD
:104380003EF75DFA014604231A46E24857F710FC4F
:10439000847057F726FC10BD10B5DC4C207803283C
:1043A00001D1FDF74CF914202070002000F01EFF11
:1043B00010BD70B502460020160BC04336030C0B2F
:1043C000090500D0641C002C01D000250BE001245D
:1043D000002520213046FDF770FA012109037618E7
:1043E000002802D16D1CA542F3D370BDF8B50C4670
:1043F00006461546200B49190003A04202D111467A
:10440000204607E00A0B230B9A4205D00122120333
:104410008018091AFFF7CDFF6B462A462146304621
:10442000FDF78FFAF8BD08B5FDF7BDF96846FDF751
:10443000F1F908BDF8B50446B448B74E017A002733
:104440000906090FA171027AFF4313071B0FE371DD
:1044500002891204120F227002891205120F627073
:1044600082681202120FA27082681203120FE270A9
:104470008268120F227180680001000F607128208D
:1044800041438A1999005058002801D0384600E06D
:1044900001205050A579E279C11759F74BFE2A0146
:1044A00059F748FE9D4A1368556818432943106020
:1044B0005160A078282148438219E0788100505843
:1044C000002801D0384600E001205050A578E2785D
:1044D000C11759F72FFE2A0159F72CFE8F4D2A6874
:1044E0006B6810431943286069602079282148438C
:1044F0008219607981005058002801D0384600E0C8
:104500000120505026796279C11759F713FE320104
:1045100059F710FE2A686B681043194328606960D8
:104520002078282148437C494118607880000A5847
:10453000002A00D101270F50384626786278F917F3
:1045400059F7F8FD320159F7F5FD2B686A681843F1
:1045500011432860696001200090032636026178CB
:10456000207808233246FCF70BFE00250095E17900
:10457000A07907233246FCF703FE0095E178A07886
:1045800006233246FCF7FCFD00956179207905236E
:104590000022FCF7F5FD21786846017061784170D2
:1045A0000098FDF768F8F8BD3EB5AA216A46574C59
:1045B00011722178062013290FD11046FFF73AFF18
:1045C0006846FFF730FF6168012202A8891CFFF7E7
:1045D0000DFF40B2002800D10220C0B23EBD10B590
:1045E000012000F003FE494C2078C00601D51020C0
:1045F00000E00820FFF7C1FE002020746061A06188
:10460000E060207710BD70B50D46010E3F4C0A46A4
:1046100014290FD2227080B26060002A01D0012AD2
:1046200001D13F486060122A01D0132A02D102282A
:104630000AD86074132917D008DC102917D0112963
:1046400015D0122908D10FE0112017E0FD2926D03E
:10465000FE2916D0FF290CD00820FFF78EFE14206B
:1046600020700020286070BDFFF7B9FF70BD0820E2
:1046700004E0FFF791FEFFF761FE0320FFF77DFEE8
:1046800070BD207F002801D0042001E0FFF78CFFDF
:10469000FFF773FEFFF780FEFFF750FE70BD214865
:1046A0008078FF2806D01949012220310A72FFF7CD
:1046B000F9FA70BD1C483EF795F870BD10B5044678
:1046C000FC203EF7BCF80146124804231A46401E5F
:1046D00057F76EFA046057F784FA10BD0021FF28DF
:1046E00002D0401CC0B2704708467047FF2802D075
:1046F000FF2905D006E0FF2918D0002916D001E0D7
:10470000002801D0884211D9022070472847FD07B0
:104710001B0D000005FC00002842FD072042FD079C
:104720005049FD076846FD07111111110120ECE702
:1047300038B5AF4B044600201B78C043132B03D180
:104740006B462046FDF730F938BDF7B596B0002628
:1047500018980C463546402805D32078702802D199
:104760006078512802D0122019B0F0BD6768A049C6
:1047700038464030086207210C22C9036846FFF71B
:10478000D7FF002847DB68460078702803D16846C9
:104790004078522801D01420E6E701981190029841
:1047A0001290002F04D01199401A4038B84201D21B
:1047B0001320D9E7684640221090FFF7B9FF002880
:1047C00029DB6846C078149068468178274603A89C
:1047D0000C371590AA2907D168460078702803D1B4
:1047E00068464078512803D00126002014900BE041
:1047F00010223846159959F77DFC002804D1E0694C
:104800000799884200D10226402212991098FFF79A
:104810008FFF002801DA1620A6E76846C0781390BB
:1048200068468078AA2807D168460078702803D1A6
:1048300068464078512803D00125002013900BE0F2
:1048400010223846159959F755FC002804D1E06923
:104850000799884200D102251698002801D0022825
:1048600007D9012E10D0012D1BD013991498FFF7F2
:104870003DFF0746FF224021684659F729FC022FD9
:1048800015D0022E24D004E0FF224021684659F7BB
:104890001FFC574911984860002D1BD0022D19D0DC
:1048A0000EE0FF224021684659F712FC01E0022D7C
:1048B0000ED04F4912984860002E07D0022E05D026
:1048C00001264B4D2878132809D03AE0149802E0CD
:1048D000152049E71398FFF701FF0646F1E701218C
:1048E0006868FFF766FD00282BD16846C6706068CF
:1048F0000190A068029020460C300EC8A069069076
:1049000003A80EC0E06907902178684601706178BD
:1049100041702020015D08A801702878132810D16B
:10492000402269681098FFF761FD002809DB69687B
:10493000189A204640304031403AFFF757FD002892
:1049400001DA062010E700200EE77CB5284C02268D
:10495000002022462C32616904E0237F155C6B4005
:104960002377401C8142F8D82078122801D01328E0
:1049700001D0082638E06846FFF75CFD6846FFF77F
:1049800052FD6269002A02D0A069002818D0A169EE
:10499000206A8A18431C9A4220D8824201D9401AC0
:1049A0006061606825464118114862692C30FFF744
:1049B0001DFD002812DB6969A8694018A8610EE096
:1049C0000B49607C2C31FFF7C0FE002801D086B275
:1049D00005E06269A1698918A16100E0062600204E
:1049E0006061A069FFF76AFEF0B2FFF7C6FC7CBD0C
:1049F0002847FD0770B53F4C0D462078142827D274
:104A0000A978002922D0E16800291AD0C0061FD554
:104A1000EA786069012381185B02994213D836490C
:104A20004018291D59F742FBE97860694018606118
:104A3000E168814201D1FFF788FFE168606988423F
:104A400004D9052000E00720FFF797FC002070BD87
:104A50000820F9E708B5002000908878002806D0E3
:104A600048686946FFF7CFFD0098FFF727FE002052
:104A700008BD10B5887800280ED01E4849688160AE
:104A8000007802280AD0032808D0122804D013285E
:104A900002D00820FFF771FC002010BD0020FFF7B6
:104AA0000DFEF9E710B58878002813D08988002911
:104AB0000DD010480278142A0CD2D2060CD501224F
:104AC0005202914205D90720FFF757FC02E005206A
:104AD000FAE7C160002010BD0820F5E7FEB51C46CE
:104AE000089B0426054D6F4668C71346224600F012
:104AF00024F8FEBD2847FD075447FD07E06FFC077B
:104B0000FFB583B01E4E002401AFA0003558002D24
:104B100000D100BE009703A80FC8A847002809D0FD
:104B2000641C072CF1D303AC0FCC00F0C0FB0020B9
:104B300007B0F0BD68460079FAE7F8B5089C9C46D6
:104B4000079D0346002C19D0641E17D40D4FE600B4
:104B5000AE5B9E4201D0BE420ED1E3005B195C68A1
:104B6000002C00D100BE002C08D013466246A0479E
:104B7000069908700020F8BD641EE8D50120F8BD34
:104B80000070FC07FFFF00000520000700890006F9
:104B900008D501208007006B000403D40348007887
:104BA000C00701D000207047012070475877FD07EB
:104BB00070B51049049C4118052901D3012070BD2E
:104BC00000F00FF80025002807DB0B4A8100505841
:104BD000002803D05550804700E000BE257000201B
:104BE00070BD04494018052801D240B2704700202A
:104BF000C0437047F2FBFFFF5849FD07F8B5484D29
:104C000084002959002910D101021E23042245489D
:104C10000A3156F7CDFF01260670074628510722B4
:104C20004149801C59F742FA7E702859F8BD10B5E9
:104C30000446FFF7E3FF56F7D4FF0020384AA100EF
:104C4000505010BD70B5364D84002D1D29590029D6
:104C500001D0084670BD01021E23042231480A31EA
:104C600056F7A6FF04210170285170BDFFB581B031
:104C70001F460446FFF7E6FF294D0646A4002D1DFA
:104C800028591021801C59F72AFA2859039A801CA8
:104C9000029959F70BFA7770304656F7A2FF0020B9
:104CA000285105B0F0BD70B51D4D84000C35295953
:104CB000002901D0084670BD01021E2304221948B4
:104CC0000A3156F775FF0721017001214170285103
:104CD00070BD10B50446FFF7E6FF56F782FF104A95
:104CE0000020A1000C32505010BD70B50546FFF7F2
:104CF000DAFF04467A2045430C4808222D18287F05
:104D00002077688A6082294620461431143059F78A
:104D1000CDF9A91C1022A01C59F7C8F970BD0000DC
:104D20006C49FD07140E00001C70FC07AE46FD0721
:104D30007047704770B50D460446FFF725FF002801
:104D400006D06B482A460421201857F783F970BD16
:104D5000FBF7D3FE6648042208231146801E56F74F
:104D600027FF4560047056F73CFF70BDF8B5614CF5
:104D7000069D06190024002E26D0012E0CD05F4F70
:104D80005D4B3A46283A022E0AD05A49C91E4118AC
:104D90000A2927D30120F8BD00F080F8287039E0F7
:104DA0000878461E092E0DD88000001F1058984222
:104DB0002FD1B0003B5813504A6808781146FFF7CE
:104DC000B9FF26E000BE24E04A68002A02D04C4821
:104DD000824200D300BE087845494018042157F7A5
:104DE00039F916E04349891E4018C0B2411E09290D
:104DF000E8D88600B218803AD16F002909D09942CC
:104E000007D0404B994204D0D467F219803AD46756
:104E100088472C700020F8BD0A46010010B53848BC
:104E200001D0814200D300BE0020344B283B8400D7
:104E30001C59002C04D0401C0A28F8DB002010BDAF
:104E400084001A51401C0406240EF7D02046FFF7B8
:104E500071FF204610BD70B50446401E09281BD8BE
:104E60002648A10028380D18803DE86F002813D08F
:104E7000244EB04210D01E480421201857F734F9B0
:104E80001B48042208231146401EEE6756F790FE89
:104E9000047056F7A6FE70BD00BE70BD10B5087850
:104EA0000C46411E09291FD882001448121F2838B9
:104EB0008258144B9A4205D1002289004250283072
:104EC000425012E0890040580B4988420DD104221B
:104ED00008231146064856F76BFE21780170616879
:104EE000416056F77EFE00E000BE002010BD0000CD
:104EF00003040000FFFBFFFF334DFC07AC49FD0737
:104F0000FCFF3F00314DFC070021154A06E08342BB
:104F100003D11C20414388187047491C1C234B4374
:104F2000D35CFF2BF3D10020704710B51823042267
:104F300009210C4856F73CFE04461B202070FD203A
:104F4000FEF7FDFE6070FD2060800420A08000213F
:104F5000E180E1602161A182204656F742FE10BD4A
:104F60002470FC071B0D00003EB51D46069B002467
:104F700000931346019402942A46FFF7DEFD3EBDDE
:104F8000F7B50C46002582B01646A24200D200BEFC
:104F90000027E01E009011E03DF7EDFC0299F31BA5
:104FA0005918020E2039CA77020C8A77020A4A770A
:104FB0002D1D08773F1D0098EDB2FFB28742EBDB55
:104FC000601B07063F0E13D03DF7D5FC8446002139
:104FD0000CE00320401AC0006246C2406818029BE1
:104FE000301AC0182038491CC277C9B2B942F0D370
:104FF000301BC1B20020024607E02318F51A029BBD
:10500000EB18203B401CDA77C0B28842F5D305B0DC
:10501000F0BD000070B545480022C168D2430029A8
:1050200001D0114600E00121CB174C0FDB002343D8
:10503000CC00C1603E490D684E682C4333430C6080
:105040004B600368002B01D0134600E0012303608E
:105050000D68DC174E682B4334430B604C6083694A
:10506000002B01D0144600E00124E317A50E9B019C
:105070002B4384610D68A4014E682C4333430C60BC
:105080004B604369002B00D101224261D017D30E3F
:10509000400118430C6852014B68224318430A60D0
:1050A000486070BD38B5012003252D02009008230B
:1050B0002A4603210020FCF763F8002407232A4630
:1050C000214620460094FCF75BF806232A46194641
:1050D00000200094FCF754F80523002219461046DE
:1050E0000094FCF74DF838BD10B505242407208A3C
:1050F000022188432082A08A0007FCD50D48418800
:10510000FF2201321143418001F0F6F80A48FCF712
:1051100057FB0948001FFCF7C8FAFFF7C3FF608A76
:10512000202188430843608210BD00002842FD070B
:105130002042FD0720000050E474FC077D484179BF
:10514000027909021143491C89B201710A0A4271AC
:10515000794A914202D1002101714171704770B5C5
:10516000744CA41FE078000602D525462B3501E0DB
:10517000704DAD1DFFF7E2FFE07806224006400EBD
:1051800040196C4958F792FF6A4A637925321046F4
:1051900021791F38FEF7F0FC68496948FFF73CFEAB
:1051A000607070BD10B5634CA41F2078FEF7B2FD8F
:1051B0000020A07010BD70B55E4D0024AD1FAC7016
:1051C0000521A81D0170FF214170CD218170AB2107
:1051D000C1700471447118225AA1801D58F766FFEE
:1051E000182028716C71FEF747FB70BD38B5044676
:1051F000FCF7D9FA6846FCF70DFB002C01D1FCF74F
:1052000038FB38BD10B54D494D48FFF705FE4949FB
:10521000891F4870FEF770FD01230622454900F002
:1052200047F8FEF76AFD10BD70B50C4605460C2028
:105230004B49684340188078FF2816D03D4EB61F72
:1052400035707078FFF707FE60880838092805D2A6
:10525000A088002802D1E0887D2808D07D2041491F
:10526000C000FFF7D9FDB07001E0FFF7CBFF21468A
:105270002846FEF70CFB70BD442800D1C2E77047FA
:1052800070B52C4C0025A41FA078002802D0FFF791
:10529000E2FDA570FFF752FFFFF7B4FF3248017A35
:1052A000002903D0057231483DF79CFA70BD704764
:1052B000FEB517460446002B01D01C2000E01F203D
:1052C000E27A1C4E831A20460C300190203025468D
:1052D000B61F20350090BB4209DB019810183A46F2
:1052E00058F7E4FEE07AC019E072801F0FE0E87A18
:1052F0001F22121ABA420CDB009A80183A4658F75D
:10530000D5FEE87A8021C019E872801F0843F0704A
:1053100000E000BEE27A07483271801D019958F71B
:10532000C5FEEA7A034872712530009958F7BEFE2F
:10533000FEBD0000DA49FD07FFFF00005F51FC07DA
:10534000B80B000005030A18F5FE1107595A08E4C6
:10535000862A9E8FE911BC7C984342180000000009
:105360006846FD07A551FC074847FD0711111111BB
:1053700070B50E460446002203214CF7ECFA0546B0
:105380004DF7B8FC688028464CF7F6FA4DF7B2FCAA
:105390007188884200D30846014620464CF7D3FB6B
:1053A000002070BD0246FB4B92009A580120126902
:1053B00000290ED0517F5E239B5C002B0BD005296A
:1053C00006D1517E090702D5917C090700D400203F
:1053D0007047917DEFE70229F9D00429F7D005291C
:1053E000F6D10020EDE7024630B59300E94A0120EE
:1053F000D2581269137DD47E157F2340547D2C40F2
:10540000012901D0022909D1957C527E15402A0735
:1054100004D41A462243D20700D10020032901D028
:10542000042904D1590702D4610700D4002030BDFB
:10543000FFB5160AD84CB500615910460A8B0123F6
:105440009B0281B01A430A8356F767FD002852D0A9
:10545000132850D014284ED0152811D060592D2172
:105460000B5C0122D90600290DDA0146A0318F7D9F
:10547000002F08D08A753D21304640F7BBFF3AE047
:10548000022005B0F0BD190703D50021A0308175B9
:10549000F6E7A030827502980122817843780902EC
:1054A0001943401C1B39E12900D30022C1788378BD
:1054B00009021943B94BFF39801C4939994200D37D
:1054C0000022C178877809023943801C1B39E12901
:1054D00000D30022C178877808023843FF38493862
:1054E00098420AD2002A08D030463EF77DFC30466A
:1054F00002993EF7BCFC0020C3E71E22142130466F
:105500003EF736FA60590121028B89028A430283F1
:10551000F1E710B50446A248008D8007800F0128EE
:1055200000D000206071002807D053F75FF80146D3
:105530000622A01D58F7BAFD10BD06229949A01DEC
:10554000F8E770B5054600243DF715FA2855641CA8
:10555000082CF9DB70BDF8B5022707700126044658
:1055600046700D4688799049C96988472A210855AF
:10557000287900210007000FA070030058F7EAFD0A
:1055800007050709100D100B1000A1700AE0A670A6
:1055900026E0032002E0A77004E00420A07001E0F0
:1055A00001281DD0A888000A801FC0B2A0721F2841
:1055B00000D9A17228463DF793FA811D2046A27AB0
:1055C0000B3058F773FD28463DF78AFA014606224C
:1055D000201D58F76BFD28794006C00FE070F8BD1C
:1055E000A172F0E7F7B544688CB0254624350395E1
:1055F00005460746243547F787FB06464420405BAF
:1056000052214843694909684018C03040896946B9
:1056100008840121384642F7B6FA47F7EAF90990BB
:105620000E9800698088000AC1006148081829891D
:1056300040185F495B3158F7BFFC01466868039D1D
:1056400047184035288906900090A0680099381ABC
:105650004001400958F7B0FC0A910098C019401A5F
:10566000400140096946A060098C4900C919891C9C
:1056700049014909884204D206994018400140096D
:10568000A06001460998081A40014A494009884229
:1056900015D900202B89A268401CD218520152094A
:1056A000A260EA89521CEA81A368099A9A1A5201F7
:1056B00052098A42EED801B20D9842F705FBA16863
:1056C0000998081A4201607D5209824210D82A893D
:1056D000891849014909A1602A890A99511A814208
:1056E00006D901210D9842F7EFFAE889401CE881BC
:1056F0002989A06858F760FCF1802889B080208A49
:105700003081A88870810020B081C807C00FB073B5
:10571000A888522148438E303082304647F7FFFA3E
:105720000398466320460FB0F0BDFFB51C4900202A
:10573000496801240A7893B0064621460C2A0CD009
:105740006A46117300221192002E09D01599029118
:10575000169D1F2D66D9402064E000242246119436
:1057600013990291149DF4E7029989184978012947
:1057700005D0172903D0182901D0192924D1631E77
:1057800004E003AFFF5C8F4216D05B1E5BB2002BC0
:10579000F7DA15E02C7EFD071879FD0701070000F8
:1057A0004C7EFD07CF79FD07B47FFD074C76FD07E2
:1057B00016020000FFFFFF03002B01DB4A2003E07D
:1057C00003AB1955641CE4B20B0058F7C3FC1D264B
:1057D000101010101010101010262626262626262F
:1057E0002626262626261010101010102600119BA3
:1057F00003E00BAFFF5C8F4204D05B1E5BB2002B5B
:10580000F7DA03E0002B01DB4A2006E0119F0BAB27
:10581000D9551199491CC9B211910299895C521C40
:1058200089188AB2AA4201D200289DD0AA4200D08B
:105830004A20761CF6B2022E01D2002882D017B080
:10584000F0BD10B50022134607E084186478012CDF
:1058500007D0845C521CA21892B28A42F5D3184633
:1058600010BD80188378FAE7F0B50646A9B0154652
:10587000002084006318DA789F7812025B783A433C
:1058800052BA1B041A430B5D07241B061A43231A42
:105890009F0020AB401CDA510828EAD300218A007F
:1058A00090190746C37880781B02034378785BBA67
:1058B00000040343B05C10AA00060343601A800092
:1058C000135038462230437800781B020343384691
:1058D000203047785BBA3F0400783B43000603431F
:1058E0000F27781A8000491C13500829D7D357F77F
:1058F00071FA0146304657F7EAFE00282DD057F7D7
:1059000069FA034620AA10A9684658F7EBFA002264
:105910006846A11A8B009600C75C7119CF70C75AF0
:105920003F0A8F70C7583F0C4F70C35820311B0E71
:10593000AB550F239B1A9B00C65CCE70C65A521CF7
:10594000360A8E70C658360C4E70C3581B0E0B703C
:10595000082ADED3002029B0F0BD0120FBE7F7B50F
:1059600000251746064641232A4629460A2056F7AF
:105970001FF90446002E10D0012E02D0022E0CD1A9
:1059800005E02022611C00203DF70EF804E0621CB7
:10599000394601983CF7B8FF2070204656F721F9A8
:1059A0002846FEBDF8B5FF48009007680C46002F5A
:1059B0007BD005461C35287E002876D0012802D0F1
:1059C000022872D102E02078002819D03889F649DF
:1059D000002688423AD1072046F78EFD002835D0B0
:1059E00042233E220021F14856F7E2F808210170D7
:1059F0002178002913D0032141702178817043E080
:105A0000E8480226611C14302E762022044658F7FE
:105A10004DFB2246E64930463CF780FF45E0002139
:105A200046701F22531A1B1947185B78491CBB701C
:105A30002029F7DB00213F22531A47181B19203772
:105A40005B78491CBB702029F6DB1DE0D6493889FC
:105A5000491C88421AD1082046F74EFD002815D06F
:105A600022233E220021D14856F7A2F809210170D5
:105A7000217800291BD0122141700021FF224318F8
:105A8000491C9A702029FADB49F742F82E7640200B
:105A900056F711FD00983DF745F856F7CCF80098F9
:105AA0000068002801D03CF734FF0020F8BD002139
:105AB00046701F22531A1B1947185B78491CBB708C
:105AC0002029F7DBE0E770B5087800250C460128AF
:105AD00009D01D2810D02B2812D04022194651F78A
:105AE00027F8284670BD56F7D0FBB2480125046060
:105AF000B14852F7B0FBF4E7B0483CF773FEF0E76B
:105B0000AF4801680029ECD101210160AD483CF7A4
:105B10006FFFE6E770B5A44DAB4C223DAB4217D109
:105B2000A24809232A460021C01E56F741F8044620
:105B30000822A649401C58F7B9FA207908210843E1
:105B4000207100252570204648F7E2FF284670BDE9
:105B5000A04770BDF1B584B004989D4980000C58F1
:105B600004980502A81D0290002C15D06068818859
:105B700004290CD34188861D0C38009101903146D0
:105B8000049853F73EF99349884206D160680C386F
:105B900056F751F80020606073E4F178B2780F0294
:105BA000019928431743C880384640383F2819D800
:105BB0000322394604984FF7ABF90600E6D0B07BD4
:105BC0000128E3D13420B07329460A3104238248E6
:105BD000029A55F7EDFFB18941801021017056F707
:105BE00000F8D3E76168342008700221009855F767
:105BF000D1FE05463146009A58F758FA6878297858
:105C0000000208436168C880E878A9780002084368
:105C10006168062F08810BD0042F09D06068052F1A
:105C200010D00C3856F707F8284655F72EFFB1E785
:105C300060688188052913D3297981726168287980
:105C400088720DE0818805290AD3297981726168FB
:105C50002879887260688188062901D36979C172C0
:105C6000606855F7BEFFDFE7FFB587B00E460998BD
:105C700056F753F90999090A0391002876D088004C
:105C8000534905900D585549B079096B0A22504384
:105C9000B47808183CF724FF01906868002808D001
:105CA000012C2DD00398FFF755FF6868002802D01B
:105CB00026E0022C5AD1B0880127022805D301988A
:105CC000417800780C02044302E04DF713F80446D3
:105CD0004DF710F8A04201D20224002720464C3094
:105CE00083B23C493E48099A55F762FF241D68601B
:105CF0004480002F01D0002000E034206968087043
:105D000068680028BAD0811D0091B2880199841C6E
:105D1000071D01928088238882189A4209D8009A28
:105D20008018019A58F7C2F9398801980818388004
:105D300009E01A1A009BC01858F7B8F92088388073
:105D4000696834200870388804280FD30098417897
:105D50000278080210432188001D884207D280B2D1
:105D600020803988814207D9388002E086E0884265
:105D700002D96968342008703888218888427DD12A
:105D8000686800990C380190039853F73AF86968ED
:105D90000978002974D10F49884271D003990F0204
:105DA00038431FE0287AFD07252000000408000082
:105DB00089E7F1074C7EFD07030C0000C3C3C3C392
:105DC0005077FD07CC7DFD070DC3F0075CE5F107BB
:105DD000AC7DFD07FFFF0000260E0000E078FD0708
:105DE000010A00000199C88020880221019055F71E
:105DF000D1FD04902288009958F758F9049800289A
:105E00003CD0696800208880019802226B46039983
:105E100007C36868049B821C011D801D3CF73AFD86
:105E200069680870049855F730FE68684188002951
:105E300002D00178002956D0018940393F2946D83F
:105E40000178302920D00146F64A05980C391058BF
:105E500008303CF783FE69680398891D3CF72BFDE9
:105E600046286868018921D0032203984FF750F82B
:105E700000282ED0808A00282ED02AE047E0FFE7B5
:105E80000398FFF767FE42E0E749098D0906C90F4D
:105E900007D0E6490C380968099A898D89B255F707
:105EA000BDFE68680C3855F7C6FE12E00322039861
:105EB0004FF72EF804000CD039460A310423DC4891
:105EC000099A55F775FEA18941801021017055F797
:105ED00088FE002068601AE0686800220189039843
:105EE0003CF7E4FCF5E70189084640383F280ED826
:105EF000032203984FF70CF8002808D0808A002866
:105F000005D168680022018903983CF7CFFCB0797D
:105F10003CF7D9FD00200BB0F0BDFFB58BB00646B5
:105F200016980027022821D00D98018814988142E4
:105F300078D37188084640383F2802D815984FF723
