:0200000407FCF7
:10000000D07CFC077105FC077905FC079105FC070E
:1000100000000000000000000000000000000000E0
:10002000000000000000000000000000A905FC071F
:100030000000000000000000AB05FC07AD05FC0758
:10004000FB21FC075722FC071D27F007B117FC070F
:10005000D11CFC07AF05FC07AF16FC07AF05FC077A
:10006000AF05FC07AF05FC077712FC077B12FC0706
:100070007F12FC078312FC078712FC07AF05FC0701
:10008000FD12FC07AF05FC07AF05FC07AF05FC0739
:10009000AF05FC07AF05FC07AF05FC07AF05FC0784
:0200000407FCF7
:100510000448854606F07CFB004800474508FC0778
:10052000C046C046D07CFC0710B50F4906200880A5
:100530000F2000F00CF8012000F009F8002000F076
:1005400006F8002005210907088062B610BD0028C2
:1005500009DBC106C90E0120884004490860BFF3C9
:100560004F8FBFF36F8F70470034005080E100E081
:100570000F4880470F48004704207146084203D0C7
:10058000EFF309800C490847EFF308800A49084750
:1005900004207146084203D0EFF309800749084759
:1005A000EFF3088005490847FEE7FEE7FEE7FEE7B0
:1005B0002905FC071105FC072906FC07C105FC07F6
:1005C00005221207518A8023194351821349036877
:1005D0000B6043684B6083688B60C368CB600369C2
:1005E0000B6143694B6183698B61C369CB610862AD
:1005F0000B48836A4B62C36A8B62036BCB62C36B2B
:100600000B63436B4B63806B88630649082008804B
:10061000908A800601D500BE7047FEE70000FD0706
:1006200000ED00E000330050052109070A8A042389
:100630001A430A820A8A02231A430A820A89402339
:100640001A430A811B4B01221A601B4B08221A8095
:100650004A8A80231A434A82184A0368136143680E
:10066000536183689361C368D3610369136243690B
:10067000536283699362C369D36210631048836ACB
:100680005363C36A9363036BD363C36B0B4A4032F8
:100690001360436B5360806B9060888A800608D536
:1006A00000BE488A012280088000D203104348829D
:1006B0007047FEE780E200E0003300504000FD0795
:1006C00000ED00E0F8B503460C4601201546002178
:1006D0002B4E0246412B3BD00ADC012B16D00222C6
:1006E000072B26D0402B23D12078022824D32AE0C0
:1006F000422B33D0432B37D0442B19D120780028FC
:100700001AD01F48407B2870227010E006221D4935
:100710001D485DF7EFFC0627002802D006221A4983
:1007200001E00622B11C28465DF7C0FC27700020BE
:10073000F8BD2078022802D221700420F8BD30785C
:100740002870707802E0307A2870707A6870DBE781
:1007500020780028F0D00A48807AD4E72078002852
:10076000EAD00748C07ACEE720780028E4D0307B72
:10077000C9E7002070470120704701207047000042
:10078000526CFC0790E1F1079847FD07F8B5022885
:1007900001D003284ED1974A136904210B431361FA
:1007A00005242407628A20239A436282228A022334
:1007B0001A432282904E0027102202287578608A00
:1007C00039D010436082608A084360827068C01C20
:1007D00083088A480760628A40210A436282628AEB
:1007E0008A43628247618649816201210904C162AC
:1007F000218880200143218000970099491C0091A5
:100800006429FADB618A1022114361827B495B1EF5
:100810004B6121888143218003205BF753F8002836
:100820000CD00120F070208A0F2109028843290290
:1008300008432082F8BD90436082EDE7F77030787E
:100840000543F0E708B500F080F800F0A6FA0525AA
:1008500000262D07042709E00421684600964CF77E
:10086000C9FB002814D000F00FFA11E02889000617
:100870000ED501208007006B000409D46148007880
:10088000C00705D15BF7A9FD5F4800780428E3D0D5
:1008900072B601F073FD042806D002280BD003289D
:1008A00009D001284BD04BE058480078012801D0EE
:1008B000032000E00220694608700446288A384375
:1008C00028822046FFF762FF022C01D0032C18D1AA
:1008D0004F484188FF2201329143418041880122E3
:1008E0001143418000960098401C00901428FADBC8
:1008F000688980088000401C688168894006FCD5B2
:100900006E80A88A800602D542490820088030BF40
:10091000A88A800602D53F49082048803648C0781A
:10092000002807D03C48006801898AB2416803204A
:100930005AF7A2FF2F480169B943016100E030BFB7
:1009400062B6C8203549088090E7F0B53448354E86
:100950000827354A354BB04201D3394608E090426A
:1009600001D30C2104E0984201D30E2100E00F21B5
:100970002F4C304D204864192F4D8170641901258A
:10098000ED034460AC4201D8012406E00325AD0329
:10099000AC4201D8032400E00F240C434470274CE0
:1009A00031468C4223D2264D26467519944205D3F2
:1009B0008D4201D204271AE00C2718E09C4209D38B
:1009C000954201D2022712E08D4201D206270EE0A5
:1009D0000E270CE09D4201D2012708E0954201D28A
:1009E000032704E08D4201D2072700E00F2707709C
:1009F000F0BD000000ED00E06C47FD070000F407CB
:100A0000204F101A5877FD07BC48FD07B477FD0743
:100A100020000050003300505876FD070031005090
:100A20006C47FD070000FD0700C0FC070080FC07C5
:100A30001005FC076C710000000004F8D07CFC0776
:100A40000C040000704770B50D46002441F793FF79
:100A50002855641CE4B2202CF8D3002070BD10B5DA
:100A60005DF712FB10BD10B55DF717FB10BD7047A9
:100A700070470749884200D000BE05210907488A0F
:100A8000012280088000D203104348827047000092
:100A90001111111128480178002902D080214170DC
:100AA00070472649002008702549C87070472249C0
:100AB0000A78002A03D000280CD002200BE000287E
:100AC00001D0022000E001201C4908701C490120CF
:100AD000C87070470120803048707047002805D0EA
:100AE000012804D0022804D10120E0E7D2E7002049
:100AF000FBE7704710490120C87070470E4900207D
:100B0000C87070470C48C07870470020EFF3108120
:100B1000012282F31088052212071289120605D4D9
:100B20000848028901231A4302811846002900D08F
:100B3000012181F3108870477447FD07B477FD07E2
:100B40005877FD070033005070B505200007018974
:100B50003022914301810189802211430181018961
:100B600089088900491C01810189082319430181F1
:100B7000D3490C8814430C80448A9C4344820589E1
:100B8000402425430581058A0426B5430582858ACC
:100B9000AD07FCD5CB4E002575610E8801252E438F
:100BA0000E804D89AE05C84D0E8801D52E4300E05C
:100BB000AE430E800D887826B54328350D800D880C
:100BC000062635430D80458A1D4345820B88934395
:100BD0000B800289A24302814889800503D5B84968
:100BE00005206031888001208007016882159143CB
:100BF0000160B64801683F225202914342148918AD
:100C00000160016802031143016070BD10B5B04975
:100C100000200968572901D9573908B2C10F0818AF
:100C200040103D21484300B2C10701D01F3000B23F
:100C3000A849884200D8084680B25BF75BFC10BD2B
:100C400010B59F494888C006040F48880122104308
:100C5000488048881E22904348809F484B0143802B
:100C60000523038003885B07FCD480884B8893436B
:100C700014334B804B885B085B004B804B8893435D
:100C8000620013434B8010BD70B594490120C863C6
:100C9000C86B0028FCD101208007C069894C002165
:100CA0002269904200D22161A2780125002A04D055
:100CB000A1702061FFF7C4FF11E021691922411AD8
:100CC000D201914211D32061FFF7BAFFE188884237
:100CD00001D9411A00E0091A89B2182905D3E08028
:100CE00005F084FE002800D1A57070BD10B548F74E
:100CF000C7F810BD10B548F7D2F810BD714B0020F1
:100D0000197800290DD075490122CA63CA6B002ADF
:100D1000FCD101218907C969714A1268914201D247
:100D2000012070470021197070470020704710B5EE
:100D30006C4900200860FFF769FF01208007016B04
:100D400049004908016310BD08B55E4988805C49C7
:100D50004A8801231A434A80002200920099491CC4
:100D600000911429FADB052109074B899B089B0098
:100D70005B1C4B814B895B06FCD5488019208001A8
:100D80000092521C00928242FBDB4889800880005E
:100D9000488148890006FCD508BDF8B55248C821ED
:100DA00001800024448051480827478000F040F922
:100DB000434820304088C046C04642480121017067
:100DC0003F4860304188C908C90041803C4E718964
:100DD00089050AD54188C2130905090D8918418082
:100DE0004188782291434031418005252D0768884C
:100DF000002803D137488838FFF7A6FF70884008DD
:100E0000400070803A4804606A8A40210A436A823E
:100E10006A8A8A436A8244613649816201210904EF
:100E2000C162288880210843288000940098401CD3
:100E300000906428FADB002000F08AFF214820306F
:100E400000F0D8F82C490A8A1E484281498A8181DB
:100E500000F05AFF00F05AF804F0FBFB012041F7C4
:100E600090FDFFF771FE2548006841F723FA2448FA
:100E7000C47004710120800701688215114301606C
:100E800001F010F8FFF706FE02F0CAFF02F016FEAE
:100E9000FFF74DFF1B4913200860FF201A499130CE
:100EA00008600B494F200860EC827088E02188437D
:100EB000A03070800C49C82008800C484780F8BDDD
:100EC000200000507847FD0700100000000200409D
:100ED000C048FD07E204000000160050C0000040BA
:100EE0007876FC07AC76FD070031005000330050E7
:100EF0000000F407204F101A00FEF8074C76FD079B
:100F00005877FD07C448FD07C848FD0770B5204C59
:100F1000204920465DF7E3F805211F4849025DF7A7
:100F2000DEF805F015FC1D480025058030221C491F
:100F30001C485DF7BBF81C481D4905701B4808603C
:100F40001D491C4808601E491C4808601D490A20AC
:100F500008701D481D490570322008701C49052085
:100F600008601C4A012111601B4908601B490620CA
:100F700008601B49072008601A4908200860FF2004
:100F8000194907300860194908601948046070BDA4
:100F9000005CFD07781600000076FD07A847FD07F6
:100FA00058ECF107FC76FD07F976FD07A06EFC070B
:100FB0005076FD07606CFC075476FD07E46DFC0776
:100FC0005876FD07B476FD07B576FD07DD76FD079B
:100FD0005C76FD076076FD076476FD076876FD07A1
:100FE0006C76FD077076FD074876FD074476FD07B1
:100FF0004C76FD0710B5062201495DF757F810BD84
:10100000A8FFF8070520000701883022114301805E
:1010100001880322114301807047052000070188E1
:10102000302291430180018889088900018070473E
:10103000F0B585B000269D4C0296029828214843C1
:10104000009600190099890046500099491C0091AA
:101050000A29F7DB0298401C02900428EDDB04F01B
:101060005BFA924D0021083D2960696001270296D4
:101070000020009002998E484900465A009938464F
:10108000884080B206421DD002982821484300992A
:10109000001989004058411C1BD000280DD0C117F1
:1010A000009A5DF747F8029A12015DF743F82A6843
:1010B0006B6810431943286069600098401C0090D9
:1010C0000A28DBDB0298401C02900428D0DB05B024
:1010D000F0BD00BEE3E7F8B5164604460D460A46E5
:1010E0001F46012000215DF725F822015DF722F857
:1010F0006E4B083B1A685B6810401940084300D1EA
:1011000000BE032C00D104246A4960014018690024
:1011100008183E43C680F8BD70B504460D460A4621
:10112000012000215DF706F822015DF703F85F4A10
:10113000083A1368526818401140084300D100BEB5
:10114000032C00D104245B49600140180121A9400F
:10115000818070BD70B504460D460A46012000210D
:101160005CF7E8FF22015CF7E5FF504A083A136894
:10117000526818401140084300D100BE032C00D132
:1011800004244C49600140180121A940418070BDF0
:10119000FFB581B00C4605460A461F4601200021D6
:1011A0000A9E5CF7C7FF2A015CF7C4FF3F4B083B70
:1011B0001A685B6810401940084300D100BE002E39
:1011C0002146284602D0FFF7C5FF01E0FFF7A4FF44
:1011D0003B4621462846039AFFF77DFF77E770B527
:1011E00004460D460A46012000215CF7A3FF2201B8
:1011F0005CF7A0FF2D4A083A136852681840114066
:10120000084300D100BE032C00D104242949600109
:10121000401800880121A940084000D0012070BD7D
:1012200070B5012421460A3881400D4688B200F08D
:101230002CF884402048C189A9430C43C48170BD67
:1012400010B504460A3804280BD82046FFF7E8FFFB
:101250001649A000A03140188038806D002801D0C8
:10126000804710BD002CFCDBE106C90E0120884040
:101270001249086010BD0A20E2E70B20E0E70C20CD
:10128000DEE70D20DCE70E20DAE700280BD0411E58
:101290004840C003010C002002E04908401C80B215
:1012A0000029FAD17047102070470000B847FD07A9
:1012B000FA6EFC07003000500014005080E200E09D
:1012C0008307FF22DB0E9A408907090E9940002808
:1012D00008DB83084F489B001B181868904308439D
:1012E000186070470007000F083883084A489B00C1
:1012F0001B18D86990430843D861704710B5FFF7B1
:101300008CFE052000078188CA0B444918D0444B45
:101310001A88520714D51A88D20711D018880222C9
:101320001043188018884008400018800C68002C72
:1013300005D0985E0421595E0A229A5EA04710BD2E
:101340008088C006FBD5374802881206F7D50122EF
:101350008280028880239A43028048680028EED069
:10136000804710BDF8B59C4605231B079C881025B7
:101370002C439C802B4CD2B26280002253001D195A
:101380006B8A0F461B0A1B02D600F740FFB23B4395
:101390006B826B891F0A3F020346F340DBB21F4397
:1013A0006F81521CD2B2042AE8D3E28A03231B02C3
:1013B0000904890F9A4309020A43E282E189000481
:1013C000800F994300020143E1810120A0800020A9
:1013D000208120886146800980018906890E0843A2
:1013E0002080208880210843208002211020FFF7E0
:1013F00067FF102000F004F8F8BD08494860704706
:10140000002805DBC106C90E012088400649086096
:101410007047000000E400E000ED00E06C48FD07CC
:10142000000200500001005000E100E03F4910B50B
:10143000884201D9642010BD3D49411878290BD854
:1014400063210901401A000479215CF7CBFD482192
:10145000484300141C300FE03549E0314118DF29C2
:101460000CD855210901401A0004E0215CF7BAFDAF
:10147000182148430014001DC0B210BD2D49411869
:10148000DF2908D847210901401A0004E0215CF750
:10149000A9FD8013F0E7002010BD264910B5494290
:1014A000884209D349424018642148434721C90072
:1014B0005CF798FDC0B210BD002010BD10B51E49EC
:1014C000498989050BD5FF21B131884205D3FF3801
:1014D0006421B138484389000AE0002010BD55213D
:1014E00009018842F9D3401A64214843FF21613140
:1014F0005CF778FDC0B210BD10B50446012000F0C5
:1015000083F8022C05D10C484089800501D50120C3
:1015100000E0002000F04EF880B200F005F8074A25
:10152000A1005158884710BD70470000A90600006F
:10153000CFF9FFFF8FFBFFFF20000050046FFC0777
:1015400083490A880F239B019A43800102430A8042
:1015500070477F490A880F239B019A438001024309
:101560000A80704710B5044679497A4808800020FF
:101570004880062000F0A4F8204600F0AEF810BD28
:1015800073480188012292031143018001880122DE
:101590001143018070476E486F49028802231A4345
:1015A0000280491E02D302889207FAD400210181E9
:1015B00040897047F8B5054668480068009068465D
:1015C000FFF7D0FF142000F0B3F8002D01D0092060
:1015D00000E00720FFF7BDFFFFF7DDFF0446012015
:1015E00000F0A6F8002668468670FFF7BBFF002DC6
:1015F00001D0092000E00720FFF7ABFFFFF7CBFF8A
:10160000534900190E80F8BDF1B5514C009920885E
:101610000122D2029043C90208432080FFF7B0FFA5
:10162000142000F085F801267602A680E680208846
:10163000F1000843208020888D10A8432080FFF708
:10164000AAFF801B87B2208828432080FFF7A3FFD2
:10165000801B009980B201291CD0F11B89B2A942DC
:1016600000D300BEA288920A92020A43A280301AD6
:1016700080B2A84200D300BEE188890A89020143F2
:10168000E1802088A8432080218801200003814335
:101690002180F8BD7900711A89B2A94200D300BE39
:1016A000A288920A92020A43A2804000DFE72849FA
:1016B000012008812A480068002800D000477047B0
:1016C000002809DBC106C90E0120884025490860B1
:1016D000BFF34F8FBFF36F8F704730B505001FD03A
:1016E0001B4C297820880122D2029043C90208436A
:1016F000208028780128687813D0FFF721FFA97887
:1017000001208002002921880ED001432180092078
:101710006080E97802200029618807D00143618058
:1017200030BDFFF716FFEAE78143EFE78143F6E7B5
:101730000AE000BF00BF00BF00BF00BF00BF00BF86
:1017400000BF00BF00BF00BF401EF2D270470000C4
:101750000015005001400000A0860100106FFC073A
:101760007448FD0780E100E0544930B4884201D05C
:10177000012100E00021524A4901891808E0838ACA
:10178000DB07DB0F12D00388541C8D68CC81AB546F
:10179000CA898B899A42F2D3828852085200828089
:1017A0008A69002A02D0C88930BC104730BC704713
:1017B00010B5444800F001F810BDF8B53F4D404E5B
:1017C000044620890007000F062826D009DC0128DE
:1017D00040D002281DD00428F3D12046FFF7C4FFD3
:1017E000EFE7072828D00C28EBD1AC4201D001202C
:1017F00000E00020400187192046FFF7B5FFA188CF
:1018000049084900A180B9690029DAD0F8898847D8
:10181000D7E7204600F01FF8D3E72046AC4201D0BE
:10182000012100E00021490189190A69002AC8D074
:10183000818A9E2319400BE02046AC4201D0012151
:1018400000E00021490189190A69002AB9D0012163
:101850009047B6E7F8BD194930B4884201D001215C
:1018600000E00021164A490189180EE003891B0691
:101870009B0F032B1BD0838A9B06DB0F002B95D07D
:10188000531C0C68CB80A25C0280CA888B889A4269
:10189000ECD3828802239A438280828880239A43F1
:1018A00082804A69002A81D0888830BC10477C2316
:1018B0001B5A9B07DB0FE1E778E7000000100050A0
:1018C0007848FD0700110050EFF31080012181F3EB
:1018D0001088052109078A880123DB021A438A80C0
:1018E000002800D0012080F31088704710B54B48C5
:1018F00041780078FFF72EFC10BD10B5EFF310848F
:10190000012080F310884648018849084900018079
:101910000520000781880122D20291438180FFF7D0
:10192000E5FF002C03D0012080F3108810BD0020BB
:10193000FAE701B56946394809780170694649787E
:10194000417008BD36490A88520852000A800A8848
:10195000FF2381339A43C00102430A800888012291
:1019600010430880704710B5044681782B480170F9
:10197000E1784170FFF7BAFFFFF7A6FF2078020772
:10198000C107520F490E520000091143C000014324
:1019900060784207920D4006C00F11438003014357
:1019A0001F48018001898908890001810121C180C6
:1019B00002880A430280002010BD10B51748417804
:1019C0000078FFF7A9FB10BD154900220B899B0881
:1019D0009B009B1C0B810B88DB059B0F012B01D906
:1019E000030C8B80488008888004FCD50120C880C7
:1019F0000888C005800F012801D98888020448881A
:101A00008018704710B50446FFF7D7FF2046FFF750
:101A1000DBFF0446FFF76AFF204610BDB848FD070C
:101A20000012005010B50120FFF78CFF05200002C6
:101A3000FFF7E8FF80B210BD10B5FFF7F3FFC00756
:101A400001D00D20C04310BD70B500249D4DFFF79F
:101A5000E9FFC00704D0641CAC42F8D30020C043A7
:101A600070BD10B5FFF7A9FFFFF740FF0020FFF79B
:101A700069FFAB20FFF7C6FF002010BD0DC89249DB
:101A80000DC1704710B50446FFF7D6FF00281ED1E0
:101A9000FFF758FFFFF791FF9F20FFF795FF00200A
:101AA000FFF792FF0006000A20600020FFF78CFF7E
:101AB00000062168000C084320600020FFF784FF27
:101AC0002168C0B208432060FFF710FF002010BD5E
:101AD00070B59AB0064660227C4968465CF7E6FA23
:101AE00018A8FFF7CFFF002815D11898002814D0A8
:101AF000411C12D0082100246D460C226243521969
:101B0000526882420CD10C2044436019FFF7B6FFA3
:101B1000285D307000201AB070BD0A20C043FAE77B
:101B2000641CE4B28C42E8D30920C043F3E710B54B
:101B3000FFF782FF002805D1FFF704FFB920FFF768
:101B400061FF002010BD10B50446FFF775FF0028A7
:101B50000DD1FFF7F7FE2046FFF754FFFFF774FFA4
:101B6000002804D1FFF75EFF800701D5002010BDDB
:101B70000B20C04310BD70B50C460546FFF75CFF57
:101B800000280DD10620FFF7DEFF002808D1022033
:101B9000FFF7D8FE20062843FFF734FFFFF754FF76
:101BA00070BD70B514460E460546FFF745FF002888
:101BB00024D10620FFF7C7FF00281FD1FF200130E6
:101BC000844200D904460220FFF7BCFEFFF7F5FE71
:101BD0000121304649060843FFF7F6FE0020FFF7D3
:101BE000B1FE05E028786D1CFFF7EEFE641EA4B27E
:101BF000002CF7D1FFF77AFEFFF726FF70BDFFB587
:101C000083B0002001900E460091FF20014315464D
:101C10000C460020FFF796FE2B488068801BA842E8
:101C200000D205462E46002715E000988019A042F4
:101C300002D90098261A761C0398B2B2C0190099EE
:101C4000FFF7AFFF019000280AD1601CBF19EE1BFF
:101C5000FF3401340090AF42E7D306980760019843
:101C600007B0F0BDF8B51D4617460C460646FFF70F
:101C7000E3FE002824D1144839198068814202D932
:101C8000001B286000E02F600220FFF75BFEFFF7DB
:101C900094FE0321204609060843FFF795FE002025
:101CA000FFF750FE002405E00020FFF78DFE3070A6
:101CB000641C761C2868A042F6D8FFF717FE0020A7
:101CC000F8BD000080841E008076FC07146FFC07BE
:101CD00010B50A4880890A49C96A002901D0884795
:101CE00010BD042000F001F810BD002805DBC1067E
:101CF000C90E012088400349086070472013005036
:101D00008C76FC0780E200E018B51B4900220A60CF
:101D100005200007448A40231C434482448A9C4394
:101D200044824A61154B8B6201231B04CB620488F9
:101D300080231C4304800092521C0092642AFBDB27
:101D40000A68D208D2000A6001889943018018BD50
:101D5000052109070988090600D400BE06490A883A
:101D6000520700D000BE002802D0FF20023000E061
:101D700001200860704700000000F407204F101A8F
:101D8000F1B592B0644E65490496088AB41C0C9073
:101D900089220520000702810122614B52031A802B
:101DA000028880231A4302800288920892000280EF
:101DB000088A02221043088200F0D5F840F700FE9E
:101DC00040F704FE0020694601E08888401C8880B6
:101DD00088889128F9D35348018809914188109146
:101DE0005149CA880F920A890E92C2880D92408B7F
:101DF00008904E48408807904888069000F05BF8AD
:101E00000025B0B22B468446494861464180FF21F7
:101E1000818001210180C188C907FCD10A4608469A
:101E2000049E275C365C7E40F607F60F8E40164314
:101E3000491CC9B2F2B2082905D112994A556D1C44
:101E40000021ADB20A46354FC82620373E801030FB
:101E5000FF2680B2B600B042E2D95B1C9BB2022BD7
:101E6000D2D32E480C9901823249002008802D4897
:101E700009990180109941802B490F9ACA800E9AC6
:101E80000A810D9AC280089A4283284A0798508096
:101E90000698488005200007028880218A43028036
:101EA00013B0F0BD10B52448FFF76AFF2248006860
:101EB00040F767FD10BD08B51A490020088048802A
:101EC000194A1E4BD380FF23D2331381C880C3210C
:101ED0005180184A082111806946088003E06A464B
:101EE0001188491C1180694609889129F7D36946F0
:101EF000088003E06A461188491C118069460988F8
:101F00009129F7D3694601E00888401C08800888B9
:101F10009128F9D308BD00001001FC07E030005003
:101F200000020040002400506028005000260050AD
:101F30000035005020200050BC76FC078080000057
:101F4000002070477047704770470020704701219C
:101F50008907086B072210430863704770474008E1
:101F60007038C0B2704740493E48086040493F4819
:101F700048814048418806229143891C41803E4A5D
:101F80006321D1803D493A4A0988603A11823C492F
:101F9000098801803B480078002802D03A49302067
:101FA0000883704700B58BB0384A4262384A826273
:101FB000384A4261384AC262384A0260384A02628C
:101FC000384A4260384AC261274800214038426B93
:101FD0001F231B049A434313D218426333480268F9
:101FE000C3129A430260026803139A430260684670
:101FF0004154491CC9B22829FAD301462C48282249
:10200000006840305CF752F8FFF7ADFFFEF718FEAE
:102010002849088004F0EAFC0BB000BD12484038A3
:10202000416B1F2212049143421389184163000639
:102030000168C908C90001600520000701898908F5
:102040008900491C018101890822114301811A4834
:102050004189890504D5018878229143083101809E
:1020600081E700004C05540780000040EBE60000CB
:102070006028005000260050002C00508447FD07C7
:102080008247FD07BA48FD0700240050411FFC07A6
:10209000451FFC074B1FFC074F1FFC07471FFC0792
:1020A0005D1FFC07491FFC075F1FFC070002004083
:1020B0004C76FD077E47FD0720000050F8B501264D
:1020C000B607B56B2846FEF715FE984C21694718F0
:1020D00000202061964938465BF76EFF95494860BD
:1020E000934A5043381A00D0101A80B20860306BFF
:1020F00008218843084330638F4805608F48006893
:10210000002810D0A8420ED28D49097800290AD1A2
:102110006168281A4018E168821D8A4201D2801D38
:1021200000E008466060F8BDF8B5FEF776FF0026CF
:102130008348052706700425824C35E02188042059
:1021400089088900891C218060802088284320809C
:10215000FEF758FF00E000BF20884007FBD4FEF7E1
:102160005CFFE088A188000408187749401805281A
:102170006E480ED24188491C89B24180142918D377
:102180004680416882684B1E934200D91A464260DD
:102190000FE046804168C3688A1C9A4200D2134609
:1021A000436067480121017038467F1EFFB2002856
:1021B000C4D1052000074189890708D041898908D1
:1021C0008900418161494A88520852004A80018948
:1021D000802211430181018AA9430182818A8907F2
:1021E000FCD500F0C3F8012080070169490700D53C
:1021F00000BE01694907FCD5F8BDF8B505263607CC
:102200007089800720D0B08A400701D503F021FAF9
:102210004E4D28888027384328804A4CFF20608014
:1022200004202080FEF7EEFE7D21C900E088A28810
:10223000000410188842F9D90520208044480088FD
:1022400070802888B8432880424801894907FCD417
:10225000FFF76AFFF8BDF8B5344E0127BD072C69BA
:10226000002C62D0200603D58020A8614AF76BFDC0
:10227000A00703D50220A86146F72BFD200706D54D
:102280000820A861002046F7E4FC04203070E00537
:1022900005D5FF200130A861012046F7DAFCA00532
:1022A00004D501204002A8614AF7B6FD600603D5B7
:1022B0004020A86146F7C8FCE00603D51020A861BD
:1022C00045F7FDF8600721D50420A8612148018960
:1022D0004908490001815AF7E3F840F7EDF9002079
:1022E00030701A484089800510D5707800280DD1CB
:1022F000194877700088C00708D10120FFF75AF904
:102300008B218900884201D902207070E00706D035
:102310000120A8615AF7E0F84AF715FD3770A006CA
:102320009DD52020A86100BE99E7F8BDBC48FD07F7
:102330007102000040000040D848FD07D048FD076A
:10234000CC76FC070016005061F8FFFF200000501B
:102350007C47FD07003300500015005010B53FF7D3
:10236000E2FF654880686549486010BD10B540F7D8
:1023700006F8624860494068886010BDF8B50026DC
:1023800000F0B5F800270090FEF7BCFB5C4C00287D
:1023900002D12079022801D10020009059480089FB
:1023A000C00711D1FEF7AAFC00280DD159F7CFF9CB
:1023B000002809D0E0780126002805D00520000774
:1023C000808AC00701D004268FE0208800287DD1B4
:1023D000FEF798FB002806D14B48806A002802D0FF
:1023E00000F085F80090FEF711FCA178684659F7D7
:1023F000B9FE002879D00125AD072869400674D4BC
:102400003F48817868464AF7F5FD00286DD03F497E
:1024100000200C683E490978022900D132343D4938
:102420000A78012A00D121340870E96B1220890A48
:1024300089020143E963E86B37490840A102084378
:10244000E863E86B3721C002C00A89050843E863E6
:10245000324900980426884200D300BEC00264219D
:102460005BF7AAFD002800D0401E244AC01E611C54
:102470001060884200D1146021480079002801D002
:10248000012100E00021106846F789FD2448C06A58
:102490008047FEF74AFC002802D0FEF7B3FD012773
:1024A000154C286B0004C00FFBD02068C005FCD57C
:1024B00020688025A8432060002F01D0FEF7ADFDE5
:1024C00010484189462906D2462200E00DE0154B0E
:1024D000511A19604281FFF741FF20680006FCD5C0
:1024E000052000070189A94301813046F8BD0E4847
:1024F0000068806A7047000000020040D048FD0775
:102500005877FD0700330050787EFD07C048FD076F
:10251000B477FD07BD48FD07FF03E0FF40420F0011
:10252000B47FFD07CC48FD075876FD07014610B57E
:102530000020C9B2142908D0172909D024290AD0AB
:10254000FC2901D101F032F910BD00F07DF910BD78
:1025500000F08FFE10BD00F0D7FB10BDF8B50025D0
:10256000794EFF27002818D00024182060438719CF
:10257000F88AFFF7DBFF002802D041683846884719
:10258000FF20F8827D60BD60FD81387D59F7D8FC61
:10259000641CE4B2202CE8D3F8BD002420461821A6
:1025A00048438119224610320D618A82CF824D60E4
:1025B0008D60CD818D813550087D59F74AFC641CB2
:1025C000E4B2202CEAD3F8BDF3B5054681B000266D
:1025D0004088FFF7ABFF01000AD05B4F6A880020FC
:1025E00018234343DB19DB8A934203D1422628E0B8
:1025F000402626E0401CC0B22028F1D30024182039
:102600006043C019C08AFF2806D0641CE4B2202CA5
:10261000F5D3202C14D014E0284608300090182060
:102620006043C0190E686B78AA880746A91DB04799
:102630000600EED16888F8820298B98A0180E8E73E
:102640004B263046FEBDF8B53F4E07460024182005
:1026500060438519E88AFFF769FF002803D0826884
:10266000394628469047641CE4B2202CEFD3F8BDCD
:10267000F3B5354E81B00F4600241820604385190C
:10268000E88AFFF753FF002804D0C3683A4628467B
:1026900001999847641CE4B2202CEED3FEBD03469A
:1026A00010B50020284A014618244C43A418E48A97
:1026B0009C4204D1182041438818006910BD491C70
:1026C000C9B22029F0D310BD42885004400CD20B6F
:1026D00001D009020843704702885004400CD20B15
:1026E00001D009020843704730B5FF21020AC4B285
:1026F000154B002018254543ED18AD8AA54204D19D
:1027000018214843C018C18A03E0401CC0B22028E9
:10271000F0D31002084330BD30B5FF21020AC4B225
:10272000094B002018254543ED18ED8AA54204D138
:1027300018214843C018818A03E0401CC0B22028F9
:10274000F0D31002084330BDDC48FD070A7902705F
:102750004A7942700B8883701B0AC3708A790271B0
:1027600049884171090A81717047000030B50346FC
:102770000120002103241A46CA40D20704D04D008C
:1027800022466D1CAA401043491CC9B20929F2D344
:1027900030BDFFB585B005460E981E460088FFF790
:1027A000E5FF049030461E210840A98A4B4A0023C9
:1027B00080300191009302920390132304AA4849A8
:1027C00006984DF718FF070027D10121202059F75F
:1027D000E1F8044620215BF782FC2C610698008812
:1027E00020830E9800886083F00701D00120C00389
:1027F000079908432080A88A60801420E88201207D
:10280000E88120461E30A86036486860201D40F7E9
:1028100081F9A88A002159F74EFB384609B0F0BD6E
:1028200070B5046905466068002805D0201D40F792
:1028300079F959F72AF9F6E700202861204659F777
:1028400024F970BD704770472448E430704730B5B4
:102850000446228B0920521C93B2648B0022254629
:10286000D540ED0706D05D1C8D4201D1104630BD2C
:102870009B1C9BB2521CD2B2092AF0D330BD10B5BA
:102880000346008B5B8B401C80B200221C46D44068
:10289000E40706D0914202D1401C80B205E0801CC2
:1028A00080B2521C52B2092AF0DB092A00D1002062
:1028B00010BD02460020802901D98D207047062ACC
:1028C00006D0072A07D0082AF8D10729F5D1704782
:1028D0000829F2D170470629EFD37047746FFC07BF
:1028E0000A1800008070FC07FFB581B00C46142068
:1028F000FFF7D5FE21780746092935D2FFF7BFFF3C
:1029000000282FD061782078FFF7D3FF06002CD164
:102910007D680DE028792178884208D10022294677
:10292000381D40F76FF9284659F7AFF802E02D68D7
:10293000002DEFD160780121083059F72BF861782C
:10294000054608315BF7CBFB207828716078687109
:102950006278A11CA81D5BF7A9FB2946381D40F72A
:10296000FDF802E0822600E0812602235248039A05
:10297000049959F71DF921780170467059F731F91A
:10298000002005B0F0BDFFB581B0002000900E46DC
:10299000039859F7C2FA002802D001284CD04DE024
:1029A0001420FFF77CFE07463188FFF750FF0546ED
:1029B0004248092D36D27C6803E02179A94203D030
:1029C0002468002CF9D117E0002C15D06379039A04
:1029D0009B1D049959F7ECF80546308828800020A3
:1029E0002871607968806279A11D681D5BF75EFBC4
:1029F000284659F7F6F821E03D770498010A7977DF
:102A00003846FFF769FE01462B480123401C039A14
:102A100059F7CEF8057059F7E4F80121039859F7F2
:102A20004AFA0BE00623039A049959F7C1F8318852
:102A3000018080210171DCE7022000900098A0E76E
:102A4000F8B517460D46104659F767FA012831D1F7
:102A50001420FFF724FE0446017FFFF710FF06460F
:102A6000217F2A781548914214D1617F6B78090241
:102A70003A4608319B1D59F79BF804460680002012
:102A80002071687860806A78A91C601D5BF70EFB76
:102A9000204609E0617F062309023A46083159F7CA
:102AA00087F806808021017159F79BF8002138468C
:102AB00059F701FA0020F8BD01140000140C0000C1
:102AC000FFB58DB00546169800270078401E0128F6
:102AD00078D80121282058F75DFF044628215BF7AC
:102AE000FEFA16980178204620300B90817100265E
:102AF00060E00720694608760B980822417916980D
:102B00008019074605904078B04001430B98417109
:102B10001699F00041180019001D091D5BF7C6FA4F
:102B20007878012805D16946087E0821084369465E
:102B300008760B988079012805D96946087E10210E
:102B40000843694608760E987100028809A8079123
:102B5000425210981E221040AB8A8030039009A880
:102B60000818C24F002269468CC1052306AAC04935
:102B70004DF741FD070018D1079809AA115A059889
:102B80004078012801D0012000E00020081A0E99A9
:102B9000401D088005984078012806D10798B5495E
:102BA000105A801C80B24DF7E4FB07206946761C62
:102BB0000876F6B216980078B04205D9002F98D062
:102BC00004E0FFE7812706E0002F07D0002C02D0A9
:102BD000204658F75AFF384611B0F0BD2C616846C0
:102BE0000E99808C088020831098C00701D00120A6
:102BF000C0030F9908432080A88A60802420E882BF
:102C00000120E8811C349C48AC606860A88A0021DF
:102C100059F751F9DFE770B505690446686900287E
:102C200001D058F732FF00202061284658F72DFFC9
:102C300070BD0069082900D300BE00224018427709
:102C400070470069082900D300BE0022401842776F
:102C50007047F8B505460C462420FFF720FD0646D0
:102C60002030002183790A46AB422BD9318B0527CE
:102C700009E04679D640F607F617BE1B7118491EC3
:102C8000521C89B2D2B2AA42F3D3032C01D2081942
:102C900015E0032C02D0042C07D012E04079D0407C
:102CA000C0070ED0C91C89B20CE0012B09D94079AC
:102CB000D040C007C0170422101A4018401E81B22D
:102CC00000E000210846F8BD70B50C4615460646E2
:102CD0000021FFF7F9FC02462102C120092300016F
:102CE000083158F765FF044612202070022128465B
:102CF000FFF7AFFFA0800120E0807019807E207276
:102D0000204658F76EFF70BD58483C307047F8B504
:102D1000044616460D462420FFF7C1FC038B002213
:102D200080212A7020301EE09F1CBC4201D8E01A8E
:102D300009E04379BFB2D340DB0707D07F1CBFB2A5
:102D4000BC4203D103203070002113E06346012B05
:102D500005D97F1CBFB2BC4201D10420F3E77F1C20
:102D6000521CBBB22A708779D2B2BC46BA4201D299
:102D70009C42D9D20846F8BDF8B52420FFF78FFC55
:102D800004464069002800D100BEFF2100918188DF
:102D90000922920291421FD10146027B0C3100921E
:102DA0008A1C964622461A32D71C9446951D0FE07F
:102DB0000E780123F65D93401E4207D07346D65C21
:102DC0006346D35C9E4201D0097817E0521CEA7139
:102DD000EA79022AECD31FE0284A91421BD121460E
:102DE00002461D310C328C46CD1C10E06346CE5C91
:102DF00017780123BB401E4207D0FAB22046FFF7E6
:102E000063FFE879401CE871F8BD491CE971E97974
:102E10000829EBD300E000BE818809229202002538
:102E200091420AD1C288018914480223401E58F7F2
:102E3000BFFE0099017045700AE0104A914209D125
:102E4000C28801890D480123401C58F7B1FE057066
:102E500058F7C7FE606958F718FE002120466561E3
:102E6000FFF732FC002159F726F8F8BD8870FC07FF
:102E70000F180000010200000471FC07022400008A
:102E8000FFB581B01F460C460226039859F745F856
:102E900000282FD12420FFF702FC054620780828BF
:102EA00004D851F7EDFE9C49884212D102233946DD
:102EB0009A48039A58F77CFE2178017021780829F6
:102EC00001D9402100E08921417058F78AFE00268F
:102ED00010E001263146039858F7EDFF617822781B
:102EE00028461D3011540C3C6C6100202035E871DF
:102EF000FFF742FF304605B0F0BDFFB581B00C468C
:102F00000226039859F709F8002826D12420FFF754
:102F1000C6FB05462F4620372078B979884210D263
:102F2000617864290DD8BA1F81540126314603986F
:102F300058F7C1FF0C3C00206C61F871FFF71CFFD3
:102F40000BE076480123801C039A049958F730FE61
:102F50008121017058F745FE00263046CBE7FFB5CA
:102F600083B0002568460571057017460E4608882F
:102F70006A4601A9FFF7CBFE044606233A46684895
:102F8000069958F715FE31880180002C05D1694655
:102F90000978032907D045800324047158F721FEDE
:102FA000002007B0F0BD02214180F6E7FFB583B0F5
:102FB0000F460020694608700871069801AA040AA5
:102FC0003888FFF7A4FE060011D12420FFF767FB25
:102FD0000546F879B9790002084369460979032959
:102FE00004D10121002810D0012816D080264C4899
:102FF0000423801E059A069958F7DAFD3988018066
:10300000867058F7EEFD0020CBE76B4628191B7839
:10301000427F99408A43427706E06B462A191B7823
:10302000507F99400843507721462846FFF754FBCC
:1030300001463A480223C01C059A58F7B9FD0470AE
:103040002919497F417058F7CCFDD0E7FFB583B00F
:103050000020694608700871180A029004981C46FE
:10306000008801AAFFF753FE064600252420FFF73B
:1030700016FB0746002E08D168460079022814D0B6
:10308000032814D0042814D080262548AB1D2146DF
:10309000001F059A58F78CFD04460498002E0188FD
:1030A00021802671658006D028E00125EDE7022504
:1030B000EBE70725E9E768460079022804D00328F2
:1030C00008D0042812D019E0684600783818807EAD
:1030D000607113E0029869463818407F0978C8404B
:1030E000C107C90F6171090AA17107E0684600783C
:1030F000C000C119601D091DFFF728FB204658F7C5
:1031000070FD00204DE710B50878122801D1FFF7B7
:1031100033FE002010BD0000FFFF0000012400006E
:10312000180C0000FFB5054687B007200E46049036
:103130000121102058F72EFC044610215AF7CFFF2A
:103140002C610A981E21084080300590A98A4A4BBC
:1031500000220293009201910390032304AA47499D
:1031600030464DF748FA07463088E0803088C01C6A
:103170003080002F4AD110980088012846D10720BE
:1031800004903D4AA98A243200206F46059B0FC750
:103190003A49032304AA491E30464DF72CFA074644
:1031A0003088A0803088C01C3080002F2ED10720AE
:1031B0000490314AA98A483200206F46059B0FC708
:1031C0002E49032304AA491C30464DF714FA070080
:1031D000308820811AD1A0883080109800886081C2
:1031E0000A98C00701D00120C00309990843208034
:1031F000A88A60801720E8820120E8810D342048E9
:10320000AC606860A88A002158F755FE38460BB0BC
:10321000F0BD10B5002201690261084658F735FC7F
:1032200010BD00690022401882737047F8B5066926
:103230000C46708901281BD1A32A19D03519A87B07
:10324000002815D03046FFF73FFA074621463046A2
:10325000FFF742FA0146172003233A46000258F7C7
:10326000A7FCA97B417001218170047058F7B9FC5B
:10327000F8BD01486C3070470C71FC070318000062
:10328000A871FC07FFB581B0002000901C460F46D6
:10329000039858F742FE002805D0039858F73DFEE2
:1032A000012837D038E0260A042321466F48039AC4
:1032B00058F77EFC04461720FFF7F1F93988218082
:1032C0008021A170BD79022D20D8C28839880027BD
:1032D000921C914202D18019857313E08288921C5E
:1032E000914211D13146FFF7F7F901461720032328
:1032F0000002039A58F75CFC457002218170067049
:1033000058F76FFCA77001E00620A070204658F720
:1033100068FC01E002200090009805B0F0BDFFB508
:1033200081B000200090039858F7F7FD002805D0E1
:10333000039858F7F2FD012838D039E01720FFF73D
:10334000AEF904460498E188070A0298002600882E
:10335000891C3546884202D1E019867B15E0218917
:10336000891C884210D1414801230921F030039A79
:1033700058F71EFC0721017058F733FC2773012111
:10338000039858F798FD13E0062538480723801E58
:10339000039A049958F70CFC012141804671029967
:1033A00009880180057158F71CFC01E0022000909B
:1033B0000098B2E770B516461720FFF770F905467A
:1033C000304658F7AAFD012827D1287B07230102A0
:1033D00026483246801E083158F7EAFB0446012091
:1033E0006080287B51F74CFC5221484320490968F2
:1033F00040188030C08B1F49C0B24A6901219047F4
:10340000607129890020891C21802071204658F78D
:10341000E8FB0021304658F74EFD002070BD70B526
:1034200015460E461720FFF73AF90446284658F786
:1034300074FD012818D17078002815D0207B062350
:1034400001020A482A46801E083158F7B1FB0121C3
:1034500041802189891C01808021017158F7C1FBBD
:103460000021284658F727FD002070BD160C0000EB
:103470004C76FD07B47FFD07FFB50646FF20FBB085
:103480001F460321E13058F785FA04467C983946F7
:1034900000882080B08A60801E2001408031C448AE
:1034A00021710FC86D460FC510226946A01D5AF73D
:1034B000FDFD182109A85AF712FEBD491822F0395E
:1034C00009A85AF7F3FD204618300546182209A925
:1034D0005AF7ECFDB6491822103145A85AF7E6FD17
:1034E00028461830182245A95AF7E0FD18210FA8E0
:1034F0005AF7F5FDAE491822D8390FA85AF7D6FD6C
:103500002046483018220FA95AF7D0FDA8491822A2
:1035100028314BA85AF7CAFD2046603018224BA923
:103520005AF7C4FD182115A85AF7D9FDA049182249
:10353000C03915A85AF7BAFD20467830182215A9C7
:103540005AF7B4FD9A491822403151A85AF7AEFDF6
:1035500020469030182251A95AF7A8FD18211BA81F
:103560005AF7BDFD92491822A8391BA85AF79EFDAB
:103570002046A83018221BA95AF798FD8C4918221A
:10358000583157A85AF792FD2046C030182257A943
:103590005AF78CFD182121A85AF7A1FD8449182259
:1035A000903921A85AF782FD2046D830182221A947
:1035B0005AF77CFD7E49182270315DA85AF776FDD6
:1035C0002046F03018225DA95AF770FD182127A86F
:1035D0005AF785FD76491822783927A85AF766FDEB
:1035E0002046FF300930182227A95AF75FFD70499D
:1035F0001822883163A85AF759FD2046FF30213040
:10360000182263A95AF752FD18212DA85AF767FD11
:103610006749182260392DA85AF748FD2046FF3027
:10362000393018222DA95AF741FD182133A85AF72D
:1036300056FD5F491822483933A85AF737FD20460E
:10364000FF305130182233A95AF730FD584918225B
:10365000A03169A85AF72AFD2046FF3069301822A8
:1036600069A95AF723FD182139A85AF738FD50499E
:103670001822303939A85AF719FD2046FF30813019
:10368000182239A95AF712FD49491822B8316FA8F2
:103690005AF70CFD2046FF30993018226FA95AF7CF
:1036A00005FD18213FA85AF71AFD4149182218397B
:1036B0003FA85AF7FBFC2046FF30B13018223FA943
:1036C0005AF7F4FC3A491822D03175A85AF7EEFCA3
:1036D0002046FF30C9301325182275A95AF7E6FC99
:1036E000657120464CF7CFFB059000283DD10021A5
:1036F0000C2058F74FF905460C215AF7F0FC2088AA
:10370000E88084980078287100206881F80701D04B
:103710000120C0037D9908432880B08A6880FC207E
:10372000F0820120F08128460830B06021483561E0
:1037300070607C98E9880180B08A002158F7BBFB53
:10374000ED880D2069460874F420088428460F305F
:1037500080B204AB002201214CF76FFC1135A8B2F6
:1037600008AB002202214CF768FC204658F78DF97F
:1037700005987FB0F0BD10B50022016902610846CE
:1037800058F783F910BD704708B5006900216A46F3
:1037900011704181C0880A460C3080B26B4601210D
:1037A0004CF74BFC002800D000BE08BD0248704713
:1037B000B072FC07B873FC07B071FC07F8B51F4680
:1037C00014460E46FC20FEF76AFF0546C088B31C6F
:1037D0000C3080B2002201214CF72FFC002800D0D1
:1037E00000BE688900281DD0390A0902C1200923BA
:1037F00022460001083158F7DBF9044668890128A0
:1038000012D01320207000206080E88801220C3044
:10381000A0802046E280B11C08305AF747FC2046C1
:1038200058F7DFF90020F8BD1220EBE710B50C4681
:10383000FC20FEF734FFC0882346801D80B20022A2
:1038400004214CF7FAFB002800D000BE002010BD78
:10385000FEB50C4600211F4615461046019158F74B
:103860005CFB002805D0284658F757FB012872D08A
:10387000C3E004232A4639468B4858F799F9054690
:10388000FC20FEF70CFF0646218880793A0A081AC8
:10389000009229808021C0B20027A97002280CD094
:1038A000042831D00A2857D0082879D00D2876D09E
:1038B000A970284658F795F99FE06288A18820886A
:1038C000A31D4CF7BAFBA87030460099FEF704FF21
:1038D0000146FC220823100258F76AF906460098B0
:1038E00051F7CEF930807760607A01067160207AF6
:1038F000000401437160E079000201437160A07926
:103900000143012071606AE06288A1882088A31DBC
:103910004CF793FBA87030460099FEF7DDFE014698
:103920000823FC22614858F743F90646009851F7EE
:10393000A7F930807760607A01067160207A000410
:1039400001437160E079000201437160A079014395
:103950000220716043E04EE06288A1882088A31DA8
:103960004CF76BFBA87030460099FEF7B5FE014698
:10397000A088FC22001D83B24C48801C58F718F91F
:103980000646009851F77CF93080A288A11D301DB1
:103990005AF78CFB2079F070042020E000E023E04F
:1039A0006288A1882088A31D4CF747FBA870304689
:1039B0000099FEF791FE01463C480623FC22401C7C
:1039C00058F7F6F80646009851F75AF93080B78054
:1039D000E0790102B180A0790143B1800320B07089
:1039E000304658F7FEF864E7E079A1790002084311
:1039F0007081AF705DE7022001900198FEBDFFB5B8
:103A000083B01C460E460027059858F786FA002812
:103A100005D0059858F781FA012840D040E0FC20F5
:103A2000FEF73DFE317882796B46891ACAB20021D1
:103A300019800191198102210D2A22D0132A24D044
:103A4000308801AA19464CF7ECFB05466846008809
:103A50002146801D83B21448059A801E58F7A8F8A5
:103A60003188018004460571684602886280002A18
:103A700003D0601D01995AF719FB204658F7B1F899
:103A80000EE0002519800A3007E000251980200A81
:103A90004EF753F86A46108102A80190D6E7022734
:103AA000384607B0F0BD0000160C000001FC000015
:103AB00010B50021474800F00EFA10BD10B501F016
:103AC00061F800F07FFF00F0CDFE01F0EDF800F0AE
:103AD00047FA0120FDF702F810BD10B504460C208E
:103AE0003D49604340188078FF2805D000F007FA70
:103AF000204600F0D3F810BDFFF7DAFF10BDD7E77E
:103B000010B500F0C2F8002801D0FFF7D1FF10BDBA
:103B1000CEE710B531490A780270401C491C5AF7AB
:103B2000C5FA10BD2D49498C0180704708210180DC
:103B300010214180002181807D21C180704770B5B6
:103B40000C4601780025254B002904D0012909D015
:103B50004820207070BD8278011D1A70581C5AF7D9
:103B6000A5FA01E040885884257070BD01200870D6
:103B7000002048808880704710B500F006FD10BD19
:103B80001FB54A78002A0AD0154B012A12D0022A02
:103B900010D0032A0DD101231022891C07E011A4A3
:103BA0001ECC03946C460EC401231022694600F01B
:103BB0000BFD1FBD009301230422F7E710B5044657
:103BC000497800F057FB204600F03DFD204600F00C
:103BD0002EFD10BD50460000F44BFD07144CFD07B0
:103BE00040E20100000102030405060708090A0B70
:103BF0000C0D0E0F0021EB4A05E0834201D101209C
:103C00007047491CC9B20C234B43D35CFF2BF4D142
:103C10000020704770B5E34AE34C15460C350DE0C3
:103C200089184968002907D0C1B20C235943891863
:103C30004968401C607025E0401C607060780C2171
:103C40004143535CFF2BEBD10AE049194968002935
:103C500003D0FFF7CFFF00280DD02078401C207044
:103C600021780C204143685CFF28EED10020607071
:103C70002070012070BD20780C214143491949680A
:103C8000401C20708847002070BD10B50121042021
:103C900058F711F9FFF7BEFF10BDBBE7F8B50546B1
:103CA0000024C04E0AE080198168002904D0641CF9
:103CB000E4B22846884701E0641CE4B220460C21A7
:103CC0004843315CFF29EED1B64E00240C3609E0A2
:103CD0008F19B968002903D0FFF78CFF002808D09E
:103CE000641CE4B221460C204143705CFF28EFD1F4
:103CF000F8BD641CB968E4B228468847F2E7F8B515
:103D0000A94DE868002841D1522304220921A7487F
:103D100057F74EFF0446E8600D20207000216170C7
:103D2000A348A080E08007202072A1720120607269
:103D30001B20E072024620460C309EA107465AF72F
:103D4000B5F9E8680B212030C17220460A462C30B4
:103D50009FA106465AF7AAF9E968C87A2031C97ABC
:103D60000E300B311F2806D8E07A0921C2192046EF
:103D70009AA30B3008E01F2908D82B20005D97A3D9
:103D80008219204609212B3000F0F9F8E868F8BDC7
:103D900070B5854EB068002827D184482C230422B2
:103DA0000921093857F704FF032101700A21B06087
:103DB0004170F72101840025857604464580102155
:103DC0000A305AF78CF92021E176A583E5838649EC
:103DD0006584488FFB22FB2800D91046E084834885
:103DE000898F814200D808462085B06870BD6F4831
:103DF00010B50123042209210A3857F7D9FE022100
:103E0000017057F7EEFE10BD10B5FFF7F0FF6648E2
:103E1000002282704169002901D04261884710BDAB
:103E20003EB500255F49009501950C225831684642
:103E300002955AF73BF95C480C22183069465AF74C
:103E400035F9594C09223834227064A1601C5AF7A4
:103E50002DF9544965844831042057F7FAFF0021B1
:103E6000042058F728F83EBD10B5044601024F481B
:103E700002230422F7300A3157F79AFE0C2201215F
:103E800054430170484A1321417018320021A2188E
:103E9000D17057F7A6FE10BD70B50D46010243481C
:103EA00014462C230422F5300A3157F781FE0146CF
:103EB00020310D724C7257F794FE70BD10B5FFF7AC
:103EC0001EFF57F78EFE38490020C86002210420EB
:103ED00057F7F1FF10BD70B5334C0646A0780D467C
:103EE000002801D000F065FC002D00D0656140493C
:103EF000304600F03FFCA070FFF7E0FF70BD10B54A
:103F0000294CA078002801D000F053FC0020A070BC
:103F1000606110BD374B10B59A4201D91A4602E0D4
:103F2000002A00D1012258F795F810BD10B5FFF70F
:103F30002FFF57F756FE1C490020886010BD1A4A13
:103F4000002124324B00D35C834203D14800801807
:103F500040787047491CC9B20A29F3D3042070473E
:103F6000114910B50020FF232431042442008B5452
:103F70005218401CC0B254700A28F7D310BD70B557
:103F80000646481C1070092015460C465070224603
:103F90001946A81C5AF78AF83078A41C001930700A
:103FA00070BD0000D073FC07DC4BFD070D0D000059
:103FB0004C0400000903031802180418F5FE10242D
:103FC000162F2F7777772E69616E612E6F726700DB
:103FD0000AFF00D2444C472D424C4500444C472D2B
:103FE00050524F5852000000A479FD0748080000C5
:103FF000093EFC07FCFF3F0010B5104657F78DFF48
:10400000002802D000BE002010BD01230422092197
:10401000934857F7CDFD0121017057F7E2FDF2E714
:1040200010B508780F281BDA0C2819D004DC0128F9
:1040300005D0032814D108E00D2811D10DE04878EF
:10404000002805D1FFF772FF0AE04878002801D068
:1040500000BE05E0FFF754FD02E0487801F083FB65
:10406000002010BDF8B51C4610460E4657F755FF08
:10407000022802D000BE0020F8BD240A00D000BEF5
:104080000C202746474377483D18AC70FF2C1AD0C8
:104090000121E9700321042057F70DFF7148318891
:1040A000C153707A28713146681D06220A3159F7CA
:1040B000FDFF7A206C49604340186030017E012288
:1040C0002046FFF7E9FE31462046FFF706FDD2E71E
:1040D0000A784878092A02D0002800D000BE0020C3
:1040E000704770B51D4610460C4657F716FF2A0A52
:1040F000032802D000BE002070BD0C204243594866
:10410000FF21101881700021C170204601F019FBB9
:10411000F1E7F0B508780025544C89B01F461646E3
:10412000002804D0012817D0022827D129E06846AA
:10413000FFF7EFFC684603783246394620460A33DB
:1041400057F736FD0446057068460278411C6280C8
:10415000201D59F7ABFF2BE069460D806846FFF73D
:10416000E1FC0A2332463946204657F721FD01215A
:10417000017069460988418057F733FD002009B076
:10418000F0BD0A233946204657F712FD044668461B
:10419000FFF7CCFC022020706846008860806846EB
:1041A0004088A08068468088E0806846C08820817A
:1041B0002046E1E7002070470020704738B50C46E4
:1041C0004820694608701D0A2046FFF7B8FC2748BA
:1041D000290202230422801C0A3157F7E9FC6946B0
:1041E000097841702178017057F7FBFC002038BD39
:1041F00010B5104657F791FE012809D1FFF74DFD84
:10420000002805D00221042057F755FEFFF780FC57
:10421000002010BD70B518460D460146E12006236A
:10422000000157F7C5FC044601462846FFF79EFCEF
:10423000204657F7D6FC002070BD002070470020B4
:10424000704700207047FEB51C46089B0E26084D9F
:104250006F4668C71346224600F0DDF8FEBD000039
:10426000020D0000F44BFD073A4CFD070B0E000059
:104270003474FC07F8B50E467A2148430B4D0746C7
:1042800044192046082226771430114601F0FAF826
:10429000A01C1022314601F0F5F83EF76CFB60825D
:1042A000E85D01210843E855F8BD00003A4CFD07E0
:1042B00010B50A78180A130059F74CFF08051919A8
:1042C00019131A1A16190C22434C424312190123CE
:1042D000D3727A22414C00234243A354FFF74CFC93
:1042E00006E0FFF74DFC03E0FFF768FC00E000BECE
:1042F000002010BDF8B5180A1B0A00901C460C26B9
:104300007A20364D73430A784443334E601907468A
:104310009E19921E6037130059F71CFF06041235D0
:104320001921293589783976C90706D0711D0622E9
:10433000713059F7BBFE3079F8750020F07222E039
:104340000020F07238760098FFF78EFD1BE01722F0
:104350003A30891C59F7AAFE285D042111E0102289
:104360006130891C59F7A2FE285D102109E04A8AB4
:10437000002A0AD01C221E30891C59F797FE285D9E
:104380000221084328550020F8BD1C22801C891CEE
:1043900059F78CFE285D0121F3E700207047180AC9
:1043A0007A2250430D4A0978801860300176002047
:1043B0007047002070470020704700207047FEB50E
:1043C0001C46089B0726064D6F4668C713462246C3
:1043D00000F021F8FEBD0000F44BFD073A4CFD074C
:1043E000B474FC07FFB583B01C4E002401AFA000DD
:1043F0003558002D00D100BE009703A80FC8A8476C
:10440000002805D0641C082CF1D3002007B0F0BDB3
:1044100068460079FAE7F8B5089C9C46079D034674
:10442000002C19D0641E17D40D4FE600AE5B9E42DF
:1044300001D0BE420ED1E3005B195C68002C00D1B4
:1044400000BE002C08D013466246A04706990870AB
:104450000020F8BD641EE8D50120F8BDEC74FC070F
:10446000FFFF0000052000070089000608D5012095
:104470008007006B000403D403480078C00701D014
:1044800000207047012070475877FD072F4A002110
:104490008B00D358002B04D0491C0529F8DB2C488D
:1044A00070478B00D0502B4808180004000CF6D041
:1044B000704770B50C46054600F03EF8002804DB56
:1044C000224980000C50284670BD00BE204870BDB7
:1044D00010B51E4C0146241F2088002802D0FFF78B
:1044E000E8FF10BD0846FFF7D1FF208010BD174838
:1044F00010B5001F0088002803D00022042157F7C0
:1045000086FB10BD70B51349049C4942411805292A
:1045100001D3012070BD00F00FF80025002807DB53
:104520000A4A81005058002803D05550804700E0C7
:1045300000BE2570002070BD06494942401805287C
:1045400001D240B270470020C0437047B84CFD070D
:10455000FFFF00000E040000F8B5484D8400295903
:10456000002910D101021E23042245480A3157F7C1
:104570001FFB012606700746285107224149801C6F
:1045800059F794FD7E702859F8BD10B50446FFF721
:10459000E3FF57F726FB0020384AA100505010BD1A
:1045A00070B5364D84002D1D2959002901D00846CB
:1045B00070BD01021E23042231480A3157F7F8FA70
:1045C00004210170285170BDFFB581B01F4604461B
:1045D000FFF7E6FF294D0646A4002D1D285910219E
:1045E000801C59F77CFD2859039A801C029959F7C1
:1045F0005DFD7770304657F7F4FA0020285105B07A
:10460000F0BD70B51D4D84000C352959002901D02D
:10461000084670BD01021E23042219480A3157F7CB
:10462000C7FA0721017001214170285170BD10B5F2
:104630000446FFF7E6FF57F7D4FA104A0020A1001E
:104640000C32505010BD70B50546FFF7DAFF044636
:104650007A2045430C4808222D18287F2077688A45
:104660006082294620461431143059F71FFDA91CD9
:104670001022A01C59F71AFD70BD0000CC4CFD079C
:10468000140E00000C75FC073A4CFD07704770478C
:1046900070B50D460446FFF7E5FE002806D06B48CE
:1046A0002A460421201857F7D5FC70BDFCF72DFAD7
:1046B0006648042208231146801E57F779FA4560A0
:1046C000047057F78EFA70BDF8B5614C069D061957
:1046D0000024002E26D0012E0CD05F4F5D4B3A46B1
:1046E000283A022E0AD05A49C91E41180A2927D34E
:1046F0000120F8BD00F080F8287039E00878461EE7
:10470000092E0DD88000001F105898422FD1B000FC
:104710003B5813504A6808781146FFF7B9FF26E066
:1047200000BE24E04A68002A02D04C48824200D3EE
:1047300000BE087845494018042157F78BFC16E065
:104740004349891E4018C0B2411E0929E8D8860095
:10475000B218803AD16F002909D0994207D0404B56
:10476000994204D0D467F219803AD46788472C70F4
:104770000020F8BD0A46010010B5384801D081423A
:1047800000D300BE0020344B283B84001C59002C71
:1047900004D0401C0A28F8DB002010BD84001A5108
:1047A000401C0406240EF7D02046FFF771FF204678
:1047B00010BD70B50446401E09281BD82648A1002C
:1047C00028380D18803DE86F002813D0244EB042E1
:1047D00010D01E480421201857F786FC1B480422DD
:1047E00008231146401EEE6757F7E2F9047057F7A9
:1047F000F8F970BD00BE70BD10B508780C46411EBA
:1048000009291FD882001448121F28388258144BD7
:104810009A4205D10022890042502830425012E0CD
:10482000890040580B4988420DD1042208231146C3
:10483000064857F7BDF9217801706168416057F764
:10484000D0F900E000BE002010BD0000030400000D
:10485000FFFBFFFF8F46FC070C4DFD07FCFF3F00F1
:104860008D46FC07704710B50A23042209210B4826
:1048700057F79EF904461B2020701420FFF75FFBBA
:104880006070142060800420A0800020E080FF2160
:1048900074312181204657F7A4F910BD1B0D00008B
:1048A000F8B50E4609781846002425460B0059F73E
:1048B00051FC090609120915150C180F1B000B24D1
:1048C0001AA512E007241CA50FE008241CA50CE083
:1048D00007241EA509E00A241EA506E00D2420A534
:1048E00003E0062422A500E000BEA31C01462248E6
:1048F00057F75EF90746307838707C70002C04D08A
:1049000022462946B81C59F7D1FB384657F769F9B2
:104910000020F8BDFEB51C46089B0126174D6F46CA
:1049200068C713462246FFF776FDFEBD4469616CF9
:104930006F672053656D6900444131343538350067
:10494000123456FFFE9ABCDE0000000001D2008047
:1049500005000100312E302E302E302D4C45000048
:10496000765F362E302E31342E3131313400000056
:10497000FFEEDDCCBBAA0000031400001475FC0799
:1049800070B51C2304220921514857F711F9044638
:104990001B2020702420FFF7D2FA60702420608052
:1049A0000423A3800021E180012222726272494D1A
:1049B000A581E18123746174A274A172204657F726
:1049C00010F970BD10B50020FCF796FD4249087043
:1049D00010BD10B5404CE17022716371207010BDA4
:1049E00010B53D490A22C88004213C48FFF792FADD
:1049F00010BD10B5044624203DF721FF01460423D5
:104A000009201A46800257F7D3F804700021324A71
:104A1000417012788270C17057F7E3F800210223C9
:104A200001220846FFF7D5FF2D48FFF7D9FF10BD3B
:104A300070B5294C01256570E078002803D06179B4
:104A40002079FCF787FB2548A570C8220421401C6B
:104A5000FFF760FA70BD10B5044624203DF7EFFE65
:104A60000146022304221F4857F7A2F800210170D3
:104A7000447057F7B6F810BD70B50020FCF73CFD48
:104A8000154D04462878844202D02046FFF7E3FF04
:104A90002C70E878002803D0052C01D2FFF7C8FF5E
:104AA00070BD10B504210D4857F71EFB10BD10B5A1
:104AB0000948C178002906D0817801294179007917
:104AC00002D0FCF729FB10BDFCF744FB10BD000031
:104AD0001B0D0000AD270000344DFD07140400003D
:104AE000701700000224000000207047002070476B
:104AF0000020704710B51446FFF7BEFF1A48214644
:104B000002881A48FFF706FA002010BD70B5184851
:104B100015460078002818D0164C17491748134E30
:104B20002278761C09780078002A05D0FCF7F4FA80
:104B300000202070142204E0FCF70CFB0120207000
:104B4000052229463046FFF7E5F9002070BDFEB585
:104B50001C46089B05260A4D6F4668C71346224629
:104B6000FFF759FCFEBD00003A4DFD07140400009C
:104B7000374DFD07364DFD07394DFD07384DFD0713
:104B80001C75FC072B480121017200214172022291
:104B90008271C171704710B50A2304220921264889
:104BA00057F706F804461B2020701720FFF7C7F9B7
:104BB0006070172060800420A0800020E080012128
:104BC0002181204657F70DF810BD10B5194C01286A
:104BD00060710DD03220206001202071617A207A2E
:104BE000FCF7B8FA04211548226857F733FA10BDCC
:104BF0009620F0E710B50F48002141710160017166
:104C0000417A007AFCF788FA04210C4857F76CFACD
:104C100010BD10B5074A107251721279012A02D0E4
:104C2000FCF77AFA10BDFCF795FA10BD080000D029
:104C3000CBE7DFE73C4DFD071B0D00001304000030
:104C400070B5164C154621462279087A497A002A11
:104C500003D0FCF761FA002002E0FCF77BFA0120A8
:104C6000207129460E48226857F7F4F9002070BDDC
:104C700010B54B788A7808781946FFF7D7FF0020DF
:104C800010BDFEB51C46089B0226064D6F4668C740
:104C900013462246FFF7BFFBFEBD00003C4DFD075B
:104CA000130400004475FC07F948002101744161B8
:104CB0008161C16001770246D162142101707047A1
:104CC000F348002101744161C160704710B50923A8
:104CD00004221946EF4856F76BFF04461B2020704C
:104CE000FC20FFF72CF96070FC2060800420A0807D
:104CF0000021E1802172204656F773FF10BD10B5E8
:104D00000446FC203DF79BFD014604231A46E24879
:104D100056F74EFF847056F764FF10BD10B5DC4C9B
:104D20002078032801D1FCF7E8FD14202070002032
:104D300000F0FBFC10BD70B502460020160BC0430E
:104D400036030C0B090500D0641C002C01D0002593
:104D50000BE00124002520213046FCF70CFF012147
:104D600009037618002802D16D1CA542F3D370BD4B
:104D7000F8B50C4606461546200B49190003A0421B
:104D800002D11146204607E00A0B230B9A4205D0B8
:104D9000012212038018091AFFF7CDFF6B462A463D
:104DA00021463046FCF72BFFF8BD08B5FCF759FE4D
:104DB0006846FCF78DFE08BDF8B50446B448B74E0A
:104DC000017A00270906090FA171027AFF43130730
:104DD0001B0FE37102891204120F2270028912055F
:104DE000120F627082681202120FA27082681203A0
:104DF000120FE2708268120F227180680001000FAA
:104E00006071282041438A1999005058002801D028
:104E1000384600E001205050A579E279C11759F7D2
:104E200089F92A0159F786F99D4A1368556818438C
:104E3000294310605160A078282148438219E07806
:104E400081005058002801D0384600E00120505021
:104E5000A578E278C11759F76DF92A0159F76AF96F
:104E60008F4D2A686B681043194328606960207968
:104E7000282148438219607981005058002801D0C8
:104E8000384600E00120505026796279C11759F761
:104E900051F9320159F74EF92A686B6810431943EA
:104EA000286069602078282148437C49411860784F
:104EB00080000A58002A00D101270F503846267872
:104EC0006278F91759F736F9320159F733F92B6837
:104ED0006A68184311432860696001200090032626
:104EE00036026178207808233246FCF751F9002514
:104EF0000095E179A07907233246FCF749F900953E
:104F0000E178A07806233246FCF742F900956179F2
:104F1000207905230022FCF73BF9217868460170CF
:104F2000617841700098FCF704FDF8BD3EB5AA21F8
:104F30006A46574C11722178062013290FD110466A
:104F4000FFF73AFF6846FFF730FF6168012202A8C9
:104F5000891CFFF70DFF40B2002800D10220C0B22B
:104F60003EBD10B5012000F0E0FB494C2078C006A2
:104F700001D5102000E00820FFF7C1FE00202074BA
:104F80006061A061E060207710BD70B50D46010E34
:104F90003F4C0A4614290FD2227080B26060002A6A
:104FA00001D0012A01D13F486060122A01D0132AA2
:104FB00002D102280AD86074132917D008DC1029FE
:104FC00017D0112915D0122908D10FE0112017E0B0
:104FD000FD2926D0FE2916D0FF290CD00820FFF786
:104FE0008EFE142020700020286070BDFFF7B9FFEE
:104FF00070BD082004E0FFF791FEFFF761FE03207B
:10500000FFF77DFE70BD207F002801D0042001E065
:10501000FFF78CFFFFF773FEFFF780FEFFF750FEF0
:1050200070BD21488078FF2806D01949012220311F
:105030000A72FEF719FF70BD1C483DF7D3FB70BD27
:1050400010B50446FC203DF7FAFB01461248042344
:105050001A46401E56F7ACFD046056F7C2FD10BD5F
:105060000021FF2802D0401CC0B27047084670479C
:10507000FF2802D0FF2905D006E0FF2918D000291B
:1050800016D001E0002801D0884211D902207047D3
:10509000484DFD071B0D000005FC0000B847FD074B
:1050A000B047FD07704FFD07F44BFD0711111111BB
:1050B0000120ECE738B5AF4B044600201B78C04315
:1050C000132B03D16B462046FCF7CCFD38BDF7B55A
:1050D00096B0002618980C463546402805D320780F
:1050E000702802D16078512802D0122019B0F0BD8A
:1050F0006768A04938464030086207210C22C9037E
:105100006846FFF7D7FF002847DB6846007870281D
:1051100003D168464078522801D01420E6E7019870
:10512000119002981290002F04D01199401A403823
:10513000B84201D21320D9E7684640221090FFF709
:10514000B9FF002829DB6846C0781490684681784A
:10515000274603A80C371590AA2907D1684600787E
:10516000702803D168464078512803D001260020DA
:1051700014900BE010223846159958F7BBFF002811
:1051800004D1E0690799884200D102264022129991
:105190001098FFF78FFF002801DA1620A6E768466F
:1051A000C078139068468078AA2807D168460078AE
:1051B000702803D168464078512803D0012500208B
:1051C00013900BE010223846159958F793FF0028EA
:1051D00004D1E0690799884200D102251698002879
:1051E00001D0022807D9012E10D0012D1BD0139910
:1051F0001498FFF73DFF0746FF224021684658F705
:1052000067FF022F15D0022E24D004E0FF22402198
:10521000684658F75DFF574911984860002D1BD02C
:10522000022D19D00EE0FF224021684658F750FFAA
:1052300001E0022D0ED04F4912984860002E07D091
:10524000022E05D001264B4D2878132809D03AE0CC
:10525000149802E0152049E71398FFF701FF06466E
:10526000F1E701216868FFF766FD00282BD1684649
:10527000C67060680190A068029020460C300EC88D
:10528000A069069003A80EC0E069079021786846DF
:105290000170617841702020015D08A801702878B4
:1052A000132810D1402269681098FFF761FD00288B
:1052B00009DB6968189A204640304031403AFFF7D0
:1052C00057FD002801DA062010E700200EE77CB524
:1052D000284C0226002022462C32616904E0237FFC
:1052E000155C6B402377401C8142F8D82078122847
:1052F00001D0132801D0082638E06846FFF75CFD8E
:105300006846FFF752FD6269002A02D0A0690028B2
:1053100018D0A169206A8A18431C9A4220D8824278
:1053200001D9401A606160682546411811486269D8
:105330002C30FFF71DFD002812DB6969A8694018B1
:10534000A8610EE00B49607C2C31FFF7C0FE0028FD
:1053500001D086B205E06269A1698918A16100E007
:10536000062600206061A069FFF76AFEF0B2FFF731
:10537000C6FC7CBD484DFD0770B53F4C0D462078FE
:10538000142827D2A978002922D0E16800291AD050
:10539000C0061FD5EA786069012381185B02994233
:1053A00013D836494018291D58F780FEE9786069FE
:1053B00040186061E168814201D1FFF788FFE16830
:1053C0006069884204D9052000E00720FFF797FCB8
:1053D000002070BD0820F9E708B50020009088780B
:1053E000002806D048686946FFF7CFFD0098FFF710
:1053F00027FE002008BD10B5887800280ED01E4872
:1054000049688160007802280AD0032808D0122851
:1054100004D0132802D00820FFF771FC002010BD33
:105420000020FFF70DFEF9E710B58878002813D0AB
:10543000898800290DD010480278142A0CD2D2068F
:105440000CD501225202914205D90720FFF757FCE3
:1054500002E00520FAE7C160002010BD0820F5E752
:10546000FEB51C46089B0426054D6F4668C71346CB
:105470002246FEF7D0FFFEBD484DFD07744DFD07E7
:105480005475FC07F7B50C46002582B01646A242BB
:1054900000D200BE0027E01E009011E03DF76BFA3D
:1054A0000299F31B5918020E2039CA77020C8A7729
:1054B000020A4A772D1D08773F1D0098EDB2FFB212
:1054C0008742EBDB601B07063F0E13D03DF753FA14
:1054D000844600210CE00320401AC0006246C2400E
:1054E0006818029B301AC0182038491CC277C9B20C
:1054F000B942F0D3301BC1B20020024607E02318A6
:10550000F51A029BEB18203B401CDA77C0B28842A8
:10551000F5D305B0F0BD000070B562480022C16A45
:10552000D243002901D0114600E00121CB17CC0B5A
:105530005B0423434C04C1625B490D684E682C43F5
:1055400033430C604B60836A002B01D0144600E0AB
:105550000124E317250C1B042B4384620D682404EB
:105560004E682C4333430C604B60C368002B01D062
:10557000144600E00124E317650FDB002B43C460F1
:105580000D68E4004E682C4333430C604B600368A5
:10559000002B01D0134600E0012303600D68DC17E7
:1055A0004E682B4334430B604C608369002B01D061
:1055B000144600E00124E317A50E9B012B438461F0
:1055C0000D68A4014E682C4333430C604B60436963
:1055D000002B00D101224261D017D30E40011843A5
:1055E0000C6852014B68224318430A60486070BD42
:1055F00038B50024FF2201212346013208460094D9
:10560000FBF7C6FD032500232D022A46194601207B
:105610000094FBF7BDFD0120009008232A460321DA
:105620000020FBF7B5FD002107232A460846009419
:10563000FBF7AEFD06232A46194600200094FBF72F
:10564000A7FD05230022194610460094FBF7A0FD94
:1056500038BD10B505242407208A02218843208202
:10566000A08A0007FCD511484188FF22013211436E
:10567000418001F055F80E48FCF700FA0C48001F75
:10568000FCF771F9FFF7B4FF00210120FFF7C1FA21
:1056900000F019F8FFF70BFA608A202188430843CD
:1056A000608210BDB847FD07B047FD0720000050DD
:1056B0007875FC0710B5042056F72FFC022801D19D
:1056C000FEF7F6F910BD10B52E48FEF701FF2E4883
:1056D000FBF793FE01210846FBF781FD002805D06A
:1056E0000122500200230146FBF73CFE10BD10B51D
:1056F00026484079002801D0FFF77CFA05200007F2
:10570000808A400701D5FFF7A4FFFBF7FBF90028CB
:1057100008D00120FBF7E2F9FBF7F7F9FBF7EEF908
:10572000FEF7E5FEFFF7CFFF10BD38B50446FCF7E6
:1057300098F96846FCF7CCF9002C01D1FCF7F7F991
:1057400038BD10B50020FEF7DAF9FFF7AAF91048C6
:10575000017A002904D0002101720E483DF742F879
:10576000FFF748FA10BD10B5002808D0442805D12D
:10577000FFF740FAFBF7BEF9FFF7A5FF10BDFFF7F3
:1057800039FA10BDB556FC07EF56FC073C4DFD0736
:10579000684DFD071111111170B50E460446002227
:1057A00003214CF7D8F805464DF7A4FA688028463F
:1057B0004CF7E2F84DF79EFA7188884200D308460C
:1057C000014620464CF7BFF9002070BD0246FB4B56
:1057D00092009A580120126900290ED0517F5E2351
:1057E0009B5C002B0BD0052906D1517E090702D501
:1057F000917C090700D400207047917DEFE70229D2
:10580000F9D00429F7D00529F6D10020EDE70246AA
:1058100030B59300E94A0120D2581269137DD47E35
:10582000157F2340547D2C40012901D0022909D144
:10583000957C527E15402A0704D41A462243D2078B
:1058400000D10020032901D0042904D1590702D432
:10585000610700D4002030BDFFB5160AD84CB50052
:10586000615910460A8B01239B0281B01A430A83B7
:1058700056F753FB002852D0132850D014284ED08E
:10588000152811D060592D210B5C0122D906002961
:105890000DDA0146A0318F7D002F08D08A753D2199
:1058A000304640F7A7FD3AE0022005B0F0BD1907E9
:1058B00003D50021A0308175F6E7A03082750298EB
:1058C00001228178437809021943401C1B39E129E0
:1058D00000D30022C178837809021943B94BFF39FC
:1058E000801C4939994200D30022C1788778090287
:1058F0003943801C1B39E12900D30022C178877805
:1059000008023843FF38493898420AD2002A08D0A2
:1059100030463EF769FA304602993EF7A8FA002071
:10592000C3E71E22142130463EF722F860590121B8
:10593000028B89028A430283F1E710B50446A2482C
:10594000008D8007800F012800D0002060710028A2
:1059500007D052F74BFE01460622A01D58F7A6FBC2
:1059600010BD06229949A01DF8E770B50546002430
:105970003DF701F82855641C082CF9DB70BDF8B51B
:10598000022707700126044646700D468879904923
:10599000C96988472A210855287900210007000F86
:1059A000A070030058F7D6FB07050709100D100B70
:1059B0001000A1700AE0A67026E0032002E0A770A4
:1059C00004E00420A07001E001281DD0A888000A8E
:1059D000801FC0B2A0721F2800D9A17228463DF7CF
:1059E0007FF8811D2046A27A0B3058F75FFB2846CE
:1059F0003DF776F801460622201D58F757FB287917
:105A00004006C00FE070F8BDA172F0E7F7B544683A
:105A10008CB025462435039505460746243547F7BF
:105A200073F906464420405B52214843694909689E
:105A30004018C0304089694608840121384642F741
:105A4000A2F846F7D6FF09900E9800698088000AF0
:105A5000C10061480818298940185F495B3158F72F
:105A6000ABFA01466868039D4718403528890690BF
:105A70000090A0680099381A4001400958F79CFA34
:105A80000A910098C019401A400140096946A06077
:105A9000098C4900C919891C49014909884204D265
:105AA0000699401840014009A06001460998081A6B
:105AB00040014A494009884215D900202B89A26833
:105AC000401CD21852015209A260EA89521CEA8194
:105AD000A368099A9A1A520152098A42EED801B271
:105AE0000D9842F7F1F8A1680998081A4201607D03
:105AF0005209824210D82A89891849014909A160AE
:105B00002A890A99511A814206D901210D9842F732
:105B1000DBF8E889401CE8812989A06858F74CFA2D
:105B2000F1802889B080208A3081A8887081002087
:105B3000B081C807C00FB073A888522148438E3087
:105B40003082304647F7EBF80398466320460FB0A3
:105B5000F0BDFFB51C490020496801240A7893B0C4
:105B6000064621460C2A0CD06A4611730022119277
:105B7000002E09D015990291169D1F2D66D940203F
:105B800064E000242246119413990291149DF4E7D5
:105B9000029989184978012905D0172903D01829B5
:105BA00001D0192924D1631E04E003AFFF5C8F42AA
:105BB00016D05B1E5BB2002BF7DA15E02C7EFD07DA
:105BC0001879FD07010700004C7EFD07CF79FD071E
:105BD000B47FFD074C76FD0716020000FFFFFF03B0
:105BE000002B01DB4A2003E003AB1955641CE4B22F
:105BF0000B0058F7AFFA1D261010101010101010DF
:105C00001026262626262626262626262626101076
:105C1000101010102600119B03E00BAFFF5C8F42A9
:105C200004D05B1E5BB2002BF7DA03E0002B01DB34
:105C30004A2006E0119F0BABD9551199491CC9B2F6
:105C400011910299895C521C89188AB2AA4201D228
:105C500000289DD0AA4200D04A20761CF6B2022E1F
:105C600001D2002882D017B0F0BD10B50022134633
:105C700007E084186478012C07D0845C521CA218B9
:105C800092B28A42F5D3184610BD80188378FAE79D
:105C9000F0B50646A9B01546002084006318DA78EE
:105CA0009F7812025B783A4352BA1B041A430B5D89
:105CB00007241B061A43231A9F0020AB401CDA510D
:105CC0000828EAD300218A0090190746C378807813
:105CD0001B02034378785BBA00040343B05C10AA4C
:105CE00000060343601A8000135038462230437880
:105CF00000781B0203433846203047785BBA3F04E4
:105D000000783B43000603430F27781A8000491CA4
:105D100013500829D7D357F75DF80146304657F797
:105D2000D6FC00282DD057F755F8034620AA10A915
:105D3000684658F7D7F800226846A11A8B009600EB
:105D4000C75C7119CF70C75A3F0A8F70C7583F0C94
:105D50004F70C35820311B0EAB550F239B1A9B006D
:105D6000C65CCE70C65A521C360A8E70C658360CA7
:105D70004E70C3581B0E0B70082ADED3002029B0CA
:105D8000F0BD0120FBE7F7B5002517460646412385
:105D90002A4629460A2055F70BFF0446002E10D04C
:105DA000012E02D0022E0CD105E02022611C002021
:105DB0003CF7FAFD04E0621C394601983CF7A4FD6B
:105DC0002070204655F70DFF2846FEBDF8B5FF4868
:105DD000009007680C46002F7BD005461C35287EB6
:105DE000002876D0012802D0022872D102E0207863
:105DF000002819D03889F649002688423AD1072070
:105E000046F77AFB002835D042233E220021F14894
:105E100055F7CEFE082101702178002913D0032107
:105E200041702178817043E0E8480226611C1430FB
:105E30002E762022044658F739F92246E6493046A4
:105E40003CF76CFD45E0002146701F22531A1B19D8
:105E500047185B78491CBB702029F7DB00213F22E3
:105E6000531A47181B1920375B78491CBB7020292F
:105E7000F6DB1DE0D6493889491C88421AD1082032
:105E800046F73AFB002815D022233E220021D148B4
:105E900055F78EFE09210170217800291BD01221AF
:105EA00041700021FF224318491C9A702029FADB17
:105EB00048F72EFE2E76402056F7FDFA00983CF764
:105EC00031FE55F7B8FE00980068002801D03CF775
:105ED00020FD0020F8BD002146701F22531A1B1917
:105EE00047185B78491CBB702029F7DBE0E770B5E9
:105EF000087800250C46012809D01D2810D02B2831
:105F000012D04022194650F713FE284670BD56F7AE
:105F1000BCF9B24801250460B14852F79CF9F4E796
:105F2000B0483CF75FFCF0E7AF4801680029ECD1CE
:105F300001210160AD483CF75BFDE6E770B5A44D7B
