:0200000407FCF7
:100000000086FC070101FC070901FC072101FC0730
:1000100000000000000000000000000000000000E0
:100020000000000000000000000000003901FC0793
:1000300000000000000000003B01FC073505FC0744
:100040003F01FC073F01FC075503FC075903FC0770
:100050003F01FC073F01FC073F01FC073F01FC0794
:100060003F01FC073F01FC072B02FC072F02FC07A6
:100070003302FC073702FC073B02FC073F01FC0789
:100080003F01FC073F01FC073F01FC073F01FC0764
:100090003F01FC073F01FC073F01FC073F01FC0754
:1000A0000448854600F0A8FD00480047B105FC075C
:1000B000C046C0460086FC0710B50F4906200880E0
:1000C0000F2000F00CF8012000F009F8002000F0EB
:1000D00006F8002005210907088062B610BD002837
:1000E00009DBC106C90E0120884004490860BFF33E
:1000F0004F8FBFF36F8F70470034005080E100E0F6
:100100000F4880470F48004704207146084203D03B
:10011000EFF309800C490847EFF308800A490847C4
:1001200004207146084203D0EFF3098007490847CD
:10013000EFF3088005490847FEE7FEE7FEE7FEE724
:10014000B900FC07A100FC075301FC075101FC07A3
:10015000FEE7FEE7704710B5032800D10420404CAD
:1001600040010019490008181A43C28010BD032835
:1001700000D104203A4A4001801801228A4082803E
:100180007047032800D10420354A4001801801221D
:100190008A404280704770B506460498144600288D
:1001A0000D46304602D0FFF7ECFF01E0FFF7DFFF1E
:1001B000224629463046FFF7CEFF70BD032800D106
:1001C0000420274A40018018008801228A401040FC
:1001D00000D00120704770B5012421460A388140C3
:1001E0000D4688B200F02BF884401E48C189A9430F
:1001F0000C43C48170BD10B504460A3804280AD8DF
:100200002046FFF7E8FF1849A00040188038806DAD
:10021000002801D0804710BD002CFCDBE106C90E90
:10022000012088401149086010BD0A20E3E70B2037
:10023000E1E70C20DFE70D20DDE70E20DBE70028FB
:100240000BD0411E4840C003010C002002E04908C9
:10025000401C80B20029FAD170471020704700007E
:1002600000300050001400500086FC0780E200E0DF
:10027000944930B4884201D0012100E00021924A23
:100280004901891808E0838ADB07DB0F12D0038855
:10029000541C8D68CC81AB54CA898B899A42F2D3A5
:1002A00082885208520082808A69002A02D0C88956
:1002B00030BC104730BC7047F8B5824D824E0446C2
:1002C00020890007000F062826D009DC012840D02D
:1002D00002281DD00428F3D12046FFF7C9FFEFE71D
:1002E000072828D00C28EBD1AC4201D0012000E037
:1002F0000020400187192046FFF7BAFFA18849086E
:100300004900A180B9690029DAD0F8898847D7E780
:10031000204600F0A5F8D3E72046AC4201D00121E9
:1003200000E00021490189190A69002AC8D0818AA0
:100330009E2319400BE02046AC4201D0012100E091
:100340000021490189190A69002AB9D00121904781
:10035000B6E7F8BD5B48AFE75C48ADE7EFF3108167
:10036000012282F31088574B052212079842908889
:1003700001D1802300E0402318439080002903D05E
:10038000012080F3108870470020FAE710B502467C
:100390004032938FDB07DB0FFBD1838980229343AD
:1003A00013438381CCB2C0231C520B041B0E038069
:1003B0000902090E818081899143818110BD70B548
:1003C000044640480D46844201D0012000E0002050
:1003D0003D49400146182046FFF7C0FF7C20005BE6
:1003E00028680102090A2046FFF7D0FFE978C8060D
:1003F0008A06800FD20FC000920049071043490FB0
:100400000843A081E878C109204680300183E9785B
:10041000CA0918D04906CA0F218A202399435201DC
:1004200011432182E9784906CA0F218A02239943A0
:1004300052001143218229790907890F8183297983
:100440008907890F0184287A3077E8683061286944
:1004500070616869B06128790007800F707770BD9E
:10046000184930B4884201D0012100E00021164A29
:10047000490189180EE003891B069B0F032B1BD033
:10048000838A9B06DB0F002B1BD0531C0C68CB8090
:10049000A25C0280CA888B889A42ECD382880223AD
:1004A0009A438280828880239A4382804A69002A04
:1004B00007D0888830BC10477C231B5A9B07DB0F72
:1004C000E1E7F7E6001000501486FC070011005029
:1004D00018B5164900220A6005200007448A402307
:1004E0001C434482448A9C4344824A61104B8B6281
:1004F00001231B04CB62048880231C4304800092E8
:10050000521C0092642AFBDB0A68D208D2000A60FF
:1005100001889943018018BD0449002802D0FF20BA
:10052000023000E001200860704700000000F4077E
:10053000204F101A1C480068002800D00047704760
:100540001A4A13695B085B00136153691B0E1B0693
:10055000401E034353619069000E000690611069CC
:10056000022398434900084310611069042188431D
:100570001061106901210843106170470B488169BF
:10058000090E090681610169490849000161704746
:1005900000B50021FFF7D4FF04480169C903FCD569
:1005A000FFF7ECFF00BD00005486FC0700E000E010
:1005B00000F040F800F096F800F09DFA00F0F7FA2D
:1005C00000F08CFA0548FFF7E3FF054800F007FA52
:1005D00000F084FA00F037FAFEE70000A086010080
:1005E000EC0CFC0738B505242407208A0221884337
:1005F0002082A08A0007FCD50B484188FF220132E7
:100600001143418009490A48FFF7D9FE002004231D
:100610000322120219460090FFF7BDFD608A2021D7
:1006200088430843608238BD200000503C0CFC0722
:100630000011005038B5274908200880FFF78AFDCF
:1006400025484088C046C046234840304188C908F4
:10065000C9004180204C203C618989050AD5418828
:10066000C2130905090D89184180418878229143F8
:100670004031418060884008400060801748002178
:10068000016005252D076B8A402213436B826B8A1C
:1006900093436B824161124A826201221204C26258
:1006A000288880221043288000910098401C0090E8
:1006B0006428FADB0020FFF72FFFFFF709FFFFF7A1
:1006C00091FFA220E8826088E0218843A03060800A
:1006D00038BD000000330050400000500000F40717
:1006E000204F101AF8B503260125360200233246A2
:1006F000032102200095FFF74EFD03210220FFF7A2
:1007000040FD002423462246214602200094FFF7A4
:1007100042FD00233246072118460095FFF73BFDB6
:1007200007210020FFF72DFD002332460521184642
:100730000094FFF730FD002332460121022000948F
:10074000FFF729FD00233246194618460094FFF7AB
:1007500022FD00233246062118460094FFF71BFDB8
:1007600006210020FFF703FD00210846FFF7FFFCEC
:1007700005210020FFF705FD01210220FFF7F7FC0E
:10078000F8BD70B50446002500210846FFF7EFFCD0
:10079000200604D506210020FFF7F3FC03E0062124
:1007A0000020FFF7E4FC6006040E00210846FFF776
:1007B000E8FC6D1CEDB2082DE6D300210846FFF7DA
:1007C000D6FC70BD10B500210220FFF7F7FC002811
:1007D000F9D110BD10B5222000F057F9C72000F064
:1007E00066F9202000F051F9FFF7ECFF10BD70B55D
:1007F000044600F039F9002C39D0012C36D12C20D8
:1008000000F043F9282000F052F9FFF7DBFF322017
:1008100000F03BF9AF4D0024285D00F048F9641C5E
:10082000E4B2462CF8D3372000F02FF9002000F076
:100830003EF9002000F03BF9002000F038F90020DC
:1008400000F035F9402000F032F9002000F02FF9D7
:10085000002000F02CF9222000F017F9C02000F051
:1008600026F9202000F011F9FFF7ACFF70BDFFF76B
:10087000A9FF122000F009F9FFF7A4FF742000F08F
:1008800004F9542000F013F97E2000F0FEF83B201C
:1008900000F00DF9012000F0F8F8D32000F007F97E
:1008A000002000F004F9002000F001F9112000F010
:1008B000ECF8112000F0FBF8442000F0E6F80020EE
:1008C00000F0F5F80C2000F0F2F8452000F0DDF81B
:1008D000D32000F0ECF8002000F0E9F8002000F050
:1008E000E6F8002000F0E3F83C2000F0CEF801200C
:1008F00000F0DDF82C2000F0C8F8552000F0D7F803
:10090000032000F0C2F8152000F0D1F8042000F018
:10091000BCF8412000F0CBF8A82000F0C8F8322045
:1009200000F0C5F83A2000F0B0F8302000F0BFF831
:100930003B2000F0AAF80A2000F0B9F8182000F0D7
:10094000A4F8802000F0B3F8222000F09EF8B12037
:1009500000F0ADF8322000F098F85E4D00244C3DD8
:10096000285D00F0A4F8641CE4B2462CF8D3FFF72D
:1009700029FF4E2000F089F8002000F098F84F2061
:1009800000F083F8D32000F092F8002000F08FF8F8
:1009900070BDF8B50D25D426242000F076F8002788
:1009A0000024FF2000F083F8641CA4B2AC42F8D30A
:1009B0007F1CBFB2B742F3D3262000F066F80027B1
:1009C0000024FF2000F073F8641CA4B2AC42F8D3FA
:1009D0007F1CBFB2B742F3D3FFF7FCFEF8BDFEB5F4
:1009E0000646D42000900D25242000F04EF8002467
:1009F0000027204668430190C019305C00F057F88A
:100A00007F1CBFB2AF4201D20198F5E7641C009889
:100A1000A4B28442ECD3262000F037F8002400274B
:100A2000204668430190C019305C00F040F87F1CFC
:100A3000BFB2AF4201D20198F5E7641C0098A4B29E
:100A40008442ECD3FEBD10B5222000F01EF8C32076
:100A500000F02DF8202000F018F8102000F015F814
:100A6000012000F024F810BD10B507210020FFF789
:100A70007EFB194C2046FFF78BFD07210020FFF776
:100A800080FB2046FFF784FD10BD10B5044605210C
:100A90000020FFF76CFB01210220FFF768FB2046D6
:100AA000FFF76FFE01210220FFF76BFB10BD10B5B1
:100AB000044605210020FFF764FB01210220FFF717
:100AC00056FB2046FFF75DFE01210220FFF759FB90
:100AD00010BD0000A00CFC071027000010B522205C
:100AE000FFF7D3FFF720FFF7E2FF2020FFF7CDFF4E
:100AF000FFF768FE10BD10B5FFF7B6FFFFF762FE07
:100B00001220FFF7C2FFFFF75DFE7420FFF7BDFF65
:100B10005420FFF7CCFF7E20FFF7B7FF3B20FFF705
:100B2000C6FF0120FFF7B1FFD320FFF7C0FF002071
:100B3000FFF7BDFF0020FFF7BAFF1120FFF7A5FF69
:100B40000320FFF7B4FF4420FFF79FFF0020FFF7CB
:100B5000AEFF0C20FFF7ABFF4520FFF796FF00200C
:100B6000FFF7A5FF0020FFF7A2FFD320FFF79FFFAD
:100B70000020FFF79CFF3C20FFF787FF0520FFF7D1
:100B800096FF1820FFF781FF8020FFF790FF4E208F
:100B9000FFF77BFF0020FFF78AFF4F20FFF775FF6D
:100BA0000020FFF784FF0020FFF781FF10BDF8B59C
:100BB0000D25D4262420FFF768FF00270024FF20FE
:100BC000FFF775FF641CA4B2AC42F8D37F1CBFB220
:100BD000B742F3D32620FFF758FF00270024002058
:100BE000FFF765FF641CA4B2AC42F8D37F1CBFB210
:100BF000B742F3D3F8BD0000064C0125064E05E0D0
:100C0000E36807CC2B430C3C98471034B442F7D32D
:100C1000FFF74AFAB017FC07C017FC0702E008C844
:100C2000121F08C1002AFAD170477047002001E066
:100C300001C1121F002AFBD1704700000B0800837E
:100C400000000000020000000000000000000000A2
:100C500000000000806040000000001060200000E4
:100C600000008060400000000010602000000000D4
:100C7000000000000000000303000002090900005A
:100C8000020303000002000000000000000000005A
:100C9000000000000000000000001541A832300AEA
:100CA0000000000000000080000000000000400084
:100CB0000000000000000000000000000000000034
:100CC0000000000A0000000000000000000000001A
:100CD0000000000000000000000000000000000014
:100CE0000000000000001541A832300AFFFFFFFF9E
:100CF000FFFFFFFFFFFFFFFFFFFFFFFFFFFFFFFF04
:100D0000FFFFFFFFFFFFFFFFFFFFFFFFFFFFFFFFF3
:100D1000FFFFFFFFFFFFFFFFFFFFFFFFFFFFFFFFE3
:100D2000FFFFFFFFFFFFFFFFFFFFFFFFFFFFFFFFD3
:100D3000FFFFFFFFFFFFFFFFFFFFFFFFFFFFFFFFC3
:100D4000FFFFFFFFFFFFFFFFFFFFFFFFFFFFFFFFB3
:100D5000FFFFFFFFFFFFFFFFFFFFFFFFFFFFFFFFA3
:100D6000FFFFFFFFFFFFFFFFFFFFFFFFFFFFFFFF93
:100D7000FFFFFFFFFFFFFFFFFFFFFFFFFFFFFFFF83
:100D8000FFFFFFFFFFFFFFFFFFFFFFFFFFFFFFFF73
:100D9000FFFFFFFFFFFFFFFFFFFFFFFC03F3FFFF6E
:100DA000FFFFFFFFFFFFFFFFF800E3FFFFFFFFFF75
:100DB000FFFFFFFFFFF00063FFFFFFFFFFFFFFFFED
:100DC000FFFFE7F823FFFFFFFFFFFFFFFFFFFFC766
:100DD000F803FFFFFFFFFFFFFFFFFFFF8BF983FF1C
:100DE000FFFFFFFFFFFFFFFFFF99F983FFFFFFFFFB
:100DF000FFFFFFFFFFFF99FD83FFFFFFFFFFFFFFE7
:100E0000FFFFFF1BFFC3FFFFFE7FFFFFFFFFFFFE94
:100E10003FFFC3FFF1FE7FFFFFFFFFFF803FFFC3E8
:100E2000FFF1FE7FFFFFFFFFE03FFFFF83FFF11EAB
:100E30007FFFFFFFFFC0FFFFFF83FFF11E7FFFFF6C
:100E4000FFFFC3FFFFFF03FFF11E7FFFFFFFFF8FC9
:100E5000FFFFFF03FFF11E7FFFFBFFFF3FFFFFFFD1
:100E600003FFF11E7FFFFBFFFE3FFFFFFE03FFF1CD
:100E70001E7FFFF3FFF87FFFFFFE03FFF11E7FFFE2
:100E8000E1FFF0FFFFFFFC23FFF11E7FFFE1FFC347
:100E9000FFFFFFC0E3FFF11E7FFFC4FF87FFFFFFDF
:100EA00001E3FFF01E7FFFC4FF8FFFFFFE01E1FFA4
:100EB000F0007FFFCCFF8FFFFFF807E1FFF0007F1E
:100EC000FFCCFF83FFFFF83FF1FFF0007FFF8CFFB7
:100ED000C0003FF80031FFFFFFFFFF9CFFE0003F35
:100EE000FE0001FFFFFFFFFF9CFFE0003FFF00004F
:100EF000FFF80F7FFF9CFF007FFFFFFF087FF80FC9
:100F00007FFF9CFF01FFFFFFFF807FF8067FFF9CB4
:100F1000FE07FFFFFFFFC07FF1C47FFF9CFC1FFFA8
:100F2000FFFFFFC07FF1C07FFF9CF87FFFFFFFFF47
:100F3000E07FF1C0FFFF9CF0FFFFFFFFFFE07FF1CC
:100F4000C0FFFF9CE1FFFFFFFFFFF07FF1C1FFFF4C
:100F50009C03FFFFFFFFFFF07FF1C3FFFF9807FF38
:100F6000FFFFFFFFF07FF1C3FFFF980FFFFFFFFFC1
:100F7000FFF07FF1C3FFFF981FFFFFFFFFFFF07F30
:100F8000F1C7FFFF803FFFFFFFFFFFE07FF1C7FFDB
:100F9000FF803FFFFFFFFFFFE3FFF187FFFF807F41
:100FA000FFFFFFFFFFE3FFF0007FFF80FFFFFFFF7A
:100FB000F80007FFF0007FFFC0FFFFFFFFC0FE0F3C
:100FC000FFF000FFFFC0FFFFFFFF07FE1FFFFFFF57
:100FD000FFFFC1FFFFFFF81FFF0FFFFFFFFFFFE154
:100FE000FFFFFFF07FFF87FFF8007FFFE1FFFFFFBC
:100FF000E0FFFFC3FFF8007FFFE1FFFFFFE1FFFF1E
:10100000E1FFF8007FFFF1FFFFFFE7FFFFF8FFF0D0
:10101000E7FFFFF9FFFFFFE7FFFFF87FF1E7FFFFC3
:10102000F8FFFFFF8FFFFFF87FF1E7FFFFF8FFFFFB
:10103000FE1FFFFFFC7FF1E7FFFFF8FFFFF01FFF40
:10104000FFFC7FF1E7FFFFFC7FFFC00FFFFFFC7F8E
:10105000F1E7FFFFFC7FFFFFC0FFFFFC7FF1E7FF31
:10106000FFFC3FFFFFC0FFFFFC7FF1E7FFFFFC3FFE
:10107000FFFFC1FFFFF87FF0E7FFFFFE1FFFFFC389
:10108000FBFFF87FF8007FFFFE1FFFFFC3FBFFF8A9
:101090007FF8007FFFFF0FFFFFE3E39FF87FFC0077
:1010A0007FFFFF0FFFFFE1C00FF87FFFFFFFFFFF94
:1010B0008007FFE0800FF87FFFFFFFFFFF80007FCA
:1010C000E0000FF87FF0007FFFFFC0003FF0001F3F
:1010D000F87FF0007FFFFFF0000FFF833FF87FF005
:1010E000007FFFFFFC0007FFE71FF87FFF1FFFFFE8
:1010F000FFFE0001FFFF0FF87FFF1FFFFFFFFF0054
:1011000000FFFF0FF0FFFF1FFFFFFFFF00007FFF4B
:101110000FF1FFFF1FFFFFFFFF80001FFF0FF1FF19
:10112000FF1FFFFFFFFFE0001FFF0FF1FFFF1FFF8B
:10113000FFFFFFFF001FFF0FF1FFFF1FFFFFFFFF7C
:10114000FF800FFF0FF9FFFF1FFFFFFFFFFFF80FEB
:10115000FF0FF8FFFF1FFFFFFFFFFFFE0FFF0FF85E
:101160007FFF1FFFFFFFFFFFFF67FF0FF87FF0000C
:101170007FFFFFFFFFFFE3FE0FF87FF0007FFFFF21
:10118000FFFFFFE1FE0FF8FFF0007FFFFFFFFFFF13
:10119000F07E0FF1FFFFFFFFFFFFFFFFFFF87E0F65
:1011A000F1FFFFE1FFFFFFFFFFFFFC7E0FF1FFF309
:1011B00080FFFFFFFFFFFFFC3E0FF1FFF1007FFF0D
:1011C000FFFFFFFFFE3F1FF0FFF11C7FFFFFFFFF50
:1011D000FFFF3FFFF8FFF11C7FFFFFFFFFFFFF1F37
:1011E000FFF87FF11C7FFFFFFFFFFFFF9FFFF87FEE
:1011F000F11C7FFFFFFFFFFFFF9FFFF87FF11C7FC8
:10120000FFFFFFFFFFFF9FFFF87FF11C7FFFFFFF46
:10121000FFFFFF8FFFF0FFF11C7FFFFFFFFFFFFFCE
:101220000FFFF1FFF11C7FFFFFFFFFFE00003FF10A
:10123000FFF11C7FFFFFFFFFC0000007F1FFF01C64
:101240007FFFFFFFFF80000003F0FFF81C7FFFFF20
:10125000FFF003FFFC0000FFF81C7FFFFFFFC01F33
:10126000800380007FF83C7FFFFFFF003000001804
:10127000007FFFFFFFFFFFFE07C0000000007FFFB1
:10128000FFFFFFFFF81F00000001007FF1FE7FFF5E
:10129000FFF07E0000000180FFF1FE7FFFFFE0FF16
:1012A00000000001C1FFF11E7FFFFF81FF00000071
:1012B0000041FFF11E7FFFFF03FE00800000387F2A
:1012C000F11E7FFFFE07FF01C000003C7FF11E7F83
:1012D000FFFC0FFF800000001C7FF11E7FFFFC1F42
:1012E000FF000000000E7FF11E7FFFFC3FFE0000AC
:1012F00000000E3FF11E7FFFFC7FFC000000000796
:101300001FF11E7FFFF8FFFE00000000031FF11E0B
:101310007FFFF1FFFFE0000000018FF01E7FFFE381
:10132000FFFFF8000000018FF01E7FFFE3FFFFFCCE
:10133000000000000FF0007FFFC3FFFFDF80000010
:10134000000FF0007FFFC3FFFFCFE00000000FF0B1
:10135000007FFFC3FFFFC7F00000000FFFFFFFFF8C
:10136000C7FFFFE1FC0000000FF3FFFFFF87FFFF57
:10137000F01F8000010FF1FFFFFF8FFFFFFE03FF53
:10138000F0067FF87FFFFF0FFFFFFF803FFE187F13
:10139000F83FFFFF1FFFFFFFF00001C0FFFE1FFF30
:1013A000FF1FFFFFFFFF000001FFFF07FFFF1FFF01
:1013B000FFFFFFE00001FFFF83FFFF0FFFFFFFFFC5
:1013C000FE0003FFFFE0FFFF0FFFFFFFFFFFFFE354
:1013D000FFFFF07FFF0FFFFFFFFFFFFFE3FFFFF8BF
:1013E0007FFF0FFFFFFFFFFFFFE3FFFFE0FFFF0FA8
:1013F000FFFFFFFFFFFFE3FFFFC1FFFF87FFFFFFCF
:10140000FFFFFFE3FFFF07FFFF87FFFFFFFFFFFF78
:10141000E3FFFE0FFFFF83FFFFFFFFFFFFE3FFF888
:101420001FFFFFC3FFFFFFFFFFFFE3FFF07FFFFF93
:10143000E3FFFFFFFFFFFFF3FFF1FFFFFFE3FFFF0E
:10144000FFFFFFFFF3FFF3FFFFFFF1FFFFFFFFFFD2
:10145000FFF3FFFFFFFFFFF8FFFFFFFFFFFFF3FFBB
:10146000FFFFFFFFFC7FFFFFFFFFFFF3FFFC00FF1D
:10147000FFFC7FFFFFFFFFFFF3FFF8007FFFFC3F54
:10148000FFF8FFFFFFF3FFF8007FFFFE0FFFF0FF05
:10149000FFFFF3FFF8C4FFFFFF87FFC0FFFFFFF16F
:1014A000FFF1E7FFFFFFC3FFC1FFFFFFF1FFF1E720
:1014B000FFFFFFF0FF83FFFFFFF1FFF1E7FFFFFFFB
:1014C000F8FF07FFFFFFF1FFF1E7FFFFFFF8FE0F57
:1014D000FFFFFFF1FFF1E7FFFFFFFCFE3FFFFFFF14
:1014E000F1FFF1E7FFFFFFFE7FFFFFFFFFF1FFF1DD
:1014F000E7FFFFFFFF7FFFFFFFFFF1FFF1E7FFFFC8
:10150000FFFF3FFFFFFFFFF1FFF0E7FFFFFFFF3FA0
:10151000FFFFFFFFF1FFF8007FFFFFFF3FFFFFFF2F
:10152000FFF1FFF8007FFFFFFF1FFFFFFFFFF1FF4D
:10153000FC007FFFFFFF1FFFFFFFFFF1FFFFFFFF2B
:10154000FFFFFF1FFFFFFFFFF1FFFFFFFFFFFFFF99
:101550001FFFFFFFFFF0FFF000FFFFFFFF1FFFFF78
:10156000FFFFF07FF0007FFFFFFF0FFFFFFFFFF0A7
:101570007FF0007FFFFFFF0FFFFFFFFFF07FFFF80F
:101580007FFFFFFF0FFFFFFFFFF07FFFFC7FFFFFED
:10159000FF0FFFFFFFFFF07FFFFC7FFFFFFF8FFFCD
:1015A000FFFFFFF07FFFFC7FFFFFFF87FFFFFFFFD5
:1015B000F07FFFFC7FFFFFFFC7FFFFFFFFF07FFF14
:1015C000FC7FFFFFFFC3FFFFFFFFF07FFFFC7FFFFC
:1015D000FFFFC3FFFFFFFFF07FF0007FFFFFFFC3B0
:1015E000FFFFFFFFE07FF0007FFFFFFFC3FFFFFF74
:1015F000FFE07FF0007FFFFFFFE1FFFFFFFFE07FE5
:10160000FFFC7FFFFFFFE0FFFFFFFFE07FFFFC7FAE
:10161000FFFFFFF0FFFFFFFFC07FFFFC7FFFFFFF2B
:10162000F87FFFFFFFC07FFFFC7FFFFFFFF87FFF1A
:10163000FFFFC07FFFFC7FFFFFFFF83FFFFFFFC4FE
:101640007FFFFC7FFFFFFFFC3FFFFFFF867FFFFC6C
:101650007FFFFFFFFE3FFFFFFF847FFFF87FFFFF5D
:10166000FFFE3FFFFFFF0C7FF0007FFFFFFFFF0F3C
:10167000FFFFFE0C7FF000FFFFFFFFFFC7FFFFFE35
:101680001C7FF001FFFFFFFFFFC3FFFFFE1C7FFF7A
:10169000FFFFFFFFFFFFC1FFFFFE3C7FFFFFFFFFDC
:1016A000FFFFFFE07FFFFE7C7FFFFFFFFFFFFFFFED
:1016B000F03FFFFCFC7FFFFFFFFFFFFFFFF81FFF76
:1016C000F8FC7FFFFFFFFFFFFFFFFE0FFFE1FC7F46
:1016D000FFFFFFFFFFFFFFFFF000003C7FFFFFFF6A
:1016E000FFFFFFFFFFFF00001C7FFFFFFFFFFFFF6B
:1016F000FFFFFFF8201C7FFFFFFFFFFFFFFFFFFF43
:10170000FC700C7FFFFFFFFFFFFFFFFFFFFCF00CF3
:101710007FFFFFFFFFFFFFFFFFFFFC780C7FFFFF56
:10172000FFFFFFFFFFFFFFFE380C7FFFFFFFFFFF04
:10173000FFFFFFFFFE0C1C7FFFFFFFFFFFFFFFFF10
:10174000FFFF001C7FFFFFFFFFFFFFFFFFFFFF808A
:101750007C7FFFFFFFFFFFFFFFFFFFFFC0FC7FFF5E
:10176000FFFFFFFFFFFFFFFFFFFFFFFFFFFFFFFF89
:10177000FFFFFFFFFFFFFFFFFFFFFFFFFFFFFFFF79
:10178000FFFFFFFFFFFFFFFFFFFFFFFFFFFFFFFF69
:10179000FFFFFFFFFFFFFFFFFFFFFFFFFFFFFFFF59
:1017A000FFFFFFFFFFFFFFFFFFFFFFFFFFFFFFFF49
:1017B000C017FC070080FC07580600002C0CFC0733
:0400000507FC00A153
:00000001FF
